:10000000E01F0010D90300001104000015040000D7
:1000100000000000000000000000000000000000E0
:1000200000000000000000000000000019040000B3
:1000300000000000000000001D040000210400007A
:1000400025040000290400002D04000031040000F4
:1000500035040000390400003D04000041040000A4
:1000600045040000490400004D0400005104000054
:1000700055040000590400005D0400006104000004
:1000800065040000690400006D04000071040000B4
:1000900075040000790400007D0400008104000064
:1000A00085040000890400008D0400009104000014
:1000B00095040000990400009D040000A1040000C4
:0402FC00FFFFFFFF02
:1003000010B5064C2378002B07D1054B002B02D0EB
:10031000044800E000BF0123237010BD70000010EE
:1003200000000000A81A000008B5084B002B03D0FD
:100330000748084900E000BF07480368002B00D1C8
:1003400008BD064B002BFBD09847F9E700000000E2
:10035000A81A0000740000106C00001000000000DB
:10036000164B002B00D1144B9D46402292029A1A44
:10037000924600218B460F461348144A121A01F088
:1003800051FB0F4B002B00D098470E4B002B00D099
:1003900098470020002104000D000D48002802D0DD
:1003A0000C4800E000BF01F017FB2000290000F01E
:1003B0002FFC01F0FBFAC04600000800E01F00100F
:1003C0000000000000000000700000109800001005
:1003D000000000000000000072B60748804707498F
:1003E000074A084B9B1A03DD043BC858D050FBDC7E
:1003F00062B6054880470000B10D0000D41A000025
:100400000000001070000010610300002548004744
:10041000254800472548004725480047254800470C
:1004200025480047254800472548004725480047FC
:1004300025480047254800472548004725480047EC
:1004400025480047254800472548004725480047DC
:1004500025480047254800472548004725480047CC
:1004600025480047254800472548004725480047BC
:1004700025480047254800472548004725480047AC
:10048000254800472548004725480047254800479C
:10049000254800472548004725480047254800478C
:1004A000254800470D040000110400001504000059
:1004B000190400001D040000210400000D040000C8
:1004C0000D0400000D0400000D0400000D040000E8
:1004D0000D0400000D0400000D0400000D040000D8
:1004E0000D0400000D0400000D0400000D040000C8
:1004F0000D0400000D0400000D0400000D040000B8
:100500000D0400000D0400000D0400000D040000A7
:100510000D0400000D0400000D0400000D04000097
:100520000D0400000D0400000D0400000D04000087
:100530000D0400000D0400000D040000002243081B
:100540008B4274D303098B425FD3030A8B4244D39B
:10055000030B8B4228D3030C8B420DD3FF220902DD
:1005600012BA030C8B4202D31212090265D0030B9C
:100570008B4219D300E0090AC30B8B4201D3CB0392
:10058000C01A5241830B8B4201D38B03C01A5241D4
:10059000430B8B4201D34B03C01A5241030B8B42D6
:1005A00001D30B03C01A5241C30A8B4201D3CB02C1
:1005B000C01A5241830A8B4201D38B02C01A5241A6
:1005C000430A8B4201D34B02C01A5241030A8B42A9
:1005D00001D30B02C01A5241CDD2C3098B4201D3C1
:1005E000CB01C01A524183098B4201D38B01C01A3F
:1005F000524143098B4201D34B01C01A52410309B6
:100600008B4201D30B01C01A5241C3088B4201D364
:10061000CB00C01A524183088B4201D38B00C01A11
:10062000524143088B4201D34B00C01A5241411A38
:1006300000D20146524110467047FFE701B5002045
:1006400000F00CF802BDC0460029F7D003B5FFF753
:1006500075FF0EBC4243891A1847C0467047C04612
:10066000002B11D1002A0FD1002900D1002802D07F
:100670000021C943081C07B4024802A14018029097
:1006800003BDC046D9FFFFFF03B4684601B5029819
:1006900000F04CF8019B9E4602B00CBC7047C0466F
:1006A000F0B54F46464605042D0C2C1CC0B417046B
:1006B000160C3F0C9946030C7C4375435F43734310
:1006C0007D19260CAD199C46AF4203D980235B02ED
:1006D0009846C4444B465143434324042E0C240CF7
:1006E0002D0466442C1959188919201C0CBC9046FD
:1006F0009946F0BDF0B583B0161C1F1C0090019107
:1007000000F02EF8041C0D1C221C2B1C301C391C64
:10071000FFF7C6FF009A019B121A8B410899201C13
:100720000A604B60291C03B0F0BDC046F0B5141C34
:1007300083B01D1C0090019100F00AF9221C2B1CB3
:10074000061C0F1CFFF7ACFF009A019B121A8B418D
:100750000899301C0A604B60391C03B0F0BDC046DC
:10076000F0B544465F4656464D46F0B41C1C85B075
:10077000002900DAA9E00F1C0021061C8846101C85
:10078000191C002C00DA97E0341C3D1C8246894677
:10079000B94273D870D04946504600F085F9834677
:1007A000391C301C00F080F95B46181A031C834684
:1007B000203B9C4600D59CE000230022514600923D
:1007C000019363469940019151468140019B0091FC
:1007D000BB4200D983E000D17EE0009A019B341C2B
:1007E0003D1CA41A9D416346002B00DA9AE00026C6
:1007F00000270296039701369E4003960126864005
:100800000296002800D171E00099019AD307994619
:100810004B464E081E435708002301220CE0AF420E
:1008200001D1A6420AD8A41BBD4124196D4101384B
:10083000A4185D41002806D0AF42F0D90138241930
:100840006D410028F8D12022029E039F5B46524250
:1008500036196F4199185AD4281CC8402C1C5B4685
:10086000DC40002968DB041C8C40231C594688406E
:10087000021CB61A9F4103E0B0428CD90026002723
:1008800041464B1E9941002300910193009A019B20
:10089000002554429D41331C6340181C3B1C6B4097
:1008A000191C009B019CC018614105B03CBC9046DE
:1008B0009946A246AB46F0BD4346DB430C1C984626
:1008C000131C00215842A1415EE7002746428F4198
:1008D00001214942884652E7B14200D87DE700260F
:1008E000002702960397002800D08DE7029E039F01
:1008F000C6E720215346091ACB400022191C0023C9
:10090000009201934B4683400B4301935CE75A46A8
:1009100020239B1A2A1C9A40201C131C5A46D040A4
:1009200018439BE720260027331A002602960397D8
:100930000127DF40039761E75B4620215D46C91A26
:10094000031CAC40CB40191C231C0B438EE7C04654
:10095000F0B545464E465746E0B4041C82B00D1C27
:10096000914698468B4262D85FD04146484600F097
:100970009BF8291C061C201C00F096F82023311A35
:100980005B428A46C81865D44B4683401F1C4B46C1
:100990008B401E1CAF4258D855D0A41BBD41002827
:1009A00000DA77E0002200230092019301328240B6
:1009B000019201238B40009300293CD0FB0798460D
:1009C000404672087B080243012600270CE0AB4238
:1009D00001D1A2420AD8A41A9D4124196D410139BE
:1009E000A4197D41002906D0AB42F0D90139241960
:1009F0006D410029F8D120220098019953465242B6
:100A0000001969419E183AD42F1CF7405346DD4027
:100A1000002E29DB3C1CB440231C5446A7403A1C42
:100A2000801A99410090019105E082429DD90023EE
:100A30000024009301940098019902B01CBC9046D8
:100A40009946A246F0BDA342A7D9002200230092F6
:100A50000193B1E720224B46521AD3401A1C434659
:100A60008B401F1C174392E7534620245646E41A36
:100A70003B1CB540E3401C1C2B1C2343CDE75246D6
:100A800020239B1A2A1C9A40271C131C5246D7402D
:100A90001F43BBE720230022581A00230092019332
:100AA0000132C240019284E710B5002903D100F061
:100AB00007F8203002E0081C00F002F810BDC04624
:100AC0001C2101231B04984201D3000C10391B0A7E
:100AD000984201D3000A08391B09984201D3000942
:100AE000043902A2105C40187047C0460403020299
:100AF00001010101000000000000000080B582B08B
:100B000000AF021CFB1D1A700749074A8023D25808
:100B1000FB1D1B7801209840031C134380228B503F
:100B2000BD4602B080BDC0460080044080B582B0A2
:100B300000AF021CFB1D1A700749074A8023D358D7
:100B4000FA1D127801209040021CD24313408022EB
:100B50008B50BD4602B080BD0080044080B582B09D
:100B600000AF021CBB1D1A80BB1D1B881B0A9BB259
:100B70001A1CFF231340054A94466344BA1D128889
:100B8000FF210A401A60BD4602B080BD00800440CB
:100B900080B582B000AF7860064B064A926FFF21A5
:100BA0008A43111C7A68FF2002400A439A67BD46B7
:100BB00002B080BD0080044080B584B000AFF86012
:100BC000B9607A601A1CFB1C1A70F968BA68131CA9
:100BD000DB009B1A9B009B187A689B18FA1C127802
:100BE0005A54BD4604B080BD80B582B000AF786075
:100BF0000649064A8E239B00D3587A68D2431A408E
:100C00008E239B00CA50BD4602B080BD00800440C8
:100C100080B582B000AF3B1D01221A703B1D00223F
:100C20005A7000F041F8A0231B06181C002100F0A8
:100C300005FAA0231A063B1D101C0021102200F00B
:100C40000FFAA0231B06181C002110220023FFF717
:100C5000B3FFA0231B06181C002110220023FFF75E
:100C6000ABFF084B181C00F00FF8A0231B06181C44
:100C7000002110220123FFF79FFF024B181C00F0F8
:100C800003F8E6E720A1070080B584B000AF7860E4
:100C90007B68FB6002E0FB68013BFB60FB68002BAC
:100CA000F9D1BD4604B080BD80B582B000AF01204F
:100CB000FFF79AFF0220FFF797FF8023DB01181C44
:100CC000FFF74CFF3B1C00221A713B1C1A4A1A60AA
:100CD0003B1C181C00F0D4FBC0239B00181C00F028
:100CE00029FDE0231B02181CFFF738FF0120FFF746
:100CF0004FFF00F071F8114AE0230321D1500F4A51
:100D0000E4230021D1500D4AE4230121D1500B49A5
:100D1000E822FA23DB008B500720FFF7EFFE084B99
:100D2000181C2E211B2200F0DDFD0720FFF7FEFE20
:100D3000BD4602B080BDC0460087930300800440DA
:100D400000C0004080B582B000AF00237B600D4B37
:100D50001B6C03221340012B06D002D3032B06D0B9
:100D600008E0094B7B6008E0074B7B6005E000234F
:100D70007B6002E0044B7B60C0467B68181CBD466C
:100D800002B080BD00800440001BB70080B584B075
:100D900000AF786039607B681F2213400133FB602D
:100DA0003B68FA685343181CBD4604B080BDC0467A
:100DB00080B500AF044B054A9A60054B054A1A609E
:100DC00000F0D4F8BD4680BD00ED00E0000000005A
:100DD00004000010001BB70090B583B000AF0023E3
:100DE0007B604F4B3B604F4B5B6A5B090F221340AC
:100DF0000F2B34D89A004C4BD3181B689F46002306
:100E00007B602FE0494B7B602CE0494B7B6029E005
:100E1000484B7B6026E0484B7B6023E0474B7B6080
:100E200020E0474B7B601DE0464B7B601AE0464B61
:100E30007B6017E0454B7B6014E0454B7B6011E025
:100E4000444B7B600EE0444B7B600BE0434B7B608C
:100E500008E0434B7B6005E0424B7B6002E00023EF
:100E60007B60C0462F4B5B6A1F22134001335B003F
:100E70007868191CFFF762FB031C7B60294B1B6F12
:100E800003221340012B09D004D3022B21D0032BC2
:100E900023D032E0344B3A681A6032E0214B1B6CAD
:100EA00003221340012B07D002D3032B08D00BE001
:100EB0002D4B3A681A600BE02B4B194A1A6007E079
:100EC000294B00221A6003E0274B3A681A60C0469B
:100ED00017E0254B7A681A6013E0124B9B681F22BB
:100EE00013401C1CFFF72EFF031C201C191CFFF7CE
:100EF0004DFF021C1C4B1A6003E01B4B00221A60C2
:100F0000C046084B9A6F184B1B68181C111CFFF742
:100F100015FB031C1A1C144B1A60BD4603B090BD90
:100F2000001BB70000800440381A0000C0270900E9
:100F300090051000C05C1500F0B31A00200B2000D3
:100F4000009F2400E0322900C0C62D0050973100D8
:100F5000E06735007038390000093D004016400058
:100F600080234300C03046000400001080B500AF6D
:100F7000BD4680BD80B582B000AF78607B68181C2C
:100F800001380028FCD1BD4602B080BDB0B588B0A4
:100F900000AF786139617B69002B25D07B69BB602C
:100FA0000023FB603B693B6000237B60B868F96805
:100FB0003A687B68FFF774FB021C0B1C101C191CA1
:100FC0000B4A0023FFF74CFB021C0B1CBA61FB61B0
:100FD000BA69FB69990794080C439D08BC61FD61DF
:100FE000BB69181CFFF7C6FFBD4608B0B0BDC046C0
:100FF00040420F0080B582B000AF021CFB1D1A708A
:101000000749074A8023D258FB1D1B7801209840CE
:10101000031C134380228B50BD4602B080BDC046E6
:101020000080044080B582B000AF7860396006234C
:10103000181CFFF7DFFFBD4602B080BD80B582B04F
:1010400000AF786039607A683B68101C191CFFF7A4
:10105000E9FF0A23181C00F031FCBD4602B080BD38
:1010600080B584B000AFF860B9607A603B60FA6820
:10107000BB68101C191CFFF7D5FF3B681B78002BC1
:1010800017D1FB68BA68802109018C46624492003E
:10109000D3587A68012191400A1CD2431A40111C8E
:1010A000FB68BA6880200001844662449200D150F7
:1010B00032E03B685B78002B0CD17B6801229A40C0
:1010C000111CFB68BA688A200001844662449200C1
:1010D000D1500BE07B6801229A40111CFB68BA6872
:1010E00088200001844662449200D150FB68BA68AF
:1010F000802109018C4662449200D2587B6801210C
:1011000099400B1C1A43111CFB68BA68802000012F
:10111000844662449200D150BD4604B080BDC046B2
:1011200080B500AF00F070F8011C064B9B6FFF22EA
:101130001340081C191CFFF701FA031C181CBD46BC
:1011400080BDC0460080044080B500AF00F04AF981
:10115000011C044B9B681F22134001334B43181C96
:10116000BD4680BD0080044080B500AF024B1B68C7
:10117000181CBD4680BDC0469000001080B500AF71
:10118000024B1B68181CBD4680BDC0468C00001079
:1011900080B582B000AF786039607B681B683A68C0
:1011A000D2431A407B681A607B681A683B681A430E
:1011B0007B681A60C0467B681B683A681340FAD0A7
:1011C000BD4602B080BDC04680B500AF014B181CC3
:1011D000BD4680BD001BB70080B582B000AF0023C4
:1011E0007B60084A8E239B00D3582022134003D1F2
:1011F000FFF7C4FF031C7B607B68181CBD4602B070
:1012000080BDC0460080044080B582B000AF00239E
:101210007B60114B1B6F012B0AD004D3022B0CD027
:10122000032B0FD013E0FFF7CFFF031C7B600EE012
:1012300000F0D8F8031C7B6009E0FFF795FF031C62
:101240007B6004E0FFF780FF031C7B60C0467B6887
:10125000181CBD4602B080BD0080044080B582B03D
:1012600000AF1A4AE823D358FF2213403B60002303
:101270007B60164AE023D358012B0AD004D3022BFB
:101280000CD0032B0FD013E0FFF79EFF031C7B60F5
:101290000EE0FFF7A1FF031C7B6009E0FFF764FF8E
:1012A000031C7B6004E0FFF7AFFF031C7B60C046BC
:1012B0003B68002B05D078683968FFF73FF9031CBD
:1012C00000E00023181CBD4602B080BD0080044031
:1012D000B0B586B000AFFFF797FF031C7B61184ADB
:1012E0009423D358FF2213403B613B69002B21D04C
:1012F0007B69BB600023FB60B868F968031C1B0EA8
:101300000A1C15021D43031C1C020D4AF423D3586A
:10131000FF2213400133FF333A6953433B600023FC
:101320007B60201C291C3A687B68FFF799F9031C35
:101330000C1C00E00023181CBD4606B0B0BDC04622
:101340000080044080B500AFFFF7C2FF031C181CEB
:10135000BD4680BD80B500AFFFF7BAFF031C181C67
:10136000BD4680BD80B500AFFFF7B2FF031C181C5F
:10137000BD4680BD80B584B000AF021CFB1D1A7055
:10138000FB1D1B78072B22D89A00154BD3181B681E
:101390009F46FFF7C5FE031CFB601BE0FFF734FF11
:1013A000031CFB6016E0FFF70FFF031CFB6011E05E
:1013B000FFF7E4FE031CFB600CE0FFF7D5FE031C07
:1013C000FB6007E0FFF7C0FE031CFB6002E00023A8
:1013D000FB60C046FB68181CBD4604B080BDC0461B
:1013E000801A000080B582B000AF00237B600F4BF5
:1013F0001B6C03221340012B08D002D3032B0AD00D
:101400000EE0FFF7E1FE031C7B6009E0FFF7E4FE5E
:10141000031C7B6004E0FFF7B1FE031C7B60C04649
:101420007B68181CBD4602B080BDC04600800440E9
:1014300080B584B000AF78600023FB607B680D4A04
:10144000934202D90023FB600FE07B680A4A934273
:1014500002D90123FB6008E07B68084A934202D965
:101460000223FB6001E00323FB60FB68181CBD4600
:1014700004B080BD802FA604C0175302E08B290161
:1014800080B586B000AF786000237B6100233B61AC
:101490000023FB602C492C4A8E239B00D3588022CA
:1014A0001A438E239B00CA50274B1B6C0322934385
:1014B0007A6812791343BB60234B234A116CBA68D4
:1014C0000A431A64214B181C0321FFF761FEFFF742
:1014D00089FF031CFB607B681B68181CF968FFF719
:1014E0002DF8031C7B617B681B68181CFFF7A0FFAD
:1014F000031C3B61144B144A92687F218A43111CE0
:101500007A69013A1F20024011433A695201602072
:1015100002400A439A600C490B4A8E239B00D35821
:10152000802293431A1C8E239B00CA50C046064B50
:10153000DB6801221340FAD0FB687A695A43044BF6
:101540001A60BD4606B080BD00800440448004405F
:101550009400001080B582B000AF78600A4B0A4A50
:10156000D26A18218A43DA620849084AE0235B00FC
:10157000D358074A1A40E0235B00CA50054B7A68EB
:101580001A60BD4602B080BD0040044000C000406B
:10159000FFFDFFFF8C00001080B582B000AF7860C7
:1015A000174B174A926B18218A439A631549154ABB
:1015B000E0235B00D358402293431A1CE0235B00D6
:1015C000CA50114B104A126A01210A431A620E498D
:1015D0000D4A8E239B00D358202293431A1C8E233E
:1015E0009B00CA50FA235B00084A181C111CFFF725
:1015F000CDFC074B7A681A60BD4602B080BDC0467C
:101600000040044000C000400080044080C3C90185
:101610008C00001080B584B000AF7860214B214A67
:10162000526B18218A435A631E4B1E4A926B182133
:101630008A439A631C491C4AE0235B00D358C022AA
:1016400093431A1CE0235B00CA50184B1B6A032209
:1016500093431A1C7B6816498B4201D9022300E090
:1016600000231343FB60114B104A116AFA680A43C6
:101670001A620E490D4A8E239B00D35820229343B1
:101680001A1C8E239B00CA50FA235B00094A181CBF
:10169000111CFFF77BFC084B7A681A60BD4604B04A
:1016A00080BDC0460040044000C0004000800440AF
:1016B000C0E1E40080C3C9018C00001080B584B093
:1016C00000AF78603960194B5B6AFB60FB685B0AAE
:1016D0005B02FB603B685B08013B1F221A407B6892
:1016E0001B0E5901F0235B000B401343FA681343B0
:1016F000FB600E4BFA685A620C490C4A8E239B0021
:10170000D358402293431A1C8E239B00CA507B68F7
:101710001B021B0A181C3968FEF710FF031C1A1C59
:10172000034B1A60BD4604B080BDC0460080044033
:101730009000001080B584B000AF021CBB1D1A8061
:10174000BB1D1B88FF221340FB60BB1D1B881B0AAF
:101750009BB21A1CFF231340BB600E4B1B6F03226E
:101760001A40BB689A4212D0FB68002B0FD1094B7C
:10177000084A126F03218A43111CBA6803200240F1
:101780000A431A67044B181C0121FFF701FDBD46EF
:1017900004B080BD0080044074800440F0B58BB07C
:1017A00000AFF861FFF730FD031C7B62224A9423EF
:1017B000D258FB695343FB61FB69002B01D1002325
:1017C00036E0FA697B6A9A4206D8786AF969FEF7C8
:1017D000B5FE031E012B01D9002329E07B6A3B6182
:1017E00000237B61FB69BB600023FB603B697C6974
:1017F000B968FA685B1A94411A0E260216431D0254
:10180000FB693B6000237B60281C311C3A687B68C5
:10181000FEF726FF031C0C1C3B62074AF023FF2146
:10182000D15005493B6AFF221340F4228B5001231B
:10183000181CBD460BB0F0BD0080044080B500AF61
:10184000034B181C0121FFF7A3FCBD4680BDC04619
:10185000E480044080B584B000AF021CFB1D1A7008
:10186000FB1D1B78FB60FB6801229A40131CBB60C8
:10187000044B044A5268B968C9430A405A60BD46DD
:1018800004B080BD0080044080B584B000AF021C6D
:10189000FB1D1A70FB1D1B78FB60FB6801229A4040
:1018A000131CBB60044B044A5168BA680A435A606F
:1018B000BD4604B080BDC0460080044080B582B003
:1018C00000AF021CFB1D1A70FB1D1B78181CFFF7D4
:1018D000C1FFFB1D1B78181CFFF7D6FFBD4602B0E9
:1018E00080BDC04680B586B000AF7860081C111C72
:1018F000FB1C021C1A70BB1C0A1C1A7000237B61A3
:1019000000233B61FB1C1B789B08DBB27B61FB1C4B
:101910001B7803221340DB003B617B687A699200ED
:10192000D358FB603B69FF229A40131CDA43FB68E3
:101930001340FB60BB1C1A783B699A40131CFA6881
:101940001343FB607B687A699200F968D150BD4609
:1019500006B080BD80B584B000AFF860B960FB1DF3
:101960001A70FB1D1B78002B0FD0BB68002B1ADBF5
:10197000FA68E0235B00D358BA68D2431A40111CBE
:10198000FA68E0235B00D1500DE0BB68002B0ADB56
:10199000FA68E0235B00D258BB681A43111CFA684E
:1019A000E0235B00D150BD4604B080BD084B10B5AC
:1019B000041C002B02D0002100E000BF054B18687A
:1019C000836A002B00D09847201C00F033F8C046F3
:1019D00000000000A41A00000E4B70B500251E1C6C
:1019E0000D4CE41AA410A54204D0AB00F35898475C
:1019F0000135F8E700F05AF8084B00251E1C084C8A
:101A0000E41AA410A54204D0AB00F358984701355E
:101A1000F8E770BDCC1A0000CC1A0000CC1A000008
:101A2000D01A0000031C8218934202D019700133AF
:101A3000FAE77047FEE7C046FE0D0000040E000006
:101A40000A0E0000100E0000160E00001C0E000012
:101A5000220E0000280E00002E0E0000340E0000A2
:101A60003A0E0000400E0000460E00004C0E000032
:101A7000520E0000580E0000060000000A00000090
:101A8000921300009C130000CE130000A613000068
:101A9000B0130000C4130000CE130000BA130000FE
:101AA000430000000800001000000000F8B5C04628
:101AB000F8BC08BC9E467047F8B5C046F8BC08BCE8
:041AC0009E46704787
:081AC4009CE8FF7F0100000017
:041ACC0029030000EA
:041AD000010300000E
:101AD40000000000001BB700000000000000000030
:101AE40000000000000000000000000000000000F2
:101AF4000000000000000000A01A00000000000028
:101B040000000000000000000000000000000000D1
:101B140000000000000000000000000000000000C1
:101B240000000000000000000000000000000000B1
:101B34000000000000000000080000100000000089
:04000003000003D91D
:00000001FF
