:10000000E01F0010C9030000190400001D040000D7
:1000100000000000000000000000000000000000E0
:1000200000000000000000000000000021040000AB
:1000300000000000000000002504000095070000FB
:100040002D040000310400003504000039040000D4
:100050003D04000041040000450400004904000084
:100060004D04000051040000550400005904000034
:100070005D040000610400006504000069040000E4
:100080006D04000071040000750400007904000094
:100090007D04000081040000850400008904000044
:1000A0008D040000910400009504000099040000F4
:1000B0009D040000A1040000A5040000A9040000A4
:0402FC00FFFFFFFF02
:1003000010B5064C2378002B07D1054B002B02D0EB
:10031000044800E000BF0123237010BD68000010F6
:1003200000000000EC1A0000044B10B5002B03D0B5
:100330000349044800E000BF10BDC04600000000B3
:100340006C000010EC1A0000402292029A1A9246A9
:100350007047C046174B002B00D1134B9D46FFF74B
:10036000F3FF00218B460F461348144A121A00F07F
:100370001EFF0E4B002B00D098470D4B002B00D0DA
:1003800098470020002104000D000D48002802D0ED
:100390000C4800E000BF00F0DDFE2000290000F066
:1003A0000BFA00F0C1FEC04600000800000000008B
:1003B00000000000E01F001068000010F0000010B6
:1003C000000000000000000072B60B4880470B4997
:1003D0000B4A0C4B9B1A03DD043BC858D050FBDC86
:1003E00009490A4A521A03DD0020043A8850FCDC0D
:1003F00062B607488047000029090000141B00006E
:10040000000000106800001068000010F0000010EC
:100410005503000025480047254800472548004768
:1004200025480047254800472548004725480047FC
:1004300025480047254800472548004725480047EC
:1004400025480047254800472548004725480047DC
:1004500025480047254800472548004725480047CC
:1004600025480047254800472548004725480047BC
:1004700025480047254800472548004725480047AC
:10048000254800472548004725480047254800479C
:10049000254800472548004725480047254800478C
:1004A0002548004725480047254800471504000017
:1004B000190400001D0400002104000025040000B0
:1004C0009507000015040000150400001504000045
:1004D0005D0D0000790D0000950D00001504000071
:1004E00015040000150400001504000015040000A8
:1004F0001504000015040000150400001504000098
:100500001504000015040000150400001504000087
:100510001504000015040000150400001504000077
:100520001504000015040000150400001504000067
:100530001504000015040000150400001504000057
:10054000150400000023C25C0133002AFBD1581EB1
:100550007047000002B4714649084900095C49002F
:100560008E4402BC7047C04603B47146490840003F
:100570004900095E49008E4403BC704700224308CD
:100580008B4274D303098B425FD3030A8B4244D35B
:10059000030B8B4228D3030C8B420DD3FF2209029D
:1005A00012BA030C8B4202D31212090265D0030B5C
:1005B0008B4219D300E0090AC30B8B4201D3CB0352
:1005C000C01A5241830B8B4201D38B03C01A524194
:1005D000430B8B4201D34B03C01A5241030B8B4296
:1005E00001D30B03C01A5241C30A8B4201D3CB0281
:1005F000C01A5241830A8B4201D38B02C01A524166
:10060000430A8B4201D34B02C01A5241030A8B4268
:1006100001D30B02C01A5241CDD2C3098B4201D380
:10062000CB01C01A524183098B4201D38B01C01AFE
:10063000524143098B4201D34B01C01A5241030975
:100640008B4201D30B01C01A5241C3088B4201D324
:10065000CB00C01A524183088B4201D38B00C01AD1
:10066000524143088B4201D34B00C01A5241411AF8
:1006700000D20146524110467047FFE701B5002005
:1006800000F006F802BDC0460029F7D076E77047B3
:100690007047C046802310B501240A4ADB01D16FA0
:1006A00003200B43D367084B1C6000F095FB00F060
:1006B00085F99621030022008901002000F0F8FB53
:1006C00010BDC04604800440948004408E23F7B5DA
:1006D000012702210025134C9B00E258124EBA4319
:1006E000E250E25868468A43E250E2581E318A439B
:1006F000E2500E4B1D606B4600961D7100F080F9B4
:10070000280000F0CBF9FF22094B1D60A36F934333
:100710003B43A367074BF4341F60DD65064B256040
:100720001E60F7BD00800440001BB70040800440FD
:10073000E0800440948004400000001010B5FFF7F2
:10074000C5FF10BD802370B50D4C8025E26FDB0224
:1007500013433022E367E36F0A4E2B43E3670A4BF0
:1007600030005A6400211A612C3A00F03DFB300041
:100770000022012100F038FBE36FAB43E36770BD5B
:100780000480044000C000400040044010B5FFF762
:10079000D9FF10BD034B1A68002A02D01A68013A2B
:1007A0001A607047A4000010024B18601A68002AF3
:1007B000FCD17047A40000108023234ADB01D16FD5
:1007C00070B50B43D3670122204B1A60FFF7DEFFA1
:1007D000FFF7B4FFFFF75EFFFA211D4B8900186891
:1007E000FFF7CCFE802301385B0498422AD2C02157
:1007F000184A0906506018480A25036A1B021B0A9A
:100800000B4303620023936007331448136000F026
:1008100079FC134C134E22883000013292B21249F7
:10082000228000F0C1FD20223100104800F046FA7D
:1008300021880F48694300F065FCFA208000FFF72B
:10084000B3FFE6E7FEE7C04604800440948004401E
:100850000000001010E000E000ED00E0841A00004D
:10086000A800001084000010931A00000040064009
:10087000991A000030B50C0085B00500684600F0FC
:100880003DF963680093237A022B1FD16A465372A5
:10089000637A1148013B5A4253416A469372A37AE4
:1008A00069465A1E93416A461371E37A5A1E934170
:1008B0006A465371A37B22689B00185800F080F9A8
:1008C000002807D1A37B2B7005B030BD032BDDD0F2
:1008D0000023DBE70148F7E7A01A0000AF2F000074
:1008E000037807489B00185810B500F0F9F9434207
:1008F0005841044B40421840034BC01810BDC0463D
:10090000A01A000051D0FFFFAF2F000010B50378F0
:1009100003489B00185800F0D1F9002010BDC046D4
:10092000A01A00007047000010B5044A044B9A60FA
:10093000044B054A1A60FFF7F5FF10BD00000000E8
:1009400000ED00E000000010001BB70003688B43BF
:10095000036003680B43036003681942FCD07047CF
:100960008E23044A9B00D35800209B0601D4024BDF
:100970001868704700800440AC0000100B4B10B5A5
:10098000186C03231840012809D098420AD0431E4E
:100990009841074B40421840064BC01810BDFFF766
:1009A000DFFFFBE7044B1868F8E7C046008004400F
:1009B00000E548FF001BB700AC00001010B50D4C5F
:1009C0000020236F032B05D81800FFF7C3FD020496
:1009D000070A094810BDFFF7D1FFFBE7074B18686E
:1009E000F8E7FFF7CBFF1F22A368134001335843FA
:1009F000F0E7C04600800440001BB700B0000010C4
:100A00008E22802370B51F4C9200A15806000B4324
:100A10000321A350236C226C8B43134302791A48A1
:100A200013432364FFF792FFFFF7A8FF3668010026
:100A300005003000FFF7A2FD144A0023964208D8B3
:100A4000134A0133964204D80023124AB2425B4152
:100A500002331F26A168421E32406036B1430A436A
:100A60005B0113438E228021A3609200A3588B4325
:100A7000A3500123E2681A42FCD06843064B186079
:100A800070BDC0460080044044800440802FA6040E
:100A9000C0175302E08B2901B400001010B50324E5
:100AA0000949020A0B6F23409A420BD0C0B20028BA
:100AB00008D10B6F2240A34313430B670348012166
:100AC000FFF744FF10BDC04600800440748004401E
:100AD000074A03000020934208D0064A013093429F
:100AE00004D0054A9818431E984102307047C0460A
:100AF00000400640008006400040F9BF10B51022BB
:100B00000021040000F053FB962380229B01236008
:100B1000002352046360A260A38110BDF0B5036896
:100B200005000C00160087B01B0507D51000FFF765
:100B300025FD01382862002007B0F0BD0A23534389
:100B400005930B01009301230F275B4201931033A0
:100B50000493103B03937B1C009905980293FFF7C5
:100B60000DFDA02305381B03984215D20A21FFF77B
:100B700005FD7B1C411C4B43029019003000FFF720
:100B8000FDFC231A844200D2031B039A934203D232
:100B9000029A049701920393009B013F1B1B009351
:100BA000072FD8D18023019A5B029A4203D2049B7B
:100BB000AB622A62BFE70148BEE7C0464F1600009D
:100BC000F8B501260D0004001700FFF781FF320081
:100BD000354BD96F9C46354B1B5C9A4013006246DF
:100BE0000B43D367324B185C00F0F6F88020AB79EA
:100BF000297A2A7B4902DB030B4300019102014061
:100C000030200B43697A9203090101400B43A97A12
:100C10001030890101400B43E97A343889000140E2
:100C20000B438021C9010A4013436A7B8021824023
:100C300049010A401343296833432360002906D140
:100C4000EB79002B0BD163681A4A13400BE03A0092
:100C50002000FFF763FF0028F2D0174817E0802339
:100C600062685B00134363606B79002B10D0012333
:100C700022681343402223606368934363602879AA
:100C8000002809D001230020226813432360F8BD07
:100C9000402362681343F1E763685B06F7D50122DE
:100CA000236893432360F2E704800440AC1A0000F9
:100CB000AF1A0000FFFEFFFF4F160000042310B51F
:100CC0008A18914205D1082382681A42FCD000207C
:100CD00010BD84681C42FCD00C780131C461F0E77F
:100CE000F7B58B1801938023802680279B01040091
:100CF00001259C467600FF01019B994201D100200D
:100D0000FEBDA3682B42FCD0A268A3681343A36076
:100D1000324214D113003B40584243410A485B42DF
:100D200018400A4BC01863461A4200D00848130402
:100D300007D40028E4D163690B700131DCE7054872
:100D4000DEE70548DCE7C046B3E9FFFF4D160000CB
:100D50004C1600004E1600004B16000010B5034B59
:100D6000034A1B6811680348984710BDC40000106F
:100D7000B80000100040064010B5034B034A1B6842
:100D800051680348984710BDC4000010B800001017
:100D90000080064010B5034B034A1B689168034866
:100DA000984710BDC4000010B800001000C00640F5
:100DB0000122824002494B6893434B607047C04612
:100DC0000080044001238340024A51680B43536072
:100DD0007047C0460080044010B50400FFF7E8FFEC
:100DE0002000FFF7EFFF10BD032310B5FF240B40D9
:100DF000DB009C409A408908890041180868A0439C
:100E000002430A6010BD00000A4A0300116810B5D1
:100E1000002901D10849116010680849C3188B42A4
:100E200006D900F07BF90C2303600120404210BD7D
:100E30001360FCE7C8000010F0000010F004001080
:100E400007B501900648037C002B05D0012283687A
:100E500001A9984701200EBD01204042FBE7C04692
:100E6000CC000010F7B51500002202700F680400D6
:100E7000974203D1302343700120FEBD6122002B35
:100E800000D0203A01260A3A019238002900FFF7E3
:100E9000FBFB019B3A005B180700092901D80B00F6
:100EA00030333000A35501369542EED9E5E7000016
:100EB00070B5060001200C0086B0824213D1029466
:100EC00000240A4D01A90193094B28748C81280044
:100ED00003938E73CC730C74FFF7CCFC2000054B8E
:100EE000AB60054BEB6006B070BDC046CC00001097
:100EF000000001010D090000E1080000F0B57F4B82
:100F000093B001901B7C0E00002B00D1F0E0002775
:100F10000797049700970297019B1878002800D143
:100F2000E8E0252852D0013301930137FFF788FF0D
:100F3000F2E70A2003990193414330395218039292
:100F4000019A019B52780133110030390929F0D9F7
:100F50002E2A05D101935A780133303A092AF9D95A
:100F6000019B5D78642D34D0692D32D020232A0076
:100F70009A43462A3AD0582A38D02B00623BDBB23B
:100F8000132B00D9AEE05E4ADA40D3077ED50123A9
:100F9000340005936F2D4CD0622D4AD0702D3FD078
:100FA000752D46D0029D009E039BB3425CDC039AE4
:100FB000009900238A4200DB531AFF180295002D86
:100FC0005CD1019B260002330193A5E70023039324
:100FD000B6E708CE0A22069306A9012309A8FFF75F
:100FE00041FF844609AB634400900293582D15D00D
:100FF0000123340005930023782DCBD134000593D1
:1010000008CC1022079307A9059B09A8FFF72AFF20
:10101000844609AB634400900293BBE70123EDE7EC
:1010200008CC042208A907A8089300F0B7F81023F9
:1010300016E008CC07936F2D14D00CD80223622D34
:101040000ED0059B049A07A909A8FFF70BFF09AB6F
:1010500000901D18A7E7702DE9D00A23752DF0D157
:101060000493EEE70823FBE72020FFF7E9FE0136B3
:101070009AE7029B013B0293FFF7E2FE029AEB190B
:1010800010789B1A0028F4D11F009AE7632D05D130
:10109000340001CCFFF7D4FE013792E7732D21D144
:1010A000340020CC002D8CD02800FFF74BFA06002E
:1010B0000090039BB34210DC009A039900238A42FC
:1010C00000DC8B1ADF193E00AB1BD85D002800D175
:1010D00077E7FFF7B5FE0137F6E72020FFF7B0FE10
:1010E0000136E6E72800FFF7ABFE3400013768E77A
:1010F00001277F42380013B0F0BDC046CC0000107D
:10110000016008000FB407B504A901C90191FFF7F8
:10111000F5FE03B008BC04B018470000014B186886
:101120007047C04604000010084B10B50400002BA7
:1011300002D0002100E000BF054B1868836A002B35
:1011400000D09847200000F09BFCC0460000000043
:10115000B41A000070B500260C4D0D4C641BA41091
:10116000A64209D1002600F0C1FC0A4D0A4C641BBE
:10117000A410A64205D170BDB300EB5898470136C4
:10118000EEE7B300EB5898470136F2E70C1B00007E
:101190000C1B00000C1B0000101B0000002310B5EE
:1011A0009A4200D110BDCC5CC4540133F8E703006F
:1011B0008218934200D1704719700133F9E700009B
:1011C00070B50500002910D00C1F2368002B00DA31
:1011D000E418280000F008F91D4A1368002B05D117
:1011E00063601460280000F007F970BDA34208D9BD
:1011F000216860188342F3D118685B684118216048
:10120000EEE71A005B68002B01D0A342F9D9116800
:101210005018A0420BD12068091850181160834261
:10122000E0D118685B68411811605360DAE7A042AA
:1012300002D90C232B60D5E721686018834203D1C3
:1012400018685B684118216063605460CAE7C04653
:10125000E000001070B50F4E0D0031680400002949
:1012600002D100F08FF830602900200000F08AF8E9
:10127000431C0AD00323C51C9D43A84207D0291A4A
:10128000200000F07FF8431C01D101256D422800A9
:1012900070BDC046E4000010F7B50322CB1C934399
:1012A000083306001F000C2B32D20C27B94231D86C
:1012B000300000F099F8324D2B681C00002C2ED124
:1012C00039003000FFF7C6FF0400431C1ED12C6814
:1012D0002500002D4AD123682900E318300001932E
:1012E00000F050F8019B834243D123680337FF1A73
:1012F00003239F4308370C2F00D20C2739003000FE
:10130000FFF7A8FF431C34D02368DF19276013E0E0
:10131000002BCBDA0C23002533602800FEBD2268A9
:10132000D11B20D40B2917D9E2192760A34211D170
:101330002A606368116053603000250000F05CF89B
:1013400007220B35231D9543EA1A9D42E5D05B1B0E
:10135000A350E2E75A60ECE76268A34201D12A6039
:10136000EAE75A60E8E723006468A7E72C006D68A5
:10137000AFE70C233000336000F03EF8CDE7C04605
:10138000E0000010002370B5064D040008002B603B
:10139000FFF73AFD431C03D12B68002B00D02360DC
:1013A00070BDC046E80000100EB400B50B499CB0FB
:1013B0001DAB02900690079104910948094904CB9E
:1013C0000591006802A9019300F080F80023029AB9
:1013D00013701CB008BC03B01847C046FFFFFF7F66
:1013E000040000100802FFFF10B5024800F0F0FAF8
:1013F00010BDC046EC00001010B5024800F0E9FA3C
:1014000010BDC046EC000010F0B58E6885B0070036
:101410000C00039201939E423CD890238A89DB0002
:101420001A4234D00969236860695B1A0293032366
:101430004343DD0FED18019B029801331B186D101B
:10144000AB4200D91D00530532D529003800FFF703
:1014500023FF061E09D10C233B6040230120A289F3
:1014600040421343A38105B0F0BD029A2169FFF702
:1014700095FEA389144A1A4080231343A381029B3B
:101480002661F61826606561019EED1AA560019B34
:101490009E4200D9019E32000399206800F0A5FA0F
:1014A000A36800209B1BA36023689E192660DAE7CF
:1014B0002A00380000F0ACFA061EE0D1380021699D
:1014C000FFF77EFEC7E7C0467FFBFFFFF0B5A1B088
:1014D00003901D008B890F0016001B0611D50B69A8
:1014E000002B0ED14021FFF7D7FE3860386100286D
:1014F00005D10C23039A0138136021B0F0BD4023BD
:101500007B61002308AC6361203363761033A376DC
:10151000079535002B78002B01D0252B47D1AB1B2D
:101520000593B5420CD0320039000398FFF76CFFE9
:10153000431C00D1AEE06269059B9446634463613D
:101540002B78002B00D1A5E00122002352426260DB
:1015500004A9543252186E1C2360E360A360137018
:10156000A36505223178544800F034FA751C002830
:101570001FD12268D30604D5532304A95B18202168
:101580001970130704D5532304A95B182B21197074
:1015900033782A2B16D0350000210A20E3682A78F8
:1015A0006E1C303A092A4ED9002911D117E00135B5
:1015B000B0E7414B2268C01A0123834013432E0039
:1015C0002360CEE7079B191D1B680791002B01DBE9
:1015D0000B9304E05B42E3600223134323602B7808
:1015E0002E2B0AD16B782A2B35D1079B02351A1D79
:1015F0001B680792002B2BDB0993304E032230002F
:10160000297800F0E7F9002806D04023801B8340AA
:1016100022680135134323602978062228486E1C6E
:10162000217600F0D7F900283CD0264B002B25D19D
:101630000722079B07339343083307936369049A90
:101640009B18636165E74343350001219B18A6E7BA
:1016500001235B42D0E700230A201A0001356360B2
:1016600029786E1C3039092903D9002BC5D009927D
:10167000C3E74243350001235218F1E707AB00935B
:101680003A002100104B039800E000BF0490049B37
:101690000133D3D1BB890D985B0600D42DE701201F
:1016A00040422AE707AB00933A002100064B03981B
:1016B00000F07CF8EAE7C046B81A0000BE1A000045
:1016C000C21A00000000000009140000F7B5150060
:1016D00001938A680B690C000090934200DA1300B2
:1016E00022002B6043321278002A01D001332B6094
:1016F00023689B0602D52B6802332B6022680623E1
:1017000017001F401A4227D0230043331B785A1E6C
:1017100093412268920630D4220001990098089ED5
:101720004332B047431C25D0062320682A68E1686D
:1017300000250340042B03D18D1AEB43DB171D401A
:10174000A3682269934201DD9B1AED180027BD4270
:1017500020D1002010E00137E3682A689B1ABB42C1
:10176000D2DD2200012301990098089E1932B0476A
:10177000431CF0D101204042FEBD3020E11843312E
:10178000087021005A1C45310978A21843320233EF
:101790001170C1E72200012301990098089E1A32B6
:1017A000B047431CE6D00137D1E70000F0B58BB05D
:1017B00006920A0043320793059004920A7E0C00B9
:1017C000109B782A07D8622A09D8002A00D1C1E0E4
:1017D000582A00D18CE026004236327022E01000F8
:1017E00063381528F7D8FEF7BFFE16001F00F6FF76
:1017F000F6FFF6FFF6FF1F00F6FFF6FFF6FFF6FF17
:10180000A80036009A00F6FFF6FFB900F6FF360092
:10181000F6FFF6FF9E0026001A684236111D196079
:10182000136833700123A7E0086819680A1D0506CC
:101830000BD50D681A60002D03DA2D23049A6D4232
:101840001370614B0A2703931BE00D681A60410671
:10185000F1D52DB2EFE70D681968081D18602E0646
:1018600001D50D6803E06D06FBD50D68ADB2564B92
:10187000082703936F2A00D0023723000022433346
:101880001A706368A360002B03DB04222168914374
:101890002160002D02D1049E002B0CD0049E280054
:1018A0003900FEF7F1FE039B013E5B5C33702B00B9
:1018B00005009F42F3D9082F09D12368DB0706D51D
:1018C00063682269934202DC3023013E3370049B3B
:1018D0009B1B2361079B210000930598069B09AA87
:1018E000FFF7F4FE431C4CD1012040420BB0F0BD89
:1018F00045310A70344A03921A68216820CA1A6076
:10190000080616D5CB0702D52023194321601027DE
:10191000002DB2D1202322689A432260ADE7202215
:1019200009680A4322602200782145321170274A53
:10193000E1E74806E6D5ADB2E4E71A680D68101D88
:101940004969186013682E0601D5196002E06D061A
:10195000FBD519800023049E2361BBE71A68111D83
:101960001960166800213000626800F033F8002822
:1019700001D0801B6060636823610023049A1370A8
:10198000A8E72369320006990598079DA847431CDC
:10199000AAD023689B0715D4099BE0689842A5DA72
:1019A0001800A3E72200012306990598079E193223
:1019B000B047431C98D00135E368099A9B1AAB42A3
:1019C000F0DCE9E70025F7E7C91A0000DA1A0000A1
:1019D00070477047C9B28218904201D10020704709
:1019E00003788B42FBD00130F6E710B5884202D96C
:1019F0008B18984203D3002307E08B5C8354013A91
:101A0000FBD210BDCC5CC45401339A42FAD1F8E742
:101A1000F7B507000E001400002905D11100FFF7EB
:101A20003BFC05002800FEBD002A03D1FFF7C8FBE0
:101A30002500F7E700F01BF80190844203D8350039
:101A40004308A342EED321003800FFF725FC051E12
:101A5000E8D0019B22009C4200D91A0031002800E6
:101A6000FFF79CFB31003800FFF7AAFBDAE70B1FFA
:101A70001B68181F002B01DA0B58C01870470000B4
:101A8000FEE7C04668656C6C6F20776F726C642EE1
:101A90000D0A00536179693A2025750D0A0000008E
:101AA000004006400080064000C006400E0F1003B4
:101AB0000405000008000010232D302B2000686C66
:101AC0004C00656667454647003031323334353661
:101AD000373839414243444546003031323334359A
:101AE000363738396162636465660000F8B5C04610
:101AF000F8BC08BC9E467047F8B5C046F8BC08BCA8
:041B00009E46704746
:081B040044E8FF7F010000002E
:041B0C0029030000A9
:041B100001030000CD
:101B1400001BB700080000100000000000000000D7
:101B240000000000000000000000000000000000B1
:101B340000000000000000000000000000000000A1
:101B44000000000000000000000000000000000091
:101B54000000000000000000000000000000000081
:101B64000000000000000000000000000000000071
:081B7400000000000000000069
:04000003000003C92D
:00000001FF
