:10000000E01F0010D90300001104000015040000D7
:1000100000000000000000000000000000000000E0
:1000200000000000000000000000000019040000B3
:1000300000000000000000001D040000210400007A
:1000400025040000290400002D04000031040000F4
:1000500035040000390400003D04000041040000A4
:1000600045040000490400004D0400005104000054
:1000700055040000590400005D0400006104000004
:1000800065040000690400006D04000071040000B4
:1000900075040000790400007D0400008104000064
:1000A00085040000890400008D0400009104000014
:1000B00095040000990400009D040000A1040000C4
:0402FC00FFFFFFFF02
:1003000010B5064C2378002B07D1054B002B02D0EB
:10031000044800E000BF0123237010BD70000010EE
:1003200000000000B01D000008B5084B002B03D0F2
:100330000748084900E000BF07480368002B00D1C8
:1003400008BD064B002BFBD09847F9E700000000E2
:10035000B01D0000740000106C00001000000000D0
:10036000164B002B00D1144B9D46402292029A1A44
:10037000924600218B460F461348144A121A01F088
:10038000B9FB0F4B002B00D098470E4B002B00D031
:1003900098470020002104000D000D48002802D0DD
:1003A0000C4800E000BF01F06BFB2000290000F0CA
:1003B000F3FB01F04FFBC04600000800E01F0010F7
:1003C000000000000000000070000010DC000010C1
:1003D000000000000000000072B60748804707498F
:1003E000074A084B9B1A03DD043BC858D050FBDC7E
:1003F00062B6054880470000550D0000DC1D000076
:100400000000001070000010610300002548004744
:10041000254800472548004725480047254800470C
:1004200025480047254800472548004725480047FC
:1004300025480047254800472548004725480047EC
:1004400025480047254800472548004725480047DC
:1004500025480047254800472548004725480047CC
:1004600025480047254800472548004725480047BC
:1004700025480047254800472548004725480047AC
:10048000254800472548004725480047254800479C
:10049000254800472548004725480047254800478C
:1004A000254800470D040000110400001504000059
:1004B000190400001D040000210400000D040000C8
:1004C0000D0400000D0400000D0400000D040000E8
:1004D0000D0400000D0400000D0400000D040000D8
:1004E000411A00000D0400000D0400000D0400007E
:1004F0000D0400000D0400000D0400000D040000B8
:100500000D0400000D0400000D0400000D040000A7
:100510000D0400000D0400000D0400000D04000097
:100520000D0400000D0400000D0400000D04000087
:100530000D0400000D0400000D04000002B471461B
:1005400049084900095C49008E4402BC7047C04616
:10055000002243088B4274D303098B425FD3030A02
:100560008B4244D3030B8B4228D3030C8B420DD315
:10057000FF22090212BA030C8B4202D312120902A3
:1005800065D0030B8B4219D300E0090AC30B8B42E1
:1005900001D3CB03C01A5241830B8B4201D38B038F
:1005A000C01A5241430B8B4201D34B03C01A524134
:1005B000030B8B4201D30B03C01A5241C30A8B4277
:1005C00001D3CB02C01A5241830A8B4201D38B0262
:1005D000C01A5241430A8B4201D34B02C01A524106
:1005E000030A8B4201D30B02C01A5241CDD2C30978
:1005F0008B4201D3CB01C01A524183098B4201D3F4
:100600008B01C01A524143098B4201D34B01C01ADE
:10061000524103098B4201D30B01C01A5241C30856
:100620008B4201D3CB00C01A524183088B4201D3C5
:100630008B00C01A524143088B4201D34B00C01AB1
:100640005241411A00D20146524110467047FFE71D
:1006500001B5002000F00CF802BDC0460029F7D01B
:1006600003B5FFF775FF0EBC4243891A1847C04611
:100670007047C046002B11D1002A0FD1002900D1AC
:10068000002802D00021C943081C07B4024802A177
:100690004018029003BDC046D9FFFFFF03B468466F
:1006A00001B5029800F04CF8019B9E4602B00CBCCC
:1006B0007047C046F0B54F46464605042D0C2C1C2D
:1006C000C0B41704160C3F0C9946030C7C437543C9
:1006D0005F4373437D19260CAD199C46AF4203D985
:1006E00080235B029846C4444B4651434343240451
:1006F0002E0C240C2D0466442C1959188919201C21
:100700000CBC90469946F0BDF0B583B0161C1F1C7A
:100710000090019100F02EF8041C0D1C221C2B1CD3
:10072000301C391CFFF7C6FF009A019B121A8B413F
:100730000899201C0A604B60291C03B0F0BDC0461C
:10074000F0B5141C83B01D1C0090019100F00AF953
:10075000221C2B1C061C0F1CFFF7ACFF009A019BF0
:10076000121A8B410899301C0A604B60391C03B087
:10077000F0BDC046F0B544465F4656464D46F0B41F
:100780001C1C85B0002900DAA9E00F1C0021061C02
:100790008846101C191C002C00DA97E0341C3D1C04
:1007A00082468946B94273D870D04946504600F017
:1007B00085F98346391C301C00F080F95B46181A15
:1007C000031C8346203B9C4600D59CE0002300226E
:1007D00051460092019363469940019151468140F0
:1007E000019B0091BB4200D983E000D17EE0009ADA
:1007F000019B341C3D1CA41A9D416346002B00DA6A
:100800009AE0002600270296039701369E40039641
:10081000012686400296002800D171E00099019AD5
:10082000D30799464B464E081E4357080023012222
:100830000CE0AF4201D1A6420AD8A41BBD41241945
:100840006D410138A4185D41002806D0AF42F0D9AF
:10085000013824196D410028F8D12022029E039FFF
:100860005B46524236196F4199185AD4281CC84029
:100870002C1C5B46DC40002968DB041C8C40231CDC
:1008800059468840021CB61A9F4103E0B0428CD9F9
:100890000026002741464B1E9941002300910193F9
:1008A000009A019B002554429D41331C6340181C53
:1008B0003B1C6B40191C009B019CC018614105B09A
:1008C0003CBC90469946A246AB46F0BD4346DB434E
:1008D0000C1C9846131C00215842A1415EE70027DA
:1008E00046428F4101214942884652E7B14200D831
:1008F0007DE70026002702960397002800D08DE7A9
:10090000029E039FC6E720215346091ACB400022CE
:10091000191C0023009201934B4683400B43019323
:100920005CE75A4620239B1A2A1C9A40201C131C61
:100930005A46D04018439BE720260027331A00264A
:10094000029603970127DF40039761E75B4620216A
:100950005D46C91A031CAC40CB40191C231C0B4339
:100960008EE7C046F0B545464E465746E0B4041CF7
:1009700082B00D1C914698468B4262D85FD04146AA
:10098000484600F09BF8291C061C201C00F096F835
:100990002023311A5B428A46C81865D44B468340EF
:1009A0001F1C4B468B401E1CAF4258D855D0A41B71
:1009B000BD41002800DA77E0002200230092019375
:1009C00001328240019201238B40009300293CD0E8
:1009D000FB079846404672087B0802430126002721
:1009E0000CE0AB4201D1A2420AD8A41A9D412419BD
:1009F0006D410139A4197D41002906D0AB42F0D9DF
:100A0000013924196D410029F8D12022009801995B
:100A100053465242001969419E183AD42F1CF740A0
:100A20005346DD40002E29DB3C1CB440231C5446B9
:100A3000A7403A1C801A99410090019105E082423A
:100A40009DD900230024009301940098019902B0DD
:100A50001CBC90469946A246F0BDA342A7D90022ED
:100A6000002300920193B1E720224B46521AD34053
:100A70001A1C43468B401F1C174392E75346202401
:100A80005646E41A3B1CB540E3401C1C2B1C234378
:100A9000CDE7524620239B1A2A1C9A40271C131C80
:100AA0005246D7401F43BBE720230022581A002399
:100AB000009201930132C240019284E710B50029EF
:100AC00003D100F007F8203002E0081C00F002F823
:100AD00010BDC0461C2101231B04984201D3000C09
:100AE00010391B0A984201D3000A08391B099842A1
:100AF00001D30009043902A2105C40187047C046B7
:100B000004030202010101010000000000000000D6
:100B10008E23F7B50126022100251A4C9B00E258CE
:100B20006846B243E250E258174F8A43E250174BEF
:100B30001D606B461D71164B009300F02FFBC0200B
:100B4000800000F01BFCFF223D60A36F9343334302
:100B5000A36700F0B5F80323FA223B60231CD20000
:100B6000E4331D6004341E605A60E36F80352B430C
:100B7000E36708482E211A2200F05EFCE36FAB43C6
:100B8000E367F7BD00800440E080044040800440FB
:100B90000087930300C00040F0B589B000F06AF808
:100BA000FFF7B6FF80212D4A4900D36F05AD0B43F7
:100BB000D367281C00F0FEFC0026F923284C291CD2
:100BC000201C6B71AB712E706E70EE702E7100F088
:100BD00079FC0125802103AB009501934901331C69
:100BE000204A201C00F040FD201C0221039A00F046
:100BF000B9FE2A1C039BC1279A402189DB000A43C6
:100C000092B22281BF001B19DA591749201C0A40F1
:100C1000DA5102238021009304AB01934901134A66
:100C2000331C00F021FD049B0F49DB001B19DA592E
:100C3000201C0A40DA510421049A00F093FE049A21
:100C4000A3689540FF222D04120415401D43A560A2
:100C50006268074B13406360FEE7C04604800440AF
:100C60000040005060EA0000FFFF9FFF3075000069
:100C7000FBFFFBFF8022F8B50E4CD202E36F30275A
:100C800013438022E367E36F0B4E0C4D1343E3677E
:100C9000281C77622321703A00F0CEFB7765281C70
:100CA00021211B2200F0C8FB8022E36F9343E367FE
:100CB000F8BDC046048004400040044000C000402D
:100CC00070B51F4D00206B6ADB051B0F013B0E2B1F
:100CD00002D81C4A9B0098580322696A2B6F184E51
:100CE0001340194C022B0FD0934215D0012B09D180
:100CF000336C1340012B05D0002B03D0032B01D103
:100D0000002315E0114B13E01F2319400131490066
:100D1000FFF71EFC20600CE0B068326C002113402D
:100D2000032B00D009491F22031C134001334B43FE
:100D30002360A96F2068FFF70BFC206070BDC046E0
:100D4000008004406C1D000004000010001BB70070
:100D50007047000008B5044A044B9A60044A054BEA
:100D60001A60FFF7F5FF08BD0000000000ED00E08D
:100D7000001BB7000400001038B54B1E4D421B1875
:100D80002B40834201D2002014E005225242521A25
:100D90009342F8D8081DC0180C1C00F097FE031EE3
:100DA000F1D003342418281C03492040021FC31A21
:100DB0001180538038BDC0463930000008B5031F8C
:100DC0001988044A914203D15B88C01A00F088FE5A
:100DD00008BDC0463930000008B500280FD00A1CF5
:100DE00000210B1CFFF766FC054A0023FFF742FCBD
:100DF000890780080843001C01380028FCD108BD81
:100E000040420F004021044A08B5D36F0A200B432B
:100E1000D36700F003FB08BD0480044070B5402692
:100E2000134DEC6F3443EC671D788C00002D08D116
:100E30000121802591400019AD0143598B43435155
:100E400014E05D7801239340002D01D18A2500E054
:100E500088252D01491989000B5001219140001965
:100E600080240A1CA40103591A43025170BDC046D4
:100E700004800440EFF3108372B6072006490A6825
:100E800082430A60054903380A6982430A6130BF18
:100E900083F310887047C0460000024000ED00E078
:100EA00010B5EFF3108272B607240C490B68A34308
:100EB000063C23430B608C21094C89006358834313
:100EC00004206350074B19690143196130BF196948
:100ED0008143196182F3108810BDC04600000240B2
:100EE0000080044000ED00E010B5EFF3108272B610
:100EF00007240C490B68A343053C23430B608C215A
:100F0000094C89006358834304206350074B1969D7
:100F10000143196130BF19698143196182F3108857
:100F200010BDC046000002400080044000ED00E01B
:100F3000EFF3108272B60F2008490B6883430C3818
:100F400003430B60064B013019690143196130BF3F
:100F500019698143196182F31088704700000240CB
:100F600000ED00E030B50E4B172807D98124051C91
:100F70000122A400183D1959AA4004E00122852449
:100F80008240A40019590A431A51002806DB1F2386
:100F900018401E3B8340181C024B186030BDC046F1
:100FA0000080044000E100E010B500280ADB1F23A8
:100FB000012203409A40131C0A4AD367BFF34F8FA4
:100FC000BFF36F8F084B172804D98124A4001A5946
:100FD000183802E08524A4001A59012181408A436F
:100FE0001A5110BD04E100E00080044003688B4307
:100FF000036003680B43036003681942FCD0704729
:1010000000487047001BB7008E23044A9B00D3584A
:1010100000209B0601D4024B1868704700800440F2
:101020009000001008B50A4B1A6C03231340012BE3
:1010300008D0002B04D0032B07D1064B186805E01D
:10104000054803E0FFF7E0FF00E0002008BDC046D0
:101050000080044090000010001BB7000D4B10B53D
:101060001A6F1C1C0020032A13D8101CFFF766FA05
:101070000204070A08480CE0FFF7D4FF09E0074B19
:10108000186806E0FFF7CEFF1F23A2681340013364
:10109000584310BD00800440001BB70094000010AE
:1010A0000F4B10B51C680F4BE4B2186800230328DF
:1010B0000ED8FFF743FA0204070A0B4B08E0FFF7CC
:1010C000A3FF04E0094B1B6802E0FFF7C7FF031C06
:1010D0000020844203D0181C211CFFF739FA10BDF0
:1010E000E8800440E0800440001BB700940000103A
:1010F00038B5FFF7B3FF0A4BFF251C6800232C40CF
:101100009C420AD0074A010E1268000215406A1C70
:10111000FF326243FFF7AEFA031C181C38BDC0460D
:1011200094800440F480044008B5FFF7E1FF08BD57
:1011300008B5FFF7DDFF08BD08B5FFF7D9FF08BD0B
:1011400008B5072805D8FFF7F9F9060E041F111690
:101150000413002019E0FFF781FF0C4B996FC9B20F
:10116000FFF7F6F911E0FFF779FF0EE0084B00E01A
:10117000084B186809E0FFF755FF044B9A681F23D6
:1011800013400133584300E0034808BD0080044089
:101190009000001094000010001BB7008E228021E8
:1011A000F8B503271F4C9200A358061C0B43A3500D
:1011B000236C0179226CBB430B4313432364391C1A
:1011C0001948FFF713FFFFF72DFF051C3668291C90
:1011D000301CFFF7BDF9154A0023964208D8144A7F
:1011E0000133964204D8134BB3429B415B42FB1A36
:1011F0001F21461E31407F26A2685B01B243114386
:10120000602213400B438021D932A360FF32A358E0
:101210008B43A350E368DB07FCD56843064B18609B
:10122000F8BDC0460080044044800440802FA604DE
:10123000C0175302E08B29018C0000101821074AC7
:1012400010B5D36A8B43D362E022054952008C5813
:10125000044B23408B50044B186010BD00400440E9
:1012600000C00040FFFDFFFF900000101821104A51
:1012700010B5936B041C8B439363E02240200D490F
:1012800052008B5883438B5001210B4B20381A6A34
:101290000A438E211A6289005A588243D5305A5027
:1012A000FF300649FFF798FD054B1C6010BDC04696
:1012B0000040044000C000400080044080C3C901D9
:1012C000900000101821164B10B55A6B041C8A436D
:1012D0005A639A6BC0208A439A63E02211495200F4
:1012E0008B5883438B501049BE3A0B6AFF3A9343A5
:1012F0000E4A086AA24292415242520003431343EB
:101300008E2220200B6292008B588343D5308B5065
:10131000FF300749FFF760FD064B1C6010BDC0465B
:101320000040044000C0004000800440C0E1E400F0
:1013300080C3C9019000001038B5F023C50C5B00D4
:101340002B401F250B4C0002626A000A520A52020F
:1013500013434A08013A2A4013438E2263629200E3
:10136000A3582135AB43A350FFF7F2F8024B1860A6
:1013700038BDC046008004409400001003210A4A92
:1013800010B5136FC4B20B40000A83420AD0002C80
:1013900008D1136F08408B43184310670239034884
:1013A000FFF724FE10BDC046008004407480044056
:1013B00070B5041C0025FFF751FE114B061C1B687D
:1013C0005C43AC4219D0844217D8211CFFF7C0F807
:1013D000012812D8221CFF240A492B1C0C60301C47
:1013E000291C801A9941050E090229430002FFF7C2
:1013F00041F90125044B04401C60281C70BDC04607
:1014000094800440F0800440F480044008B5024811
:101410000121FFF7EBFD08BDE48004400123834078
:10142000181C044B5A6882435A605A68104358602B
:101430007047C046008004408B089B00C0180323FF
:1014400019409940FC338B4010B504688A409C4396
:10145000231C1343036010BD002A07D000290CDBB6
:10146000E022520083588B43835006E0002904DBBE
:10147000E02252008358194381507047024BC01834
:10148000431E98417047C04600C0FFAFF8B5002624
:10149000094D0A4B2C681F682740E30704D5084B09
:1014A000F358002B00D09847640802D00436202E51
:1014B000F3D12F60F8BDC046F4400050F04000501A
:1014C000A400001038B50C1C80212A4A4900D36FB3
:1014D000051C0B43D3670820FFF7A0FF7822A378F1
:1014E000DB001340191C6378723A5B0013400B4316
:1014F000F021227849011343227A52020A40134311
:1015000010222B60E3781B011340627952011343D0
:10151000042213436B606B68921813436B6023784B
:10152000002B12D1802180226B68C90219432379D4
:1015300052031B051340A2790B435205134380222B
:101540006B606B68120313436B60E3790A4A2B6587
:1015500000231360094A1360094A1360094A1360A3
:101560000020094A98500433202BF9D1074A084B30
:101570001A6038BD04800440C400001098000010B8
:101580009C000010A0000010A40000108D140000AA
:10159000C80000104368044A1343044A4360D16FF3
:1015A000034B0B40D36770470400040004800440E1
:1015B000FFFEFFFF10B500210922041C00F09AFA7B
:1015C0000123237000236370A370E37023716371A0
:1015D000A371E3710F33237210BDF7B5041C101C07
:1015E0000A1CA032D200A2185268C3260192C1225E
:1015F0000F255F1CDB00E31892009A58B6009B5938
:101600002A401D40131C042640339B001A5963686E
:1016100033436360632810D90123901C1A1C019E78
:101620008A40FE40111C1E4203D0236D19432165E0
:101630000BE0236D9343236507E000210B1CFFF7AC
:1016400039F864220023FFF715F8AD0063191A1C5E
:10165000FC3250608022920098506368FD3AFF3A55
:1016600093436360F7BD0000F7B508AC2778484C9A
:1016700001262568072D00D988E08E04B60F0C1CC2
:10168000022E0AD1F0229B01920013402A1C6032E4
:10169000D20019438218516069E0002E01D0032E58
:1016A00005D1F0249B01A400234019430C1C012305
:1016B0009F4219D103683E1C3B4267D1354B1968E4
:1016C000072963D88E008619371C92B2FE377A80BC
:1016D0008027BF00F2532A1C6032D2000C438218CC
:1016E00001315460196042E0022F26D101681E1CAE
:1016F00019424BD1284F3968072947D810238E004B
:1017000086190B431C43331CFE335B8812041343BE
:1017100001941C1CFC239C46B44463465C608023FB
:101720009B009C46F35A1A436346F2502A1C6032CF
:10173000D200019B8218536017E01E1C042F25D194
:101740000168194222D0134F396807291ED88B002F
:10175000C3181E1CFC3672608026B6009A512A1CE3
:101760006032D2000C4382185460013139600B4B57
:1017700000261A68012393401A1C2B1C6033DB00DF
:101780001A50099B1D60024B01351D60301CFEBDC7
:10179000C40000109C000010A00000109800001071
:1017A000F0B500275C4D87B0049705972F680C1C97
:1017B00002374168082F01D90120AAE0C904090EA7
:1017C00003940131041C0C98151C1E1CFEF7C0FE6E
:1017D000012D04D1102263681343636006E0002DDD
:1017E00004D1311CFEF7B4FE461E03E07100FEF783
:1017F000AFFE061C039BB71C9A78632A09D8002108
:10180000301C0B1CFEF756FF64220023FEF732FF4C
:10181000071C04238021009304AB321C019349016F
:101820000023201CFFF720FF04238021009305AB39
:10183000061C0193201C49013A1C0023FFF714FFEA
:101840003043B9D101210F1C049AA3689740FEB21E
:101850003343A3600D9B059E1A60039B5A781B7847
:101860008A4229D1002D11D1111C9940206DB2401E
:1018700088432065A020DB00E418C00023581F43E4
:10188000264B2750E0580243E25028E0171C9F40A7
:10189000256D22493D432565DD0065196F58111CF2
:1018A000B1400E1C1D493E436E5003255B009D4018
:1018B000616D9A40A94329E0226D002D11D1081CC9
:1018C000984002432265DB00144AE418A358B14053
:1018D0001F43A750A027FF00E0590143E151281CF6
:1018E00017E00D1C9D40A027AA43DD002265651965
:1018F000FF00EA595B0094460A1CB2406646324338
:10190000EA5103259D409940626DAA430B1C134385
:10191000636507B0F0BDC046C400001004050000B8
:10192000064B10B51C680123C9004118C020A34014
:1019300080000A5813430B5010BDC0469800001099
:10194000044A01201368072B02D81B1800201360DB
:101950007047C04698000010014B18687047C04699
:101960009800001070B5012494400A4ECB00C318B3
:101970009D59221C2C1CA02514439C51ED005C5940
:10198000490022435A5103228A40111C836D194396
:10199000816570BD04050000F7B50092012901D0F2
:1019A00004291CD1204D01212C68072C39D880270F
:1019B000A6008619BF00F25B4C3094460A1C9A4080
:1019C000131C6246A14013439BB2F353038819438F
:1019D000009B89B201801C6001342C6020E0134F11
:1019E00001213C68072C1CD88022A6008619920091
:1019F0009446B25A0E4D01920A1C9A401304019A61
:101A00002B4013436246B350031CA1404C331B8848
:101A100009040D401D43009BC5641C6001343C60FB
:101A20000021081CFEBDC0469C000010A000001054
:101A300000F0FF0F014B9200D1507047A40000103E
:101A400008B5024B02481B68984708BDC800001043
:101A500000400050084B10B5041C002B02D00021A0
:101A600000E000BF054B1868836A002B00D0984740
:101A7000201C00F079F9C04600000000AC1D0000F9
:101A80000E4B70B500251E1C0D4CE41AA410A54287
:101A900004D0AB00F35898470135F8E700F08AF915
:101AA000084B00251E1C084CE41AA410A54204D0C3
:101AB000AB00F35898470135F8E770BDD41D00001E
:101AC000D41D0000D41D0000D81D000008B5034B34
:101AD000011C186800F05CF808BDC04668000010E2
:101AE00008B5034B011C186800F00CF808BDC0468F
:101AF00068000010031C8218934202D01970013351
:101B0000FAE7704730B500293ED004390B68002B46
:101B100000DAC9181D4A1368141C002B02D14B604F
:101B2000116031E099420DD208680A189A4203D137
:101B30001368C3180B6053684B60216024E08A422D
:101B400003D8131C5A68002AF9D11D685C198C420D
:101B50000BD10968691858181960904214D110689F
:101B60005268091819605A600EE08C4202D90C23A1
:101B7000036009E008680C18944203D114685268A5
:101B8000001908604A60596030BDC046D00000109E
:101B9000032370B5CC1C9C430834051C0C2C01D2CB
:101BA0000C2405E0002C03DA0C2300202B6042E01B
:101BB0008C42F9D3204A1368101C191C002913D039
:101BC0000A68121B0DD40B2A02D90A608B181FE079
:101BD0008B4202D15A6802601BE04A685A600B1CB3
:101BE00017E00B1C4968E9E7144E3368002B03D15A
:101BF000281C00F025F83060281C211C00F020F87B
:101C0000031C421CD0D00322C61C964386420AD134
:101C10001C60181C07210B301A1D8843821A0AD039
:101C20005142995007E0311A281C00F009F8431C72
:101C3000BAD0331CECE770BDD0000010CC0000100F
:101C400038B50023064C051C081C236000F07EF804
:101C5000431C03D12368002B00D02B6038BDC04645
:101C6000D800001038B50C1C0968051C002901D0EB
:101C7000FFF7F8FF281C211CFFF744FF38BD0000C8
:101C8000314B70B51B6898425DD0436A041C002B31
:101C90001DD0DB68002B13D00025636ADB6859591F
:101CA000002905D00E68201CFFF72CFF311CF7E738
:101CB0000435802DF1D1636A201CD968FFF722FF1B
:101CC000636A1968002902D0201CFFF71BFF6169B5
:101CD000002902D0201CFFF715FF616A002902D0FD
:101CE000201CFFF70FFFA16B002902D0201CFFF77B
:101CF00009FFE16B002902D0201CFFF703FF216CD4
:101D0000002902D0201CFFF7FDFEE16D002902D062
:101D1000201CFFF7F7FEA16D002902D0201CFFF761
:101D2000F1FE616B002902D0201CFFF7EBFEA369D6
:101D3000002B08D0201CA36A9847A16C002902D070
:101D4000201CFFF78FFF70BD68000010044A136865
:101D5000002B03D018181060181C7047014BF9E7CE
:101D6000D4000010E0000010FEE7C046C0270900C4
:101D700090051000C05C1500F0B31A00200B200085
:101D8000009F2400E0322900C0C62D00509731008A
:101D9000E06735007038390000093D00401640000A
:101DA00080234300C03046004300000008000010BC
:101DB00000000000F8B5C046F8BC08BC9E4670475D
:0C1DC000F8B5C046F8BC08BC9E46704751
:081DCC0094E5FF7F0100000017
:041DD40029030000DF
:041DD8000103000003
:101DDC0000000000001BB700000000000000000025
:101DEC0000000000000000000000000000000000E7
:101DFC000000000000000000A81D00000000000012
:101E0C0000000000000000000000000000000000C6
:101E1C0000000000000000000000000000000000B6
:101E2C0000000000000000000000000000000000A6
:101E3C00000000000000000008000010000000007E
:04000003000003D91D
:00000001FF
