:100000000020001031020000A9020000A902000037
:1000100000000000000000000000000000000000E0
:10002000000000000000000000000000A902000025
:100030000000000000000000A90200001D010000F7
:10004000A9020000A9020000A9020000A902000004
:10005000A9020000A9020000A9020000A9020000F4
:10006000A9020000A9020000A9020000A9020000E4
:10007000A9020000A9020000A9020000A9020000D4
:10008000A9020000A9020000A9020000A9020000C4
:10009000A9020000A9020000A9020000A9020000B4
:1000A000A9020000A9020000A9020000A9020000A4
:1000B000A9020000A9020000A9020000A902000094
:1000C00080B500AF0F4B0F4A12680F490A431A6000
:1000D0000E4B0E4A12680E490A401A600B4B0B4A2F
:1000E00012688021C9000A431A600A4B094A126843
:1000F000802149020A431A60074B181C00F036F8A9
:10010000FEE7C04680800440C00004000480044034
:10011000FFFBFFFF002000A03075000080B500AF9E
:100120000F4B1B889BB201339AB20D4B1A800C4BBC
:100130001B889BB2632B03D80A4B00221A700CE079
:10014000074B1B889BB2084A934203D8054B0122F8
:100150001A7002E0024B00221A80BD4680BDC046E4
:1001600000000010100000A0E703000080B582B07E
:1001700000AF78607B680B4A934201D901230CE001
:10018000094B7A681202120A013A1A60074B0022E0
:100190001A60074B07221A600023181CBD4602B0E4
:1001A00080BDC046FFFFFF0014E000E018E000E063
:1001B00010E000E080B500AF154B154A12688021B1
:1001C0000A431A60134B00221A60134B24221A6050
:1001D000124B00221A60114B01221A600C4B0C4A80
:1001E000126880218A431A60C0460D4B1B680122A9
:1001F0001340FAD00B4B03221A600B4B00221A60FB
:10020000094B01221A60094B02221A60BD4680BDCB
:100210003882044040800440088004404480044008
:100220000C80044070800440748004407880044056
:1002300080B584B000AFFFF7BDFF164BFB60164BD7
:10024000BB60164A144BD31A7B6007E0BB685A1C8C
:10025000BA60FA68511CF96012781A707B685A1EED
:100260007A60002BF2D10E4BBB600E4A0C4BD31AB6
:100270007B6004E0BB685A1CBA6000221A707B687D
:100280005A1E7A60002BF5D1FFF71AFFBD4604B065
:1002900080BDC046B0020000000000100000001049
:1002A000000000100200001080B500AFFEE7C0465D
:00000001FF
