:10000000E01F0010D90300001104000015040000D7
:1000100000000000000000000000000021D4FFEFFD
:1000200000000000000000000000000019040000B3
:1000300000000000000000001D040000110B000083
:1000400025040000290400002D04000031040000F4
:1000500035040000390400003D04000041040000A4
:1000600045040000490400004D0400005104000054
:1000700055040000590400005D0400006104000004
:1000800065040000690400006D04000071040000B4
:1000900075040000790400007D0400008104000064
:1000A00085040000890400008D0400009104000014
:1000B00095040000990400009D040000A1040000C4
:0402FC00FFFFFFFF02
:1003000010B5064C2378002B07D1054B002B02D0EB
:10031000044800E000BF0123237010BD74000010EA
:1003200000000000002A000008B5084B002B03D095
:100330000748084900E000BF07480368002B00D1C8
:1003400008BD064B002BFBD09847F9E700000000E2
:10035000002A00007800001070000010000000006B
:10036000164B002B00D1144B9D46402292029A1A44
:10037000924600218B460F461348144A121A02F087
:10038000C6F80F4B002B00D098470E4B002B00D027
:1003900098470020002104000D000D48002802D0DD
:1003A0000C4800E000BF02F06FF82000290000F0C8
:1003B000C1FB02F053F8C04600000800E01F001027
:1003C000000000000000000074000010D4000010C5
:1003D000000000000000000072B60748804707498F
:1003E000074A084B9B1A03DD043BC858D050FBDC7E
:1003F00062B6054880470000850D00002C2A0000E9
:100400000000001074000010610300002548004740
:10041000254800472548004725480047254800470C
:1004200025480047254800472548004725480047FC
:1004300025480047254800472548004725480047EC
:1004400025480047254800472548004725480047DC
:1004500025480047254800472548004725480047CC
:1004600025480047254800472548004725480047BC
:1004700025480047254800472548004725480047AC
:10048000254800472548004725480047254800479C
:10049000254800472548004725480047254800478C
:1004A000254800470D040000110400001504000059
:1004B000190400001D040000110B00000D040000D1
:1004C0000D0400000D040000B51A0000D11A000050
:1004D000ED1A00000D0400000D0400000D040000E2
:1004E0000D0400000D0400000D0400000D040000C8
:1004F0000D0400000D0400000D0400000D040000B8
:100500000D0400000D0400000D0400000D040000A7
:100510000D0400000D0400000D0400000D04000097
:100520000D0400000D0400000D0400000D04000087
:100530000D0400000D0400000D04000002B471461B
:1005400049084900095C49008E4402BC7047C04616
:10055000002243088B4274D303098B425FD3030A02
:100560008B4244D3030B8B4228D3030C8B420DD315
:10057000FF22090212BA030C8B4202D312120902A3
:1005800065D0030B8B4219D300E0090AC30B8B42E1
:1005900001D3CB03C01A5241830B8B4201D38B038F
:1005A000C01A5241430B8B4201D34B03C01A524134
:1005B000030B8B4201D30B03C01A5241C30A8B4277
:1005C00001D3CB02C01A5241830A8B4201D38B0262
:1005D000C01A5241430A8B4201D34B02C01A524106
:1005E000030A8B4201D30B02C01A5241CDD2C30978
:1005F0008B4201D3CB01C01A524183098B4201D3F4
:100600008B01C01A524143098B4201D34B01C01ADE
:10061000524103098B4201D30B01C01A5241C30856
:100620008B4201D3CB00C01A524183088B4201D3C5
:100630008B00C01A524143088B4201D34B00C01AB1
:100640005241411A00D20146524110467047FFE71D
:1006500001B5002000F00CF802BDC0460029F7D01B
:1006600003B5FFF775FF0EBC4243891A1847C04611
:100670007047C046002B11D1002A0FD1002900D1AC
:10068000002802D00021C943081C07B4024802A177
:100690004018029003BDC046D9FFFFFF03B468466F
:1006A00001B5029800F04CF8019B9E4602B00CBCCC
:1006B0007047C046F0B54F46464605042D0C2C1C2D
:1006C000C0B41704160C3F0C9946030C7C437543C9
:1006D0005F4373437D19260CAD199C46AF4203D985
:1006E00080235B029846C4444B4651434343240451
:1006F0002E0C240C2D0466442C1959188919201C21
:100700000CBC90469946F0BDF0B583B0161C1F1C7A
:100710000090019100F02EF8041C0D1C221C2B1CD3
:10072000301C391CFFF7C6FF009A019B121A8B413F
:100730000899201C0A604B60291C03B0F0BDC0461C
:10074000F0B5141C83B01D1C0090019100F00AF953
:10075000221C2B1C061C0F1CFFF7ACFF009A019BF0
:10076000121A8B410899301C0A604B60391C03B087
:10077000F0BDC046F0B544465F4656464D46F0B41F
:100780001C1C85B0002900DAA9E00F1C0021061C02
:100790008846101C191C002C00DA97E0341C3D1C04
:1007A00082468946B94273D870D04946504600F017
:1007B00085F98346391C301C00F080F95B46181A15
:1007C000031C8346203B9C4600D59CE0002300226E
:1007D00051460092019363469940019151468140F0
:1007E000019B0091BB4200D983E000D17EE0009ADA
:1007F000019B341C3D1CA41A9D416346002B00DA6A
:100800009AE0002600270296039701369E40039641
:10081000012686400296002800D171E00099019AD5
:10082000D30799464B464E081E4357080023012222
:100830000CE0AF4201D1A6420AD8A41BBD41241945
:100840006D410138A4185D41002806D0AF42F0D9AF
:10085000013824196D410028F8D12022029E039FFF
:100860005B46524236196F4199185AD4281CC84029
:100870002C1C5B46DC40002968DB041C8C40231CDC
:1008800059468840021CB61A9F4103E0B0428CD9F9
:100890000026002741464B1E9941002300910193F9
:1008A000009A019B002554429D41331C6340181C53
:1008B0003B1C6B40191C009B019CC018614105B09A
:1008C0003CBC90469946A246AB46F0BD4346DB434E
:1008D0000C1C9846131C00215842A1415EE70027DA
:1008E00046428F4101214942884652E7B14200D831
:1008F0007DE70026002702960397002800D08DE7A9
:10090000029E039FC6E720215346091ACB400022CE
:10091000191C0023009201934B4683400B43019323
:100920005CE75A4620239B1A2A1C9A40201C131C61
:100930005A46D04018439BE720260027331A00264A
:10094000029603970127DF40039761E75B4620216A
:100950005D46C91A031CAC40CB40191C231C0B4339
:100960008EE7C046F0B545464E465746E0B4041CF7
:1009700082B00D1C914698468B4262D85FD04146AA
:10098000484600F09BF8291C061C201C00F096F835
:100990002023311A5B428A46C81865D44B468340EF
:1009A0001F1C4B468B401E1CAF4258D855D0A41B71
:1009B000BD41002800DA77E0002200230092019375
:1009C00001328240019201238B40009300293CD0E8
:1009D000FB079846404672087B0802430126002721
:1009E0000CE0AB4201D1A2420AD8A41A9D412419BD
:1009F0006D410139A4197D41002906D0AB42F0D9DF
:100A0000013924196D410029F8D12022009801995B
:100A100053465242001969419E183AD42F1CF740A0
:100A20005346DD40002E29DB3C1CB440231C5446B9
:100A3000A7403A1C801A99410090019105E082423A
:100A40009DD900230024009301940098019902B0DD
:100A50001CBC90469946A246F0BDA342A7D90022ED
:100A6000002300920193B1E720224B46521AD34053
:100A70001A1C43468B401F1C174392E75346202401
:100A80005646E41A3B1CB540E3401C1C2B1C234378
:100A9000CDE7524620239B1A2A1C9A40271C131C80
:100AA0005246D7401F43BBE720230022581A002399
:100AB000009201930132C240019284E710B50029EF
:100AC00003D100F007F8203002E0081C00F002F823
:100AD00010BDC0461C2101231B04984201D3000C09
:100AE00010391B0A984201D3000A08391B099842A1
:100AF00001D30009043902A2105C40187047C046B7
:100B000004030202010101010000000000000000D6
:100B1000034B1A68002A02D01A68013A1A6070471B
:100B200090000010024B18601A68002AFCD1704730
:100B300090000010A02008B50006002100F07AF90E
:100B400000F0D2F800F07CF8FA21124B8900186806
:100B5000FFF7FEFC104B013898420ED80F4A10499F
:100B60005060C0200B6A00061B021B0A03430B6285
:100B7000002393600733136000E0FEE7FA20800053
:100B8000FFF7D0FF80218C23A02249019B01120690
:100B9000D150F3E704000010FFFFFF0010E000E079
:100BA00000ED00E0802110B501240A4AC901D36F8D
:100BB00003200B43D367084B1C6000F047FC00F098
:100BC00065FA9621031C8901221C002001F038F8E7
:100BD00010BDC04604800440948004408E23F7B5C5
:100BE000012602210027114C9B00E258104DB24310
:100BF000E250E25868468A43E250E2581E318A4386
:100C0000E2500C4B1F606B4600951F7100F0DEFA3E
:100C1000381C00F0CBFBFF22074B1F60A36F9343F0
:100C20003343A367054B1D60F7BDC04600800440F9
:100C3000001BB70040800440E08004400400001026
:100C400008B5FFF7CBFF08BD8E23F7B501260221BB
:100C50000027114C9B00E258104DB243E250E2587D
:100C600068468A43E250E2581E318A43E2500C4BF8
:100C70001F606B4600951F7100F0A8FAC02080002D
:100C800000F094FBFF22074B1F60A36F9343334395
:100C9000A367054B1D60F7BD0080044000366E0160
:100CA00040800440E08004400400001007B580212B
:100CB0000B4BC902DA6FA0200A434021DA67DA6FD2
:100CC00000060A43DA670122002101AB1A700B32D9
:100CD000597000F0BBF83022024B9A6007BDC04645
:100CE000048004400040044008B5FFF7DFFF08BD62
:100CF00070B51F4D00206B6ADB051B0F013B0E2BEF
:100D000002D81C4A9B0098580322696A2B6F184E20
:100D10001340194C022B0FD0934215D0012B09D14F
:100D2000336C1340012B05D0002B03D0032B01D1D2
:100D3000002315E0114B13E01F2319400131490036
:100D4000FFF706FC20600CE0B068326C0021134015
:100D5000032B00D009491F22031C134001334B43CE
:100D60002360A96F2068FFF7F3FB206070BDC046C9
:100D700000800440A028000004000010001BB70001
:100D80007047000008B5044A044B9A60044A054BBA
:100D90001A60FFF7F5FF08BD0000000000ED00E05D
:100DA000001BB7000400001038B54B1E4D421B1845
:100DB0002B40834201D2002014E005225242521AF5
:100DC0009342F8D8081DC0180C1C01F083FB031EC9
:100DD000F1D003342418281C03492040021FC31AF1
:100DE0001180538038BDC0463930000008B5031F5C
:100DF0001988044A914203D15B88C01A01F074FB40
:100E000008BDC0463930000008B500280FD00A1CC4
:100E100000210B1CFFF74EFC054A0023FFF72AFCBC
:100E2000890780080843001C01380028FCD108BD50
:100E300040420F004021044A08B5D36F0A200B43FB
:100E4000D36700F003FB08BD0480044070B5402662
:100E5000134DEC6F3443EC671D788C00002D08D1E6
:100E60000121802591400019AD0143598B43435125
:100E700014E05D7801239340002D01D18A2500E024
:100E800088252D01491989000B5001219140001935
:100E900080240A1CA40103591A43025170BDC046A4
:100EA00004800440EFF3108372B6072006490A68F5
:100EB00082430A60054903380A6982430A6130BFE8
:100EC00083F310887047C0460000024000ED00E048
:100ED00010B5EFF3108272B607240C490B68A343D8
:100EE000063C23430B608C21094C890063588343E3
:100EF00004206350074B19690143196130BF196918
:100F00008143196182F3108810BDC0460000024081
:100F10000080044000ED00E010B5EFF3108272B6DF
:100F200007240C490B68A343053C23430B608C2129
:100F3000094C89006358834304206350074B1969A7
:100F40000143196130BF19698143196182F3108827
:100F500010BDC046000002400080044000ED00E0EB
:100F6000EFF3108272B60F2008490B6883430C38E8
:100F700003430B60064B013019690143196130BF0F
:100F800019698143196182F310887047000002409B
:100F900000ED00E030B50E4B172807D98124051C61
:100FA0000122A400183D1959AA4004E00122852419
:100FB0008240A40019590A431A51002806DB1F2356
:100FC00018401E3B8340181C024B186030BDC046C1
:100FD0000080044000E100E010B500280ADB1F2378
:100FE000012203409A40131C0A4AD367BFF34F8F74
:100FF000BFF36F8F084B172804D98124A4001A5916
:10100000183802E08524A4001A59012181408A433E
:101010001A5110BD04E100E00080044003688B43D6
:10102000036003680B43036003681942FCD07047F8
:1010300000487047001BB7008E23044A9B00D3581A
:1010400000209B0601D4024B1868704700800440C2
:101050009800001008B50A4B1A6C03231340012BAB
:1010600008D0002B04D0032B07D1064B186805E0ED
:10107000054803E0FFF7E0FF00E0002008BDC046A0
:101080000080044098000010001BB7000D4B10B505
:101090001A6F1C1C0020032A13D8101CFFF74EFAED
:1010A0000204070A08480CE0FFF7D4FF09E0074BE9
:1010B000186806E0FFF7CEFF1F23A2681340013334
:1010C000584310BD00800440001BB7009C00001076
:1010D0000F4B10B51C680F4BE4B2186800230328AF
:1010E0000ED8FFF72BFA0204070A0B4B08E0FFF7B4
:1010F000A3FF04E0094B1B6802E0FFF7C7FF031CD6
:101100000020844203D0181C211CFFF721FA10BDD7
:10111000E8800440E0800440001BB7009C00001001
:1011200038B5FFF7B3FF0A4BFF251C6800232C409E
:101130009C420AD0074A010E1268000215406A1C40
:10114000FF326243FFF796FA031C181C38BDC046F5
:1011500094800440F480044008B5FFF7E1FF08BD27
:1011600008B5FFF7DDFF08BD08B5FFF7D9FF08BDDB
:1011700008B5072805D8FFF7E1F9060E041F111678
:101180000413002019E0FFF781FF0C4B996FC9B2DF
:10119000FFF7DEF911E0FFF779FF0EE0084B00E002
:1011A000084B186809E0FFF755FF044B9A681F23A6
:1011B00013400133584300E0034808BD0080044059
:1011C000980000109C000010001BB7008E228021A8
:1011D000F8B503271F4C9200A358061C0B43A350DD
:1011E000236C0179226CBB430B4313432364391CEA
:1011F0001948FFF713FFFFF72DFF051C3668291C60
:10120000301CFFF7A5F9154A0023964208D8144A66
:101210000133964204D8134BB3429B415B42FB1A05
:101220001F21461E31407F26A2685B01B243114355
:10123000602213400B438021D932A360FF32A358B0
:101240008B43A350E368DB07FCD56843064B18606B
:10125000F8BDC0460080044044800440802FA604AE
:10126000C0175302E08B2901940000101821074A8F
:1012700010B5D36A8B43D362E022054952008C58E3
:10128000044B23408B50044B186010BD00400440B9
:1012900000C00040FFFDFFFF980000101821104A19
:1012A00010B5936B041C8B439363E02240200D49DF
:1012B00052008B5883438B5001210B4B20381A6A04
:1012C0000A438E211A6289005A588243D5305A50F7
:1012D000FF300649FFF798FD054B1C6010BDC04666
:1012E0000040044000C000400080044080C3C901A9
:1012F000980000101821164B10B55A6B041C8A4335
:101300005A639A6BC0208A439A63E02211495200C3
:101310008B5883438B501049BE3A0B6AFF3A934374
:101320000E4A086AA24292415242520003431343BA
:101330008E2220200B6292008B588343D5308B5035
:10134000FF300749FFF760FD064B1C6010BDC0462B
:101350000040044000C0004000800440C0E1E400C0
:1013600080C3C9019800001038B5F023C50C5B009C
:101370002B401F250B4C0002626A000A520A5202DF
:1013800013434A08013A2A4013438E2263629200B3
:10139000A3582135AB43A350FFF7DAF8024B18608E
:1013A00038BDC046008004409C00001003210A4A5A
:1013B00010B5136FC4B20B40000A83420AD0002C50
:1013C00008D1136F08408B43184310670239034854
:1013D000FFF724FE10BDC046008004407480044026
:1013E00070B5041C0025FFF751FE114B061C1B684D
:1013F0005C43AC4219D0844217D8211CFFF7A8F8EF
:10140000012812D8221CFF240A492B1C0C60301C16
:10141000291C801A9941050E090229430002FFF791
:1014200029F90125044B04401C60281C70BDC046EE
:1014300094800440F0800440F480044008B50248E1
:101440000121FFF7EBFD08BDE48004400123834048
:10145000181C044B5A6882435A605A6810435860FB
:101460007047C046008004408B089B00C0180323CF
:1014700019409940FC338B4010B504688A409C4366
:10148000231C1343036010BD002A07D000290CDB86
:10149000E022520083588B43835006E0002904DB8E
:1014A000E02252008358194381507047890093B25B
:1014B0004018120D8218136070470000074A031C81
:1014C0000020934209D0064A0130934205D0054AD4
:1014D00002309B185A425A41801A70470040064019
:1014E000008006400040F9BF10B5418C038C89B2E2
:1014F0009CB2631AA14202D9C269A3185B1A181CD4
:1015000010BD00000B69F7B5051C0C1C0126002B53
:1015100002D18E69731E9E4180226368AF6800937A
:101520006B695200019317420BD0AB681343AB6059
:10153000636A9C46002B04D0281C211C3D4AA36AE8
:10154000E047002E52D0FB0750D56B461E79236929
:10155000002B1DD0E3681E702369013B2361E36803
:101560000133E3602369002B40D1A369002B02D132
:101570000223FF332B61231C0222666A2D331A706B
:10158000002E33D0281C211C2B4AA36AB0472DE023
:10159000A369002B2AD0201CFFF7A6FFE369013BBB
:1015A000984208D1636A9C46002B04D0281C211C59
:1015B000224AA36AE047201CFFF796FFE269531E08
:1015C000984205D1638C013393422ED1002363846A
:1015D000238CA269D654238CE2690133934201D152
:1015E000002302E0238C01339BB22384009B002B59
:1015F0001FD0042217421CD023681B78EB6163685C
:10160000013B63602368013323606368002B10D1C2
:101610002A61221C666A2C321370002E09D0281C05
:10162000211C074AA36AB04703E0638C01339BB2D5
:10163000CDE7F7BD49160000471600004A16000026
:1016400046160000CB6100230B844B840223FF333A
:101650008A61C36070470B1C2D331B78022B02D1AB
:101660000223FF33036100230B848B61CB614B8426
:101670007047000010B583681B07FCD50124036880
:10168000A3430360FFF71AFF0349044A095CD36FC1
:101690008C40A343D36710BDE228000004800440BF
:1016A00010B500211022041C00F031FF96239B018D
:1016B000236001220023E2726372A372A37123717B
:1016C00063712373E3716373237210BDF0B5036814
:1016D00089B0061C0C1C04921B0536D40A235A43FD
:1016E0000B0103930F2301271D1C7F4206920293D7
:1016F00005976B1C039906980793FEF729FF0A21AB
:101700000538FEF725FF164B0190984210D8079B2D
:10171000411C4B430498191CFEF71AFF231A8442FC
:1017200000D2031B059A934202D2019F02950593B2
:10173000039B013D1B1B0393072DDAD1084B9F42EE
:101740000AD8029BB362376204E00498FEF700FFF8
:1017500001383062002000E0024809B0F0BDC04608
:10176000FFFF00004F160000F8B501270D1C041CF8
:10177000161CFFF7A3FE3A1C3A49CB6F9C463A4B26
:101780001B5C9A40131C62461343CB67374B185CB3
:10179000FFF75CFEAB793021DB031F433B1C687A0B
:1017A0002A7B000108400343A87A103180010140E0
:1017B0000B43181C0C21EB7A80279B001940031C5B
:1017C0000B4380219003C90101400B43181C6B7B24
:1017D0007F011B033B40191C031C287A8027400211
:1017E0000B43011CBF0039400B43802192020901C9
:1017F0000A40296813432360002907D0201C321CAB
:10180000FFF764FF002801D019482AE0EB79002B8C
:1018100004D0802263685200134302E06268154BD3
:10182000134063606B79002B07D0012223681343B8
:10183000236063683F32934302E0402263681343AE
:1018400063602879002805D0012223680020134313
:10185000236006E063685B0603D501222368934397
:101860002360F8BD04800440E2280000DC2800006A
:101870004F160000FFFEFFFF8A18914206D08368D2
:101880005B07FCD50B780131C361F6E783681B0762
:10189000FCD500207047000030B5041C8A18914226
:1018A00019D0A368DB07FCD5A568A3682B43A36008
:1018B00080235B002B4010D1181C6B0400D5094815
:1018C000AB0400D508482B0409D4002808D163696B
:1018D0000B700131E3E7002002E0044800E0044817
:1018E00030BDC0464D1600004C1600004E160000DC
:1018F0004B160000F8B50C1C1E1C171CFFF7DEFD74
:101900003022051C0021201C00F001FE231C0222B5
:101910002D331A700022013B1A700B4BAA00D450D1
:101920000A4A0B4B67621A600A4BA6625A5D53B2B1
:10193000002B06DB1F23134001229A40131C064A8A
:1019400013600020F8BDC046A4000010051500007B
:10195000A0000010DF28000000E100E00B1C10B523
:101960002C331C78012C0ED0146852680C608A60ED
:101970004A6001221A700423C36043683F329343D4
:101980004360002000E0014810BDC046441600003E
:1019900004234022036143681343436000234B60E8
:1019A0002C310B7070470B1C2C331B780620002B3E
:1019B00004D048688B681B1A002013607047000031
:1019C000F7B5161C0A1C2D321478032C53D0019342
:1019D0008B690C1C00907568002B3BD001230361C0
:1019E000081CFFF781FD0027B84219D0071EAF423F
:1019F00000D92F1C0022ED1BBA4211D0638CA169C3
:101A0000CB5C31688B54638CE16901338B4201D12B
:101A1000002302E0638C01339BB263840132EBE765
:101A2000002D09D033680322DB19E3607368256158
:101A30006361231C2D331A700123009AD360002D9B
:101A400013D1656A002D10D0101C211C0B4AA36A0B
:101A5000A8470AE031686561E160032125611170E2
:101A600002221F1C0099FF32CA600198002803D08F
:101A70000760002000E00248FEBDC0464716000097
:101A8000451600008B69002B02D10223FF3303614E
:101A900000230B612D3102330B7070470B1C2D336B
:101AA0001B780620022B04D008694B691B1A002002
:101AB0001360704708B5034A034B04481B6811685C
:101AC000984708BDA4000010A00000100040064088
:101AD00008B5034A034B04481B685168984708BD82
:101AE000A4000010A00000100080064008B5034AC2
:101AF000034B04481B689168984708BDA400001078
:101B0000A000001000C0064030B50C1C85B0051CBC
:101B10006846FFF7C5FD63680093237A022B02D065
:101B2000032B00D000236A465372637A012B00D046
:101B300000236A469372A37A69465A1E93416A4605
:101B40001371E37A5A1E93416A465371A37B074A85
:101B50009B0098582268FFF707FE002802D1A37B5C
:101B60002B7000E0024805B030BDC046E8280000F8
:101B7000AF2F000008B50378034A9B009858FFF781
:101B800079FD002008BDC046E828000008B50378AC
:101B900004489B001858FFF77FFE031E00D0024B3D
:101BA000181C08BDE8280000AF2F000008B5037816
:101BB00003489B001858FFF75FFE002008BDC04691
:101BC000E8280000002070470020704707B501900A
:101BD0000648037C002B05D0836801A901229847A1
:101BE000012001E0012040420EBDC046B0000010BF
:101BF000F7B50193002303700C68061C171C451CE5
:101C00009C4210D130334370012018E001994123E8
:101C1000002900D120330A3CE4182C70A81B141CA6
:101C20000135002A0BD0201C391CFEF791FC3B1C0F
:101C30004343021CE41A092CE8D83034EDE7FEBD1A
:101C400070B5061C012086B0824217D100240C4DCD
:101C500001AA287402919072D072111C281C019361
:101C600014725472147354739673D4731474FFF70C
:101C70004BFF201C034BAB60034BEB6006B070BD09
:101C8000B0000010AD1B00008D1B000010B5054C0E
:101C9000237C002B04D0201CFFF76CFF002323744F
:101CA000002010BDB0000010F0B57F4B93B01B7C3E
:101CB000071C002B00D1E9E000240E1C07940494BB
:101CC000009401943878002800D1DDE0252802D165
:101CD0000023059304E0FFF779FF01340137F1E7B2
:101CE0007A78791C131C303B092B07D80A230598F6
:101CF0000F1C4343303B9B180593F1E72E2A00D17C
:101D0000C7E07D78642D11D0692D0FD020232A1CC7
:101D10009A43462A1AD0582A18D02B1C6F3B012B05
:101D200014D9622D2BD0752D7CD128E0331D029360
:101D3000336809A8069306A901230A22FFF758FF72
:101D4000844609AB6344029E0090019301230293F1
:101D5000582D03D0782D15D100230293331D039302
:101D6000336809A8079307A9029B1022FFF740FFD9
:101D7000844609AB634400900193039E02E0012373
:101D8000029313E06F2D11D0622D0FD0702D03D070
:101D9000752D0BD0039629E0331D0393336807A8F4
:101DA00008A90422089300F0A9FB12E0331D039355
:101DB000336807936F2D0AD003D80223622D09D010
:101DC00009E0702D05D00A23752D03D003E0082308
:101DD00000E010230493029B09A807A9049AFFF7C7
:101DE00007FF844609AB634400900193261C009BC7
:101DF000059A1B1B9B19934204DA2020FFF7E6FE8D
:101E00000136F4E7019B341C1D1E3AD0019B287853
:101E1000741B1C19002803D0013DFFF7D7FEF5E71E
:101E200001952EE0632D06D1331D306803930134F4
:101E3000FFF7CCFE25E0732D1ED1331D36680393CA
:101E4000002E1ED0301C00F01BFC251C02900090C0
:101E5000029B059A1B1B5B19934204DA2020FFF7B3
:101E6000B5FE0135F4E72C1C731B185D002808D063
:101E7000FFF7ACFE0134F7E7281CFFF7A7FE01349B
:101E800003960237039E1DE7201C0BE00120404211
:101E900008E00F1C7B787A1C303B092B00D930E717
:101EA000171CF7E713B0F0BDB00000100FB407B572
:101EB00004A901C90191FFF7F7FE03B008BC04B003
:101EC0001847000013B50848037C002B02D10120FD
:101ED000404208E06B46DC1D211CC3680122984784
:101EE0000028F4D1207816BDB00000100FB430B532
:101EF000164B89B01B7C002B21D000240DAB019325
:101F000002AD2C70FFF7DEFFC0B228550D2801D0BE
:101F10000A2802D1002CF4D007E00134132CF1DDA3
:101F2000142C02D100232B7502E000232C196370BE
:101F3000281C0C99019A00F04BF9C0B201E0012075
:101F4000404209B030BC08BC04B01847B0000010D3
:101F500008B50A4B021C1968002901D1084919600B
:101F60001868084982188A4206D900F071FA0C23D1
:101F700003600120404200E01A6008BDC400001068
:101F8000D8000010D8040010031C0120202B05D01D
:101F900000200422093BDBB29A424041704738B529
:101FA00000240368051C1878FFF7EEFF012805D10F
:101FB0002B6801345A1C2A605878F5E7201C38BD7C
:101FC00038B5141C20221D1C431A04980599A847F3
:101FD0002278002A04D0013C049805990123F6E7F1
:101FE00038BDF7B50193002303700C68061C171C5D
:101FF000451C9C4210D130334370012018E00199F8
:102000004123002900D120330A3CE4182C70A81B7E
:10201000141C0135002A0BD0201C391CFEF798FA3D
:102020003B1C4343021CE41A092CE8D83034EDE78A
:10203000FEBDF0B51F1C0023051C0C1C93B00292C2
:10204000059307932A78002A00D1BEE0252A02D101
:102050000023039305E0029805A90123B847013541
:10206000F0E76A78691C131C303B092B07D80A2358
:1020700003980D1C4343303B9B180393F1E72E2A32
:102080000AD10D1C6B786A1C303B092B04D8151C37
:10209000F8E76C2B05D1151C6B786A1C682BF8D1FE
:1020A000F9E7642B09D0692B07D01A1C20218A4339
:1020B000462A19D0582A1CD13DE00A222368261D41
:1020C000069309A806A90123FFF78BFF09AB1A188D
:1020D000029B011C009305AB019303983B1CFFF787
:1020E0006FFF0235341CADE70723E61D9E4308361B
:1020F000F7E76F2B0FD0622B62D0702B02D0752BBD
:1021000036D108E0236807A808A90422261D0893F1
:1021100000F0F4F90BE02268261D079208226F2BCD
:1021200006D0063A622B03D00832702B00D1102261
:1021300009A807A9C7E72268783B07925A1E93416E
:1021400007A9DBB2102209A8FFF74BFF202209AB39
:102150001E18039B05A91B1A0298B8473278002A5B
:1021600004D0013E029805A90123F6E7261DB8E731
:10217000632B07D122680298D2B205A90123261D3C
:10218000B847AEE7732B14D1261D2468002CA8D0C5
:10219000201C00F075FA2022039B05A91B1A029847
:1021A000B8472278002A9CD00134029805A901235F
:1021B000F6E71A1C029805A90123B847261C90E7E8
:1021C0002368261D07930222B2E7059813B0F0BDDD
:1021D000F0B503788BB0151C04910590002B46D008
:1021E00000230293049B1B78002B3ED0059B1B7899
:1021F000002B3AD004A8FFF7D2FE002803D005A890
:10220000FFF7CDFEEEE7049B19785A1C252931D142
:102210005978252939D12DE01A1C303A092A3BD8A2
:1022200000F016F90A22076007A9039800F0B2FA35
:10223000019000F00DF903685A425341019A5B4244
:102240001A40079B0192013B0393039B01330393C5
:10225000039B1B78002B4FD07C272740DCD0371CFA
:102260000023039A0492012B48D10298EBE001204D
:102270004042E8E00492059A597810788842F4D1F7
:102280000132023305920493ACE763230392049274
:102290000193041C061CDBE7642B01D16B4B02E0AD
:1022A000752B03D1553B1C430A26CEE76F2B03D178
:1022B0004F3B1C430826C8E7782B01D1583B02E06E
:1022C000582B03D1383B1C431026BEE7692B03D1A2
:1022D000493B1C433E1CB8E7632B05D15F3B1C43C5
:1022E000019B632BB1D1ABE0732B02D16B3B1C4341
:1022F000ABE7371C0123B4E7371CB2E77C2323404C
:102300000393042B11D12B68019A291D981883423D
:1023100006D0059A541C059412781A700133F6E71A
:10232000029B0D1C013302935CE7039B082B1DD11C
:1023300005A8FFF734FE2C68019B2F1DE618B44258
:1023400006D100232370029B3D1C0133029349E711
:10235000059D28780028F4D0FFF716FE0028F0D15C
:102360006B1C05932B7823700134E8E7039B202B2B
:1023700000D07AE705A8FFF712FE05980378002E33
:102380000AD10A27302B07D142780399023F8A43AA
:10239000582A04D1102702E0DBB22B2B05D02D2BBD
:1023A00006D001230393002305E00123039302E0F9
:1023B000FF230393FE3B019AC018D31A01930590A3
:1023C00000F05EF9019B07AE98421CD905990B22DB
:1023D000301C00F093F80023F37200F039F800236A
:1023E0003A1C036006A9301C00F0D4F9071C00F069
:1023F0002FF80368002B00D037E7069B9E1B059B38
:102400009E19059611E000F023F800233A1C0360A2
:10241000311C059800F0BEF9071C00F019F803689C
:10242000002B00D021E7079B05936B461B7B2A6896
:102430005BB25F432B1D1D1C029B17600133D0E66E
:102440000123019301E70BB0F0BDC046202000003E
:10245000014B18687047C04668000010084B10B563
:10246000041C002B02D0002100E000BF054B1868BF
:10247000836A002B00D09847201C00F00DFAC0465C
:1024800000000000F82800000E4B70B500251E1C4F
:102490000D4CE41AA410A54204D0AB00F3589847A1
:1024A0000135F8E700F0AEFA084B00251E1C084C79
:1024B000E41AA410A54204D0AB00F35898470135A4
:1024C000F8E770BD242A0000242A0000242A000016
:1024D000282A000008B5034B011C186800F066F8B4
:1024E00008BDC0466800001008B5034B011C186801
:1024F00000F016F808BDC04668000010002310B5B3
:10250000934203D0CC5CC4540133F9E710BD031CE3
:102510008218934202D019700133FAE77047000025
:1025200030B500293ED004390B68002B00DAC918F9
:102530001D4A1368141C002B02D14B60116031E05E
:1025400099420DD208680A189A4203D11368C31839
:102550000B6053684B60216024E08A4203D8131C4F
:102560005A68002AF9D11D685C198C420BD10968A0
:10257000691858181960904214D1106852680918E7
:1025800019605A600EE08C4202D90C23036009E006
:1025900008680C18944203D1146852680019086046
:1025A0004A60596030BDC046CC000010032370B5AE
:1025B000CC1C9C430834051C0C2C01D20C2405E0D7
:1025C000002C03DA0C2300202B6042E08C42F9D36C
:1025D000204A1368101C191C002913D00A68121B0A
:1025E0000DD40B2A02D90A608B181FE08B4202D14E
:1025F0005A6802601BE04A685A600B1C17E00B1C0B
:102600004968E9E7144E3368002B03D1281C00F019
:1026100025F83060281C211C00F020F8031C421C07
:10262000D0D00322C61C964386420AD11C60181CD7
:1026300007210B301A1D8843821A0AD05142995043
:1026400007E0311A281C00F009F8431CBAD0331CEB
:10265000ECE770BDCC000010C800001038B50023B6
:10266000064C051C081C2360FFF772FC431C03D1B9
:102670002368002B00D02B6038BDC046D00000106E
:102680000023C25C0133002AFBD1581E70470000B2
:10269000F0B51E1C3E4B87B01B68171C02930B1C29
:1026A000059004911C78029A5D1C12195178082239
:1026B0000A4001D02B1CF5E72D2C04D19D1C5C7821
:1026C0000123019304E001922B2C01D15C789D1C25
:1026D000002E02D0102E0AD154E0302C50D12022EE
:1026E0002B789343582B46D110266C780235012065
:1026F000311C4042FDF72CFF03900120311C404269
:10270000FDF7ACFF00228C46131C02990919497889
:10271000480701D5303C07E00320084017D0372197
:10272000012800D02031641AB44210DA511C0BD0B9
:10273000039A934206D801D1644503DC7343012216
:10274000E31801E0012252422C780135DDE7181C24
:10275000511C04D122230599101C0B6003E0019940
:10276000002900D05842002F0FD0049B002A00D02F
:102770006B1E3B6009E03024002EB8D10826B6E776
:102780000A26B4E7302CB2D1A9E707B0F0BDC046A5
:102790006C00001038B5051C0C1C131C034A291CC6
:1027A0001068221CFFF774FF38BDC0466800001097
:1027B00038B50C1C0968051C002901D0FFF7F8FF8B
:1027C000281C211CFFF7ACFE38BD0000314B70B552
:1027D0001B6898425DD0436A041C002B1DD0DB6847
:1027E000002B13D00025636ADB685959002905D0F6
:1027F0000E68201CFFF794FE311CF7E70435802D8E
:10280000F1D1636A201CD968FFF78AFE636A1968F0
:10281000002902D0201CFFF783FE6169002902D045
:10282000201CFFF77DFE616A002902D0201CFFF703
:1028300077FEA16B002902D0201CFFF771FEE16B2F
:10284000002902D0201CFFF76BFE216C002902D06A
:10285000201CFFF765FEE16D002902D0201CFFF768
:102860005FFEA16D002902D0201CFFF759FE616BAD
:10287000002902D0201CFFF753FEA369002B08D0CB
:10288000201CA36A9847A16C002902D0201CFFF7E6
:102890008FFF70BD68000010FEE7C046000000001A
:1028A000C027090090051000C05C1500F0B31A00A5
:1028B000200B2000009F2400E0322900C0C62D001C
:1028C00050973100E06735007038390000093D004D
:1028D0004016400080234300C03046000304050337
:1028E00004050E0F10000000004006400080064066
:1028F00000C0064043000000080000100020202017
:10290000202020202020282828282820202020209F
:10291000202020202020202020202020208810106F
:1029200010101010101010101010101010040404CB
:102930000404040404040410101010101010414189
:102940004141414101010101010101010101010177
:10295000010101010101010110101010101042428B
:102960004242424202020202020202020202020247
:1029700002020202020202021010101020000000E7
:102980000000000000000000000000000000000047
:102990000000000000000000000000000000000037
:1029A0000000000000000000000000000000000027
:1029B0000000000000000000000000000000000017
:1029C0000000000000000000000000000000000007
:1029D00000000000000000000000000000000000F7
:1029E00000000000000000000000000000000000E7
:1029F00000000000000000000000000000000000D7
:102A000000000000F8B5C046F8BC08BC9E46704700
:0C2A1000F8B5C046F8BC08BC9E467047F4
:082A1C0044D9FF7F0100000016
:042A24002903000082
:042A280001030000A6
:102A2C0000000000001BB7000000000000000000C8
:102A3C00000000000000000000000000000000008A
:102A4C000000000000000000F4280000000000005E
:102A5C00000000000000000000000000000000006A
:102A6C00000000000000000000000000000000005A
:102A7C00000000000000000000000000000000004A
:102A8C00000000000000000008000010FC280000FE
:042A9C000000000036
:04000003000003D91D
:00000001FF
