:1000000000200010D50100004D0200004D0200004C
:1000100000000000000000000000000000000000E0
:100020000000000000000000000000004D02000081
:1000300000000000000000004D0200004D02000022
:100040004D0200004D0200004D0200004D02000074
:100050004D0200004D0200004D0200004D02000064
:100060004D0200004D0200004D0200004D02000054
:100070004D0200004D0200004D0200004D02000044
:100080004D0200004D0200004D0200004D02000034
:100090004D0200004D0200004D0200004D02000024
:1000A0004D0200004D0200004D0200004D02000014
:1000B0004D0200004D0200004D0200004D02000004
:1000C00080B500AF144B144A126814490A431A60F1
:1000D000134B134A126813490A401A60104B104A16
:1000E00012688021C9000A431A600F4B0E4A126839
:1000F000802149020A431A600C4B00221A700C4BF3
:10010000181C00F019F8094B01221A70094B181C31
:1001100000F012F8F0E7C04680800440C000040000
:1001200004800440FFFBFFFF002000A0100000A09F
:10013000404B4C0040420F0080B584B000AF786067
:100140007B68FB6002E0FB68013BFB60FB68002B07
:10015000F9D1BD4604B080BD80B500AF154B154A3E
:10016000126880210A431A60134B00221A60134B55
:1001700024221A60124B00221A60114B01221A60CD
:100180000C4B0C4A126880218A431A60C0460D4B02
:100190001B6801221340FAD00B4B03221A600B4B51
:1001A00000221A60094B01221A60094B02221A60D0
:1001B000BD4680BD38820440408004400880044031
:1001C000448004400C8004407080044074800440EB
:1001D0007880044080B584B000AFFFF7BDFF164BB8
:1001E000FB60164BBB60164A144BD31A7B6007E0CA
:1001F000BB685A1CBA60FA68511CF96012781A7010
:100200007B685A1E7A60002BF2D10E4BBB600E4AFF
:100210000C4BD31A7B6004E0BB685A1CBA60002206
:100220001A707B685A1E7A60002BF5D1FFF748FFE1
:10023000BD4604B080BDC04654020000000000105E
:1002400000000010000000100000001080B500AF9A
:04025000FEE7C046BF
:00000001FF
