:100000000020001091020000090300000903000015
:1000100000000000000000000000000000000000E0
:1000200000000000000000000000000009030000C4
:1000300000000000000000000903000009030000A8
:100040000903000009030000090300000903000080
:100050000903000009030000090300000903000070
:100060000903000009030000090300000903000060
:100070000903000009030000090300000903000050
:100080000903000009030000090300000903000040
:100090000903000009030000090300000903000030
:1000A0000903000009030000090300000903000020
:1000B0000903000009030000090300000903000010
:1000C00080B582B000AF1D4B7B601D4B1C4A12688F
:1000D0001C490A431A601C4B1B4A12681B490A4000
:1000E0001A60194B184A12688021C9000A431A6025
:1000F000174B174A1268802149020A431A60154BB0
:100100001B68FF2293433B60124B3A6804210A4369
:100110001A6000F063F8104B00221A707B68181CFC
:1001200000F02EF80D4B181C00F01AF80A4B0122B3
:100130001A700A4B181C00F013F8ECE710030000CB
:1001400080800440C000040004800440FFFBFFFFE7
:10015000002000A000C00040100000A040420F009E
:1001600080B584B000AF78607B68FB6002E0FB681C
:10017000013BFB60FB68002BF9D1BD4604B080BD9C
:1001800080B584B000AF78600F23FB1800221A708E
:1001900014E0104B0F22BA18127879688A18127876
:1001A0001A60C0460C4B1B6804221340FAD00F2380
:1001B000FB180F22BA18127801321A700F23FB189D
:1001C0001B787A68D3181B78002BE2D1BD4604B0A7
:1001D00080BDC0461C4006400840064080B500AFC8
:1001E000084B084A12688021C9010A431A60064B6D
:1001F00008221A60054B03221A60054B05221A607B
:10020000BD4680BD8080044094800440204006406C
:100210000040064080B500AF154B154A126880219A
:100220000A431A60134B00221A60134B24221A60EF
:10023000124B00221A60114B01221A600C4B0C4A1F
:10024000126880218A431A60C0460D4B1B68012248
:100250001340FAD00B4B03221A600B4B00221A609A
:10026000094B01221A60094B02221A60BD4680BD6B
:1002700038820440408004400880044044800440A8
:100280000C800440708004407480044078800440F6
:1002900080B584B000AFFFF7BDFF164BFB60164B77
:1002A000BB60164A144BD31A7B6007E0BB685A1C2C
:1002B000BA60FA68511CF96012781A707B685A1E8D
:1002C0007A60002BF2D10E4BBB600E4A0C4BD31A56
:1002D0007B6004E0BB685A1CBA6000221A707B681D
:1002E0005A1E7A60002BF5D1FFF7EAFEBD4604B036
:1002F00080BDC04620030000000000100000001078
:10030000000000100000001080B500AFFEE7C046FE
:1003100048656C6C6F20776F726C64210A0D000069
:00000001FF
