:10000000E01F00100D04000045040000490400003A
:1000100000000000000000000000000000000000E0
:100020000000000000000000000000004D0400007F
:1000300000000000000000005104000089150000CD
:10004000590400005D040000610400006504000024
:10005000690400006D0400007104000075040000D4
:10006000790400007D040000810400008504000084
:10007000890400008D040000910400009504000034
:10008000990400009D040000A1040000A5040000E4
:10009000A9040000AD040000B1040000B504000094
:1000A000B9040000BD040000C1040000C504000044
:1000B000C9040000CD040000D1040000D5040000F4
:0402FC00FFFFFFFF02
:100300000448054B10B5834203D0044B002B00D0AA
:10031000984710BD70000010700000100000000031
:1003200006480749091A8B10C90FC91810B549109A
:1003300003D0044B002B00D0984710BD7000001074
:10034000700000100000000010B5074C2378002B4F
:1003500009D1FFF7D5FF054B002B02D0044800E080
:1003600000BF0123237010BD7000001000000000CA
:10037000942F0000054B10B5002B03D0044905480D
:1003800000E000BFFFF7CCFF10BDC046000000003A
:1003900074000010942F0000402292029A1A924694
:1003A0007047C046154B002B00D1114B9D46FFF7FF
:1003B000F3FF00218B460F461148124A121A00F033
:1003C00099F90C4B002B00D098470B4B002B00D019
:1003D00098470020002104000D000B4800F0C8F8E9
:1003E00000F0FEF82000290001F0E0F800F0CEF85F
:1003F000000008000000000000000000E01F0010E6
:100400007000001060010010B905000072B60748C6
:1004100080470749074A084B9B1A03DD043BC8582D
:10042000D050FBDC62B6054880470000ED170000A5
:10043000C02F00000000001070000010A503000095
:1004400025480047254800472548004725480047DC
:1004500025480047254800472548004725480047CC
:1004600025480047254800472548004725480047BC
:1004700025480047254800472548004725480047AC
:10048000254800472548004725480047254800479C
:10049000254800472548004725480047254800478C
:1004A000254800472548004725480047254800477C
:1004B000254800472548004725480047254800476C
:1004C000254800472548004725480047254800475C
:1004D0002548004725480047410400004504000026
:1004E000490400004D04000051040000891500007B
:1004F00041040000410400004104000025250000E3
:10050000412500005D250000410400004104000079
:1005100041040000410400004104000041040000C7
:1005200041040000410400004104000041040000B7
:1005300041040000410400004104000041040000A7
:100540004104000041040000410400004104000097
:100550004104000041040000410400004104000087
:100560004104000041040000410400004104000077
:1005700010B5010000230022002000F0D1FA10BDC8
:10058000014B18687047C04604000010084B10B5B6
:100590000400002B02D0002100F030FB054B18684E
:1005A000836A002B00D09847200000F0EBFFC04684
:1005B000FD0B0000342E000070B5074D074C641B86
:1005C000A41005D0013CA300EB589847002CF9D1AA
:1005D00002F0E8FC70BDC046BC2F0000C02F000038
:1005E00070B50C4D0C4E761BB61005D0002408CD0E
:1005F00001349847A642FAD102F0CEFC074D084ECE
:10060000761BB61005D0002408CD01349847A642C9
:10061000FAD170BDB82F0000B82F0000B82F00002D
:10062000BC2F000010B5034B0100186800F00CF956
:1006300010BDC0460400001010B5034B010018683F
:1006400000F0ACF810BDC04604000010F0B5C6467E
:1006500000B50F2A43D90B00032603431E400C00AC
:100660000300002E40D11500103D2D09AC462D0190
:10067000A846804400E03B00676825685F60E76843
:100680001D60DF601F00A56810379D601034434572
:10069000F1D165460F230C2401352D014919134072
:1006A0004519144223D08C59AC5104369C1B032CA1
:1006B000F9D80324043B9B0801339B002240ED182A
:1006C000C918561E002A07D0002300E02300CA5C88
:1006D0005C1CEA549E42F9D104BC9046F0BD050072
:1006E000561E002AF0D1F7E7561E0500ECE71A0067
:1006F000F6E7C046F0B5050083074AD0541E002A2D
:1007000044D0CEB20300032202E00135013C3DD3C8
:1007100001332E701342F8D1032C2FD9FF220A4047
:10072000150215432A0415430F2C35D92700103F15
:100730003F093E01B4461E001A001036664415609B
:1007400055609560D5601032B242F8D10F260C2268
:1007500001373F012640DB193700224217D03E1FE8
:10076000B608B400A4461A001C1D644420C2A2426C
:10077000FCD103240136B6009B193C40002C05D067
:10078000C9B21C19197001339C42FBD1F0BD340071
:10079000F4E714000300BFE72700E0E770B50500A9
:1007A000002915D00C1F2368002B27DB280000F040
:1007B00083FA244B1A68002A05D0A2420CD921687A
:1007C0006018824224D0626028001C6000F076FA33
:1007D00070BDA34203D81A005368002BF9D11168E9
:1007E0005018A0421BD027D821686018834207D038
:1007F00063605460280000F061FAE9E7E418D5E787
:1008000018685B6884466144216063605460F1E766
:10081000106852688446614421606260D4E72068B1
:100820000918501811608342E4D118685B68844647
:10083000614411605360DDE70C2328002B6000F059
:100840003DFAC5E78C000010F8B50323CD1C9D438D
:10085000083506000C2D2AD20C25A94229D83000D3
:1008600000F02AFA2A4F3A68002A0AD013685B1B64
:1008700004D441E023685B1B1FD522005468002C80
:10088000F8D17B68002B3DD02900300000F042F801
:10089000431C2AD00323C41C9C43A04205D0211A28
:1008A000300000F037F8431C1FD0256010E0002D09
:1008B000D3DA0C2300203360F8BD0B2B05D8636816
:1008C000A2421DD0536003E014002360E4182560A9
:1008D000300000F0F3F9200007220B30231D904375
:1008E000C21AE9D01B1AA350E6E70C23300033608C
:1008F00000F0E4F90020DFE70B2BE5D81400536883
:100900003B60E5E70021300000F004F87860BBE7C9
:100910008C000010002370B5064C05000800236011
:1009200002F042F8431C00D070BD2368002BFBD0BE
:100930002B60F9E75C01001010B5830727D003781E
:10094000002B26D00300032102E01A78002A1CD0D5
:1009500001330B42F9D119680F4A104C8A188A43A7
:1009600022420FD1043319680B4A8A188A43224263
:1009700008D104331968084A8A188A432242F1D000
:1009800000E001331A78002AFBD1181A10BD0300C9
:10099000E1E70020FAE7C046FFFEFEFE808080808F
:1009A000F0B557464E46DE4645468346E0B592468C
:1009B00089461E000A000820474F83B013001C78A8
:1009C000551C395D2A000842F8D12D2C5FD02B2C04
:1009D0002DD000230193002E46D0102E5CD0012094
:1009E0003100404200F0F2F907000120310040429E
:1009F000B04600F071FA002200202300303B092BA2
:100A000007D9113B192B03D92300613B192B11D8AE
:100A10000A339E420EDD002A23DBB84221D81ED0C5
:100A200042465043012218182C780135E5E72C780E
:100A30009D1CCEE7002A1FDB019B002B00D040420B
:100A40005346002B04D0002A1ED153464A461A6052
:100A500003B03CBC90469946A246AB46F0BD8B42E3
:100A6000DEDD01225242DFE7302C29D00A230521A6
:100A70001A4F98460A26BEE722235A4601201360E1
:100A800053464042002BE3D06B1E9946DDE72C789D
:100A90009D1C012301939EE7302C04D120222B784A
:100AA0009343582B04D010230F210D4F9846A2E7F3
:100AB00010236C780F210235094F984610269AE7CB
:100AC00020222B789343582BF2D008230721054F7F
:100AD000984608268FE7C046392E00009999991943
:100AE000FFFFFF0FFFFFFF1F10B5FFF759FF10BDFE
:100AF00010B504001300034A10680A002100FFF734
:100B00004FFF10BD0400001010B504001300034A8D
:100B100010680A002100FFF743FF10BD0400001019
:100B2000F0B546464F46D646C0B51F002F4B82B0A3
:100B30001C6805000E009046002C2DD063681F2B0A
:100B400050DC002D1CD08822A0589146002834D0BB
:100B50007832825894469A009146814442464946EA
:100B60000A600121624699400A43944680228A46DF
:100B70006146520081504946803A8F50022D16D06E
:100B800000205A1C02339B0062601E5102B01CBC44
:100B900090469946A246F0BD154C1C60154B002BA3
:100BA000CCD01B6801938823019AE250C6E75546D2
:100BB000843281580D438550E2E70F4B002B11D052
:100BC00084204000FFF72EFD00280BD08022002358
:100BD00052008350043283504B460022E05094462A
:100BE0006368B8E701204042D0E7C046200100100A
:100BF000940000100000000025060000F0B5DE465D
:100C00004E46454657462B4B88469B46E0B51E68E8
:100C100083B00190002E45D088237568F7586C1E6C
:100C200040D40135AD00783375199A460AE0002F9B
:100C300005D03B00A20080339B58434505D0043DBE
:100C4000013C2FD34346002BF1D173682A68013B46
:100C5000A34222D000232B60002AF0D0736899466B
:100C6000002F18D001235146A3407958194212D0C1
:100C7000822040003858A1007958009018420ED1C7
:100C8000019890475B4672681B684A4501D1B342A0
:100C9000D5D01E00BEE79047F4E77460DCE708009B
:100CA0009047EFE703B03CBC90469946A246AB465E
:100CB000F0BDC046200100107047C0467047C046D6
:100CC00070B50C0009680500002901D0FFF7F8FF96
:100CD00028002100FFF762FD70BDC046354B70B59E
:100CE0001B68050083425CD0426A002A5AD0D36850
:100CF000002B13D000269959002907D00C68280032
:100D0000FFF74CFD211EF9D16B6ADB680436802E9B
:100D1000F1D119002800FFF741FD6A6A1168002926
:100D200044D02800FFF73AFD6969002902D0280065
:100D3000FFF734FD6A6A002A03D011002800FFF78C
:100D40002DFDA96B002902D02800FFF727FDE96BD4
:100D5000002902D02800FFF721FD296C002902D0CC
:100D60002800FFF71BFDE96D002902D02800FFF7DE
:100D700015FDA96D002902D02800FFF70FFD696B52
:100D8000002902D02800FFF709FDAB69002B08D02D
:100D90002800AB6A9847A96C002902D02800FFF709
:100DA0008FFF70BD41690029C1D1CAE76969002977
:100DB000BDD1C2E70400001002B4714649084900E1
:100DC000095C49008E4402BC7047C04600224308BB
:100DD0008B4274D303098B425FD3030A8B4244D303
:100DE000030B8B4228D3030C8B420DD3FF22090245
:100DF00012BA030C8B4202D31212090265D0030B04
:100E00008B4219D300E0090AC30B8B4201D3CB03F9
:100E1000C01A5241830B8B4201D38B03C01A52413B
:100E2000430B8B4201D34B03C01A5241030B8B423D
:100E300001D30B03C01A5241C30A8B4201D3CB0228
:100E4000C01A5241830A8B4201D38B02C01A52410D
:100E5000430A8B4201D34B02C01A5241030A8B4210
:100E600001D30B02C01A5241CDD2C3098B4201D328
:100E7000CB01C01A524183098B4201D38B01C01AA6
:100E8000524143098B4201D34B01C01A524103091D
:100E90008B4201D30B01C01A5241C3088B4201D3CC
:100EA000CB00C01A524183088B4201D38B00C01A79
:100EB000524143088B4201D34B00C01A5241411AA0
:100EC00000D20146524110467047FFE701B50020AD
:100ED00000F0F0F802BDC0460029F7D076E7704771
:100EE00003460B437FD4002243088B4274D303098B
:100EF0008B425FD3030A8B4244D3030B8B4228D32C
:100F0000030C8B420DD3FF22090212BA030C8B4251
:100F100002D31212090265D0030B8B4219D300E0F1
:100F2000090AC30B8B4201D3CB03C01A5241830B76
:100F30008B4201D38B03C01A5241430B8B4201D326
:100F40004B03C01A5241030B8B4201D30B03C01A4F
:100F50005241C30A8B4201D3CB02C01A5241830AC9
:100F60008B4201D38B02C01A5241430A8B4201D3F8
:100F70004B02C01A5241030A8B4201D30B02C01A22
:100F80005241CDD2C3098B4201D3CB01C01A524189
:100F900083098B4201D38B01C01A524143098B4212
:100FA00001D34B01C01A524103098B4201D30B01FB
:100FB000C01A5241C3088B4201D3CB00C01A524120
:100FC00083088B4201D38B00C01A524143088B42E5
:100FD00001D34B00C01A5241411A00D2014652417E
:100FE000104670475DE0CA0F00D04942031000D39D
:100FF0004042534000229C4603098B422DD3030AF2
:101000008B4212D3FC22890112BA030A8B420CD301
:10101000890192118B4208D3890192118B4204D32A
:1010200089013AD0921100E08909C3098B4201D3AA
:10103000CB01C01A524183098B4201D38B01C01AE4
:10104000524143098B4201D34B01C01A524103095B
:101050008B4201D30B01C01A5241C3088B4201D30A
:10106000CB00C01A524183088B4201D38B00C01AB7
:101070005241D9D243088B4201D34B00C01A52418E
:10108000411A00D20146634652415B10104601D31B
:101090004042002B00D54942704763465B1000D3A5
:1010A000404201B5002000F005F802BD0029F8D04B
:1010B00016E770477047C046002B15D1002A13D1A0
:1010C000002906DB01DC002806D00020C0434108CF
:1010D00002E080210906002007B4024801A140185F
:1010E000029003BDD1FFFFFF03B4684601B502982B
:1010F00000F01AF9019B9E4602B00CBC7047C04636
:10110000002B11D1002A0FD1002900D1002802D0D4
:101110000021C943081C07B4024802A140180290EC
:1011200003BDC04691FFFFFF03B4684601B50298B6
:1011300000F02EF8019B9E4602B00CBC7047C046E2
:10114000F0B515042D0C0F0001002E00C646844694
:101150000004140C000C090C46434D4360436143EA
:101160004019340C241800B5A54203D98020400250
:1011700080464144250C6D18614659437A4330043A
:1011800049192404000C2018891804BC9046F0BDAD
:10119000F0B557464E464546DE46E0B504000D0024
:1011A0009246994683B08B4230D82DD0494650465E
:1011B00000F0D8F829000600200000F0D3F8331A18
:1011C0009846203B9B4633D45A465346934042466A
:1011D0001F00534693401E00AF423AD8AF4200D1A1
:1011E00078E05B46A41BBD41002B00DA75E00022CD
:1011F00000230092019301235A4693400193012357
:1012000042469340009328E08242CFD90022002337
:10121000009201930C9B002B01D01C605D60009834
:10122000019903B03CBC90469946A246AB46F0BD3E
:10123000424620239B1A5246DA40414613004A4652
:101240008A40170042461F43534693401E00AF4258
:10125000C4D900220023009201934346002BD9D029
:10126000FB0772081A4346467B080EE0AB4201D1E9
:10127000A2420CD8A41A9D41012024196D410021DD
:10128000013E24184D41002E06D0AB42EED9013E5E
:1012900024196D41002EF8D1009801995B46001980
:1012A0006941002B24DB2B005A464446D3402A00D8
:1012B000E2401C005B461500002B2ADB26009E4006
:1012C000330026004746BE403200801A9941009004
:1012D00001919FE7A342BCD883E742462023002127
:1012E0009B1A0022009101920122DA40019286E7C6
:1012F000424620239B1A2A0046469A402300F34088
:10130000444613432A00E2401C005B461500002BB4
:10131000D4DA42462F002023260097409B1ADE4055
:101320003B003343CDE7C046F8B5CE46474680B5CF
:101330009146984604000D0000F020F807000E00CA
:1013400002000B0048464146FFF7FAFE241A8D4181
:10135000089B380031001C605D600CBC90469946CB
:10136000F8BDC04610B5002903D100F0EDF82030DB
:1013700002E0081C00F0E8F810BDC046F0B5574682
:101380004E464546DE46E0B50F0019000023060034
:101390009846100083B0002F07DA33003C00002786
:1013A0005E42A74101235B429846002907DA434683
:1013B000DB430C009846030000215842A141340051
:1013C0003D0082468946B9426AD867D049465046B0
:1013D000FFF7C8FF834639003000FFF7C3FF5B46C5
:1013E0001B1A9C46203B9B466BD458465146814075
:1013F00060460B00514681400A00BB4200D972E0B2
:10140000BB4200D179E034003D005946A41A9D4109
:10141000002900DA74E000210020012600900191EB
:1014200059468E400196614601268E4061460096DF
:1014300000295FD0D90756080E435F086146012294
:1014400000230CE0AF4201D1A6420AD8A41BBD4143
:1014500024196D410139A4185D41002906D0AF421D
:10146000F0D9013924196D410029F8D1009801996A
:101470005B4600196941002B4DDB2E002C00DE403D
:101480006346DC405B46002B55DB34009C40230068
:101490006446A6403200801A994103E0B04295D9D3
:1014A000002000214346002B04D003000C00002143
:1014B0005842A14103B03CBC90469946A246AB4677
:1014C000F0BD624648462023514690409B1AD940C1
:1014D00003000091009960460B43514681400A0089
:1014E000BB4200D88CE700210020009001916146AA
:1014F00000299FD100980199D4E7B142F3D882E73F
:10150000614620260127761A00200021F74000902E
:101510000191019787E7624620239B1A2A009A408F
:10152000260013006246D6402C001E436346DC4072
:101530005B46002BA9DA62462023350094409B1AB3
:10154000DD4023002B43A3E71C2101231B04984209
:1015500001D3000C10391B0A984201D3000A083944
:101560001B09984201D30009043902A2105C4018FB
:101570007047C0460403020201010101000000009F
:1015800000000000FEE7C046034B1A68002A02D0A4
:101590001A68013A1A60704724010010024B186063
:1015A0001A68002AFCD1704724010010A0200021F5
:1015B00070B5000600F070F900F0CEF800F07AF88F
:1015C000FA21124B89001868FFF700FC80230138CC
:1015D0005B04984218D2C0210D4A090650600D489C
:1015E000A025036A8C241B021B0A0B430362002301
:1015F0009360073313602D06A4016420FFF7CEFF2C
:1016000080235B012B51F8E7FEE7C0466C00001019
:1016100010E000E000ED00E0802310B501240A4A4C
:10162000DB01D16F03200B43D367084B1C6000F034
:101630003FFC00F05DFA96210300220089010020A2
:1016400001F03AF810BDC046048004409480044084
:101650008E23F7B5012502210027114C9B00E2588B
:10166000104EAA43E250E25868468A43E250E258DC
:101670001E318A43E2500C4B1F606B4600961F716F
:1016800000F0D6FA380000F0C1FBFF22074B1F60C4
:10169000A36F93431D43064BA5671E60F7BDC0466D
:1016A00000800440001BB70040800440E0800440FC
:1016B0006C00001010B5FFF7CBFF10BD8E23F7B5FF
:1016C000012502210027114C9B00E258104EAA432D
:1016D000E250E25868468A43E250E2581E318A439B
:1016E000E2500C4B1F606B4600961F7100F0A0FA91
:1016F000C020800000F08AFBFF22074B1F60A36F11
:1017000093431D43054BA5671E60F7BD0080044051
:1017100000366E0140800440E08004406C00001000
:1017200007B580220A4BD202D96FA0200A43DA679C
:101730004022D96F00060A43DA67012201AB1A8002
:1017400000210B3200F0B4F83022024B9A6007BD42
:10175000048004400040044010B5FFF7E1FF10BDD5
:1017600070B51D4C0020636ADB051B0F013B0E2B7F
:1017700002D81A4A9B0098580322616A266F184DB6
:101780001640022E0CD0964217D0012E02D0154BD7
:101790002B600CE0236C1340032BF8D10023F7E7F8
:1017A0001F23194001314900FFF710FB286028680A
:1017B000A16FFFF70BFB286070BD1F23A2681A40C2
:1017C000236C01323340033B591E8B4105495B4278
:1017D0000B405343DCE7C04600800440402F00002C
:1017E0006C000010001BB7007047000010B5044AE1
:1017F000044B9A60044B054A1A60FFF7F5FF10BDD1
:101800000000000000ED00E06C000010001BB700BD
:10181000431E70B55B184D420C002B40984201D915
:10182000002070BD05225242521A9A42F8D3081D78
:10183000C018FEF7F7FE0028F2D0033424182C401D
:10184000034A231F201A58801A802000E9E7C04667
:1018500039300000031F054A198810B5914203D1A1
:101860005B88C01AFEF7E8FE10BDC04639300000A4
:101870000A0010B500280BD000231900FFF760FC08
:101880000023044AFFF73CFC001C01380028FCD16F
:1018900010BDC04600093D004023044A10B5D16F79
:1018A0000A200B43D36700F003FB10BD0480044003
:1018B00070B54024104DEE6F3443EC670124944022
:1018C000220080241E788D00A401002E04D140192E
:1018D00003599343035170BD5B78002B09D18A23D0
:1018E0001B01C91889000A50401903591A430251B3
:1018F000F1E78823F4E7C04604800440EFF3108149
:1019000072B60720064A136883431360054A0338FA
:1019100013698343136130BF81F310887047C04659
:101920000000024000ED00E010B5EFF3108172B648
:1019300007220C4C236893431A00012313438C2283
:101940002360094C9200A35883430420A350074B03
:101950001A6902431A6130BF1A6982431A6181F31E
:10196000108810BD000002400080044000ED00E03F
:1019700010B5EFF3108172B607220C4C2368934325
:101980001A00022313438C222360094C9200A358AF
:1019900083430420A350074B1A6902431A6130BFE6
:1019A0001A6982431A6181F3108810BD0000024059
:1019B0000080044000ED00E0EFF3108172B60F22CA
:1019C0000948036893431A00032313430360042068
:1019D000064B1A6902431A6130BF1A6982431A61C1
:1019E00081F310887047C0460000024000ED00E01F
:1019F00030B50D4A172811D9050001238121183D62
:101A0000AB408900545823435350002805DB1F2363
:101A100018401E3B8340054A136030BD85210123D9
:101A2000890083405458EEE70080044000E100E064
:101A3000020010B50E4B803208D18124A4001A593F
:101A40001838012181408A431A5110BD002809DB52
:101A50001F21012201408A400649CA67BFF34F8F08
:101A6000BFF36F8F1728E8D88524A4001A59E8E738
:101A70000080044004E100E003688B4303600368D6
:101A80000B43036003681942FCD07047004870475D
:101A9000001BB7008E23044A9B00D35800209B06EE
:101AA00001D4024B186870470080044028010010E0
:101AB0000B4B10B5186C03231840012809D098422D
:101AC0000AD0431E9841074B40421840064BC018AD
:101AD00010BDFFF7DFFFFBE7044B1868F8E7C046CF
:101AE0000080044000E548FF001BB70028010010FB
:101AF00010B50D4C0020226F032A05D81000FFF707
:101B00005BF90204070A094810BDFFF7D1FFFBE7A4
:101B1000074B1868F8E7FFF7CBFF1F22A3681340B5
:101B200001335843F0E7C04600800440001BB70073
:101B30002C0100100F4B10B51C680F4B00201B68C8
:101B4000E4B2032B05D81800FFF736F9020B0E118B
:101B50000A48002C03D02100FFF738F904002000C8
:101B600010BDFFF797FFF4E7054B1868F1E7FFF7A3
:101B7000BFFFEEE7E8800440E0800440001BB700B0
:101B80002C01001010B5FFF7B3FF0A4B04001B68CF
:101B9000FF221800104013420BD0074B210E1B6888
:101BA00024021A400132FF32424300232000FFF793
:101BB000A7FA10BD94800440F480044010B5FFF7EC
:101BC000E1FF10BD10B5FFF7DDFF10BD10B5FFF749
:101BD000D9FF10BD10B5072805D8FFF7EDF8060EA0
:101BE000041F11160414002010BDFFF781FF0C4BD9
:101BF000996FC9B2FFF7EAF8F6E7FFF779FFF3E765
:101C0000084B1868F0E7084BFBE7FFF751FF1F226E
:101C1000034B9B68134001335843E5E70348E3E770
:101C200000800440280100102C010010001BB700A8
:101C30008E22802370B51F4C9200A15806000B43E2
:101C40000321A350236C226C8B43134302791A485F
:101C500013432364FFF710FFFFF72AFF36680100E4
:101C600005003000FFF7B2F8144A0023964208D866
:101C7000134A0133964204D80023124AB2425B4110
:101C800002331F26A168421E32406036B1430A4328
:101C90005B0113438E228021A3609200A3588B43E3
:101CA000A3500123E2681A42FCD06843064B186037
:101CB00070BDC0460080044044800440802FA604CC
:101CC000C0175302E08B2901300100101821074A88
:101CD00010B5D36A064C8B43D362E022054952000B
:101CE0008B5823408B50044B186010BD00400440BB
:101CF000FFFDFFFF00C00040280100101821104A1E
:101D000010B5936B04008B439363E02240200D4990
:101D100052008B5883438B500B4BC03A196AFF3AE1
:101D20000A438E211A6289005A5820388243DA30D9
:101D30005A5040000549FFF79BFD054B1C6010BD44
:101D40000040044000C000400080044080C3C9013E
:101D5000280100101821164B10B55A6B04008A4355
:101D60005A639A6BC0208A439A63E0221149520059
:101D70008B5883438B501049BE3A0B6AFF3A93430A
:101D80000E4A086AA2429241524252000343134350
:101D90008E2220200B6292008B588343D5308B50CB
:101DA000FF300749FFF764FD064B1C6010BDC046BD
:101DB0000040044000C0004000800440C0E1E40056
:101DC00080C3C9012801001070B5F0250D4CC30C6B
:101DD000626A6D00520A2B4052021A43C23D4B0800
:101DE000FF3D013B2B4013438E2263629200A358B8
:101DF0002135AB430002A350000AFEF7E7FF024B78
:101E0000186070BD008004402C01001010B5032440
:101E10000949020A0B6F23409A420BD0C0B2002836
:101E200008D10B6F2240A34313430B6703480121E2
:101E3000FFF722FE10BDC0460080044074800440BD
:101E4000F8B50400FFF754FE124B0600186844432F
:101E5000211E1CD00021A64219D321003000FEF71C
:101E6000B5FF0021012812D80B0022000D0034001C
:101E7000FF27A41A9D41084829020760200E01434C
:101E80002002FFF73DF90121044B07401F600800C5
:101E9000F8BDC04694800440F0800440F4800440C3
:101EA00010B501210148FFF7E7FD10BDE4800440B3
:101EB00001228240034B59689143596059680A4393
:101EC0005A60704700800440032310B5FF240B4084
:101ED000DB009C409A408908890041180868A043AB
:101EE00002430A6010BD002A07D0002904DBE0226B
:101EF000520083588B43835070470029FCDBE0235A
:101F00005B00C2581143C150F6E7890093B24018F4
:101F1000120D821813607047074A03000020934295
:101F200009D0064A0130934205D0054A9B18180093
:101F3000431E984102307047004006400080064032
:101F40000040F9BF30B5448C018C0300A5B28AB2C1
:101F5000081B8C4202D9D8691018401B30BD000004
:101F6000F0B50B6905000C00012685B0002B02D1ED
:101F70008E69731E9E4163680293AB6801936B691F
:101F8000019A039380235B001A420AD0AA68676A09
:101F90001343AB60002F04D021002800A36A3E4AFF
:101FA000B847002E24D0019BDB0721D56B461E7B52
:101FB0002369002B3DD0E3681E702369013B236138
:101FC000E3680133E3602369002B11D1A369002B7F
:101FD00002D10223FF332B61230002222D331A701A
:101FE000666A002E04D021002800A36A2B4AB0475D
:101FF000029B002B1BD00422019B134217D02368A5
:102000001B78EB616368013B6360236801332360E5
:102010006368002B0BD12A6122002C321370666A90
:10202000002E04D021002800A36A1D4AB04705B045
:10203000F0BDA369002BDBD02000FFF783FFE3692D
:10204000013B984207D1676A002F04D02100280085
:10205000A36A144AB8472000FFF774FFE269531ED1
:10206000984205D1638C013393420CD100236384E1
:10207000238CA269D654238CE2690133934206D1A2
:1020800000232384B4E7638C01339BB2EFE7238CF6
:1020900001339BB2F5E7C046491600004716000021
:1020A000461600004A160000CB6100230B844B84C7
:1020B0000223FF338A61C36070470B002D331B7806
:1020C000022B02D10223FF33036100230B848B61B7
:1020D000CB614B8470470000082310B582681A4218
:1020E000FCD001240368A3430360FFF715FF0449F4
:1020F000044A095CD36F8C40A343D36710BDC0462C
:102100007C2F00000480044010B510220021040040
:10211000FEF7F0FA962380229B01236000235204ED
:102120006360A260A38110BDF0B5036805000C00D8
:10213000160089B01B0507D51000FEF747FE0138D1
:102140002862002009B0F0BD0A231A0072430692EB
:102150000A01019201220F27524202921032059287
:10216000103A049207937B1C019906980393FEF79B
:102170002DFEA02305381B03984215D20799FEF7C0
:1021800025FE7B1C411C4B43039019003000FEF7D9
:102190001DFE231A844200D2031B049A934203D2E9
:1021A000039A059702920493019B013F1B1B019325
:1021B000072FD8D18023029A5B029A4203D2059B53
:1021C000AB622A62BDE70148BCE7C0464F1600007B
:1021D000F8B501260D0004001700FFF79DFE320040
:1021E000354BD96F9C46354B1B5C9A4013006246B9
:1021F0000B43D367324B185CFFF75AFE8020AB7954
:10220000297A2A7B4902DB030B430001910201403A
:1022100030200B43697A9203090101400B43A97AEC
:102220001030890101400B43E97A343889000140BC
:102230000B438021C9010A4013436A7B80218240FD
:1022400049010A40134329681E432660002906D12C
:10225000EB79002B0BD163681A4A13400BE03A006C
:102260002000FFF761FF0028F2D0174817E0802315
:1022700062685B00134363606B79002B10D001230D
:102280002268134340222360636893436360287984
:10229000002809D001230020226813432360F8BDE1
:1022A000402362681343F1E763685B06F7D50122B8
:1022B000236893432360F2E7048004407C2F0000EE
:1022C000822F0000FFFEFFFF4F160000042310B511
:1022D0008A18914205D1082382681A42FCD0002056
:1022E00010BD84681C42FCD00C780131C461F0E759
:1022F000F7B58B1801938023802680279B0104006B
:1023000001259C467600FF01019B994201D10020E6
:10231000FEBDA3682B42FCD0A268A3681343A36050
:10232000324214D113003B40584243410A485B42B9
:1023300018400A4BC01863461A4200D008481304DC
:1023400007D40028E4D163690B700131DCE705484C
:10235000DEE70548DCE7C046B3E9FFFF4D160000A5
:102360004C1600004E1600004B160000F8B50C008D
:102370001E001700FFF7D0FD3022050000212000CD
:10238000FEF7B8F9230002222D331A700022013B18
:102390001A700A4BAA00D450094B0A4A67621A60A5
:1023A000094BA6625B57002B06DB1F2213401E3A27
:1023B0009A401300054A13600020F8BD3401001054
:1023C00040010010611F00007F2F000000E100E0CD
:1023D0000B0010B52C331C78012C0ED014685268F9
:1023E0000C608A604A6001221A700423C36043684B
:1023F0003F3293434360002010BD0148FCE7C046D4
:10240000441600000423036142683C3313434360D5
:1024100000234B602C310B7070470B002C331B7862
:102420000620002B04D048688B681B1A002013601C
:1024300070470000F7B501930B0000902D33160094
:102440001A780C00032A4FD08F697568002F40D08E
:10245000012303610800FFF775FD071E07D0A8429E
:1024600000D92F0000239C46ED1BBB421ED1002D3E
:1024700009D033680322DB19E36073682561636167
:1024800023002D331A700123009AD360002D07D149
:10249000656A002D04D02100A36A144A0098A84759
:1024A0000198002801D007600020FEBD608CA26961
:1024B000591C105C3268D054638CE269013393423A
:1024C00003D1634663840B00CFE7638C01339BB277
:1024D000F8E732684D61CA6003220D611A70022369
:1024E000009AFF33D360DBE70148DEE747160000C0
:1024F000451600008B69002B02D10223FF330361D4
:1025000000230B612D3102330B7070470B002D330C
:102510001B780620022B04D008694B691B1A002087
:102520001360704710B5034B034A1B6811680348DA
:10253000984710BD400100103401001000400640D3
:1025400010B5034B034A1B6851680348984710BDF8
:1025500040010010340100100080064010B5034B0C
:10256000034A1B6891680348984710BD400100105A
:102570003401001000C0064030B50C0085B00500E5
:102580006846FFF7C1FD63680093237A022B1FD1D1
:102590006A465372637A1148013B5A4253416A4674
:1025A0009372A37A69465A1E93416A461371E37A7D
:1025B0005A1E93416A465371A37B22689B001858A8
:1025C000FFF706FE002807D1A37B2B7005B030BDB6
:1025D000032BDDD00023DBE70148F7E7882F00005D
:1025E000AF2F000010B50378034A9B009858FFF7FF
:1025F00073FD002010BDC046882F000003780748F7
:102600009B00185810B5FFF773FE43425841044B26
:1026100040421840034BC01810BDC046882F000030
:1026200051D0FFFFAF2F000010B5037803489B0087
:102630001858FFF74BFE002010BDC046882F000041
:10264000002070470020704707B501900648037CC2
:10265000002B05D00122836801A9984701200EBDF7
:1026600001204042FBE7C04644010010F7B51500C9
:10267000002202700F680400974203D13023437098
:102680000120FEBD6122002B00D0203A01260A3A2B
:10269000019238002900FEF71FFC019B3A005B18ED
:1026A0000700092901D80B0030333000A35501364B
:1026B0009542EED9E5E7000070B5060001200C0058
:1026C00086B0824213D1029400240A4D01A90193DD
:1026D000094B28748C81280003938E73CC730C747F
:1026E000FFF74AFF2000054BAB60054BEB6006B0DF
:1026F00070BDC04644010010000001012926000001
:10270000FD25000010B5054C237C002B04D02000D3
:10271000FFF768FF00232374002010BD4401001060
:10272000F0B5774B93B002901B7C0C00002B00D1CE
:10273000E1E000250795059501950395029B187822
:10274000002800D1D9E0252835D001330293013586
:10275000FFF77AFFF2E70A200499029341433039E8
:1027600052180492029A029B5278013311003039B8
:102770000929F0D92E2A05D102935A780133303A2B
:10278000092AF9D9029B5E78642E17D0692E15D0DC
:10279000202332009A43462A1DD0582A1BD03300EA
:1027A000623BDBB2132B00D9A3E0564ADA40D307D1
:1027B00076D5012721E000230493D3E708CC0A2231
:1027C000069306A9012309A8FFF750FF844609AB29
:1027D000634401900393582E2AD00027782EE8D125
:1027E00008CC1022079307A93B0009A8FFF73EFF7A
:1027F000844609AB6344019003936F2E23D0622E6D
:1028000021D0702E16D0752E1DD0039E019F049BE3
:10281000BB4233DC049A019900238A4200DB531A3D
:10282000ED180396002E33D1029B0233029385E705
:102830000127D5E708CC042208A907A80893FDF7CB
:1028400005FF102316E008CC07936F2E14D00CD888
:102850000223622E0ED03B00059A07A909A8FFF7B4
:1028600005FF09AB01901E18D0E7702EE9D00A23AE
:10287000752EF0D10593EEE70823FBE72020FFF744
:10288000E3FE0137C3E7039B013B0393FFF7DCFE45
:10289000039A731910789B1A0028F4D11D00C3E71E
:1028A000632E04D101CCFFF7CFFE0135BCE7732EB8
:1028B0001FD140CC002EB7D03000FEF73DF8070006
:1028C0000190049BBB420FDC019A049900238A42C9
:1028D00000DC8B1A5D192F00F31B585D0028A3D074
:1028E000FFF7B2FE0135F7E72020FFF7ADFE013715
:1028F000E7E73000D7E701256D42280013B0F0BDAF
:1029000044010010016008000FB407B504A901C913
:102910000191FFF705FF03B008BC04B018470000A1
:1029200013B50848037C002B02D10120404216BD9C
:102930006B46DC1D01222100C36898470028F4D1B2
:102940002078F4E7440100100FB430B5154B89B07E
:102950001B7C002B22D000240DAB019302AD2C7008
:10296000FFF7DEFFC0B228550D2801D00A2805D197
:10297000002CF4D000232C19637004E00134142CD3
:10298000EED100232B752800019A0C9900F02AF94A
:10299000C0B209B030BC08BC04B0184701204042A6
:1029A000F7E7C046440100100A4A0300116810B559
:1029B000002901D10849116010680849C3188B42E9
:1029C00006D9FDF7DDFD0C2303600120404210BD58
:1029D0001360FCE758010010600100106005001052
:1029E00003000120202B05D000200422093BDBB28C
:1029F0009A424041704770B500250368040018787A
:102A0000FFF7EEFF012801D0280070BD23680135D3
:102A10005A1C22605878F3E770B5140020221D007C
:102A2000431A05990498A8472278002A00D170BD5E
:102A30000123013CF5E7F7B51500002202700F688D
:102A40000400974203D1302343700120FEBD612270
:102A5000002B00D0203A01260A3A019238002900C2
:102A6000FEF73AFA019B3A005B180700092901D8E2
:102A70000B0030333000A35501369542EED9E5E71F
:102A8000F0B593B002930023050017000C000593E6
:102A900007932A78002A00D1A1E0252A39D0012302
:102AA0003800029E05A90135B047F2E70A23150058
:102AB0005E43303E8E1969786A1C0B00303B092B4F
:102AC000F4D92E2905D1150053780132303B092B5A
:102AD000F9D92B005A780421130003958B43013553
:102AE000682BF6D0642A01D0692A14D108CC0A22B6
:102AF0000693012306A909A8FFF79DFF09AB1A1841
:102B000005AB010001933000029B0097FFF784FFA3
:102B10000BE00026CFE72023110099430B00462944
:102B200006D107343F3B9C430834039D0235B0E790
:102B3000582915D108CC783A0793531E9A4107A912
:102B4000D3B209A81022FFF776FF09AB1A1805AB1C
:102B5000010001933000029B0097FFF75DFFE4E75F
:102B60006F2A1BD0622A19D0702A0BD0752A15D073
:102B7000632A20D104CCD2B201233800029D05A9DA
:102B8000A847D2E708CC08A9042207A80893FDF7B4
:102B90005DFD10210A00012307A9ACE708CC08213C
:102BA00007936F2AF6D00639622AF3D00E31702AC5
:102BB000F0D00639EEE7732ADED120CC002DB4D058
:102BC0002800FDF7B9FE2022331A3800029E05A91D
:102BD000B0472A78002AA8D001230135F5E70598E7
:102BE00013B0F0BDF0B503788BB00292049105905C
:102BF000002B00D118E10023019307E004A8FFF7A0
:102C0000FAFE041E0DD005A8FFF7F5FE049B1B7805
:102C1000002B03D0059B1B78002BEFD101980BB044
:102C2000F0BD049B1A785F1C252A22D15A78252AE8
:102C30001FD063230600049700933D78002D06D033
:102C40007C23234003937C231C421DD00025049742
:102C5000012DE3D07C272740042F66D1029A0099EA
:102C600008CA5818984259D1019B02920133019326
:102C7000CCE7059A0497107859788842CED1013272
:102C8000023305920493C1E72B00303B092B16D881
:102C9000FDF776FC039B0A22036007A93800FDF7C5
:102CA00033FF0090FDF76CFC03685A425341009AD1
:102CB0005B421A40079B00925F1E0137BDE7642DFF
:102CC00003D15B4B0A261C43F7E7752D01D1202366
:102CD000F8E76F2D03D1202308261C43EDE7782D5C
:102CE00003D1202310261C43E7E7582DF9D0692D86
:102CF00003D12023039E1C43DFE7632D07D1042368
:102D00001C43009B632BD8D1623B0093D5E7732D06
:102D100002D108231C43D0E7012598E705994C1CF4
:102D200005940978197001339CE7082F1DD105A877
:102D3000FFF761FE029E009B10CE1D19AC4207D02A
:102D4000059F3878002803D0FFF74AFE002806D0F8
:102D500000232370019B02960133019356E77B1CED
:102D600005933B7823700134E8E7202F00D055E726
:102D700005A8FFF740FE05980378002E3CD10A36DF
:102D8000302B39D142780636BA43582A00D0083E53
:102D9000012203922D2B02D115002E3B0393009BA1
:102DA000401905905D1BFDF7C7FD07AF854228D28E
:102DB00000250B2205993800FDF748FCFD72FDF750
:102DC000DFFB3200056006A93800FDF79DFE050017
:102DD000FDF7D6FB0368002B00D01FE7069BDF1B27
:102DE000059BDF190597039B029A5D4308CA02926F
:102DF0001D60019B0133FFE62B2BC9D101250395F3
:102E0000CDE7FDF7BDFB00233200036039000598D4
:102E1000FDF77AFE0500FDF7B3FB0368002B00D039
:102E2000FCE6079B0593DEE701204042F7E6C0463B
:102E3000202000000800001000202020202020205A
:102E4000202028282828282020202020202020205A
:102E5000202020202020202020881010101010106A
:102E600010101010101010101004040404040404B6
:102E70000404041010101010101041414141414150
:102E80000101010101010101010101010101010132
:102E90000101010110101010101042424242424242
:102EA0000202020202020202020202020202020202
:102EB00002020202101010102000000000000000AA
:102EC0000000000000000000000000000000000002
:102ED00000000000000000000000000000000000F2
:102EE00000000000000000000000000000000000E2
:102EF00000000000000000000000000000000000D2
:102F000000000000000000000000000000000000C1
:102F100000000000000000000000000000000000B1
:102F200000000000000000000000000000000000A1
:102F30000000000000000000000000000000000091
:102F4000C027090090051000C05C1500F0B31A00FE
:102F5000200B2000009F2400E0322900C0C62D0075
:102F600050973100E06735007038390000093D00A6
:102F70004016400080234300C03046000E0F10036F
:102F800004050304050000000040064000800640E0
:102F900000C0064000000000F8B5C046F8BC08BC00
:102FA0009E467047F8B5C046F8BC08BC9E467047C0
:082FB000E8D3FF7F01000000DF
:042FB800750300009D
:042FBC0049030000C5
:102FC00000000000080000100000000000000000E9
:102FD00000000000000000000000000000000000F1
:102FE00000000000000000000000000000000000E1
:102FF00000000000000000000000000000000000D1
:1030000000000000000000000000000000000000C0
:1030100000000000000000000000000000000000B0
:103020000000000000000000FD0B0000001BB700C6
:040000030000040DE8
:00000001FF
