:10000000E01F0010811E0000B91E0000BD1E000090
:1000100000000000000000000000000000000000E0
:10002000000000000000000000000000C11E0000F1
:100030000000000000000000C51E0000C91E0000F6
:10004000CD1E0000D11E0000D51E0000D91E0000EC
:10005000DD1E0000E11E0000E51E0000E91E00009C
:10006000ED1E0000F11E0000F51E0000F91E00004C
:10007000FD1E0000011F0000051F0000091F0000F9
:10008000D9030000111F0000151F0000191F0000F8
:100090001D1F0000211F0000251F0000291F000058
:1000A0002D1F0000311F0000351F0000391F000008
:1000B0003D1F0000411F0000451F0000491F0000B8
:0402FC00FFFFFFFF02
:1003000010B5064C2378002B07D1054B002B02D0EB
:10031000044800E000BF0123237010BD74000010EA
:1003200000000000D42C000008B5084B002B03D0BF
:100330000748084900E000BF07480368002B00D1C8
:1003400008BD064B002BFBD09847F9E700000000E2
:10035000D42C000078000010700000100000000095
:10036000164B002B00D1144B9D46402292029A1A44
:10037000924600218B460F461348144A121A02F087
:10038000E6F90F4B002B00D098470E4B002B00D006
:1003900098470020002104000D000D48002802D0DD
:1003A0000C4800E000BF02F08FF92000290002F0A5
:1003B00003F902F073F9C04600000800E01F0010C6
:1003C000000000000000000074000010D8000010C1
:1003D000000000000000000038B58025074C6D05C6
:1003E000A36E2B4209D0064B201C1A68012100F095
:1003F0009BFD0122034BA5661A7038BD00C0014069
:10040000CC000010D0000010F0B500250126164CDD
:1004100087B001A9071C201C0D714D71019600F0D9
:10042000BBFC022303A9201C03934D600E728D7246
:100430004D72CE7200F00EFD8022A36812061343A7
:100440008022A360A368D2041343A360064801215D
:100450003A1C00F069FD0028F8D0391C024800F071
:100460003FFD07B0F0BDC04600C001408022F8B596
:10047000114CD202E36F102713438022E367E36F2E
:100480000E4E0F4D1343E367281C776401210022B1
:1004900000F058FC3761281C0021042200F052FCB7
:1004A00080213764281CC901012200F05BFC8022F6
:1004B000E36F9343E367F8BD0480044000400440C9
:1004C00000C00040802110B501240A4AC901D36F41
:1004D00003200B43D367084B1C6000F025FC00F0A1
:1004E00043FAE121031C4902221C002001F0E6F836
:1004F00010BDC04604800440948004408E23F7B5AC
:10050000012602210027114C9B00E258104DB243F6
:10051000E250E25868468A43E250E2581E318A436C
:10052000E2500C4B1F606B4600951F7100F0BCFA47
:10053000381C00F0A9FBFF22074B1F60A36F9343F9
:100540003343A367054B1D60F7BDC04600800440E0
:10055000001BB70040800440E0800440040000100D
:1005600008B5FFF7CBFF08BD8E23F7B501260221A2
:100570000027114C9B00E258104DB243E250E25864
:1005800068468A43E250E2581E318A43E2500C4BDF
:100590001F606B4600951F7100F086FAC020800036
:1005A00000F072FBFF22074B1F60A36F934333439E
:1005B000A367054B1D60F7BD0080044000366E0147
:1005C00040800440E08004400400001070B51F4DDE
:1005D00000206B6ADB051B0F013B0E2B02D81C4A67
:1005E0009B0098580322696A2B6F184E1340194CD0
:1005F000022B0FD0934215D0012B09D1336C13403D
:10060000012B05D0002B03D0032B01D1002315E0D3
:10061000114B13E01F2319400131490001F0ECFC9C
:1006200020600CE0B068326C00211340032B00D036
:1006300009491F22031C134001334B432360A96F58
:10064000206801F0D9FC206070BDC04600800440E5
:10065000FC2A000004000010001BB700704708B51A
:10066000044A054B9A60054A054B1A60FFF7F6FFEE
:1006700008BDC0460000000000ED00E0001BB70010
:100680000400001038B54B1E4D421B182B4083420E
:1006900001D2002014E005225242521A9342F8D8A7
:1006A000081DC0180C1C02F035F8031EF1D00334ED
:1006B0002418281C03492040021FC31A11805380AC
:1006C00038BDC0463930000008B5031F1988044AF8
:1006D000914203D15B88C01A02F026F808BDC046DB
:1006E0003930000008B500280FD00A1C00210B1C6F
:1006F00001F034FD054A002301F010FD8907800850
:100700000843001C01380028FCD108BD40420F00FE
:100710004021044A08B5D36F0A200B43D36700F089
:1007200003FB08BD0480044070B54026134DEC6FF8
:100730003443EC671D788C00002D08D10121802501
:1007400091400019AD0143598B43435114E05D784A
:1007500001239340002D01D18A2500E088252D0139
:10076000491989000B5001219140001980240A1C6D
:10077000A40103591A43025170BDC04604800440CD
:10078000EFF3108372B6072006490A6882430A60B5
:10079000054903380A6982430A6130BF83F3108830
:1007A0007047C0460000024000ED00E010B5EFF3D6
:1007B000108272B607240C490B68A343063C2343FE
:1007C0000B608C21094C89006358834304206350DB
:1007D000074B19690143196130BF196981431961D8
:1007E00082F3108810BDC046000002400080044023
:1007F00000ED00E010B5EFF3108272B607240C494B
:100800000B68A343053C23430B608C21094C8900F2
:100810006358834304206350074B196901431961EE
:1008200030BF19698143196182F3108810BDC04639
:10083000000002400080044000ED00E0EFF3108271
:1008400072B60F2008490B6883430C3803430B60D2
:10085000064B013019690143196130BF19698143A1
:10086000196182F3108870470000024000ED00E03B
:1008700030B50E4B172807D98124051C0122A4008E
:10088000183D1959AA4004E0012285248240A400A1
:1008900019590A431A51002806DB1F2318401E3B32
:1008A0008340181C024B186030BDC04600800440D5
:1008B00000E100E010B500280ADB1F2301220340FD
:1008C0009A40131C0A4AD367BFF34F8FBFF36F8F51
:1008D000084B172804D98124A4001A59183802E0BB
:1008E0008524A4001A59012181408A431A5110BD60
:1008F00004E100E00080044003688B430360036868
:100900000B43036003681942FCD0704700487047EE
:10091000001BB7008E23044A9B00D35800209B067F
:1009200001D4024B1868704700800440900000100A
:1009300008B50A4B1A6C03231340012B08D0002B77
:1009400004D0032B07D1064B186805E0054803E0E7
:10095000FFF7E0FF00E0002008BDC0460080044033
:1009600090000010001BB7000D4B10B51A6F1C1C37
:100970000020032A13D8101C01F034FB0204070ADC
:1009800008480CE0FFF7D4FF09E0074B586806E081
:10099000FFF7CEFF1F23A26813400133584310BD59
:1009A00000800440001BB700900000100F4B10B5F2
:1009B0001C680F4BE4B21868002303280ED801F01E
:1009C00011FB0204070A0B4B08E0FFF7A3FF04E04A
:1009D000094B5B6802E0FFF7C7FF031C002084425D
:1009E00003D0181C211C01F007FB10BDE880044057
:1009F000E0800440001BB7009000001038B5FFF7FE
:100A0000B3FF0A4BFF251C6800232C409C420AD0F0
:100A1000074A010E1268000215406A1CFF32624349
:100A200001F07CFB031C181C38BDC04694800440B8
:100A3000F480044008B5FFF7E1FF08BD08B5FFF7F3
:100A4000DDFF08BD08B5FFF7D9FF08BD08B50728C9
:100A500005D801F0C7FA060E04201117041400206F
:100A60001AE0FFF781FF0D4B996FC9B201F0C4FA8C
:100A700012E0FFF779FF0FE0094B18680CE0084B14
:100A8000586809E0FFF754FF044B9A681F2313408E
:100A90000133584300E0034808BDC04600800440CD
:100AA00090000010001BB7008E228021F8B50327AC
:100AB0001F4C9200A358061C0B43A350236C0179D2
:100AC000226CBB430B4313432364391C1948FFF7C3
:100AD00013FFFFF72DFF051C3668291C301C01F0A1
:100AE0008BFA154A0023964208D8144A01339642DD
:100AF00004D8134BB3429B415B42FB1A1F21461E95
:100B000031407F26A2685B01B2431143602213404B
:100B10000B438021D932A360FF32A3588B43A350EB
:100B2000E368DB07FCD56843064B9860F8BDC04618
:100B30000080044044800440802FA604C017530264
:100B4000E08B2901900000101821074A10B5D36AE4
:100B50008B43D362E022054952008C58044B23405A
:100B60008B50044B186010BD0040044000C0004092
:100B7000FFFDFFFF900000101821104A10B5936B85
:100B8000041C8B439363E02240200D4952008B5894
:100B900083438B5001210B4B20381A6A0A438E2164
:100BA0001A6289005A588243D5305A50FF3006499C
:100BB000FFF798FD054B1C6010BDC0460040044087
:100BC00000C000400080044080C3C90190000010B4
:100BD0001821164B10B55A6B041C8A435A639A6B42
:100BE000C0208A439A63E022114952008B58834304
:100BF0008B501049BE3A0B6AFF3A93430E4A086A7B
:100C0000A242924152425200034313438E222020BB
:100C10000B6292008B588343D5308B50FF300749CD
:100C2000FFF760FD064B1C6010BDC046004004404D
:100C300000C0004000800440C0E1E40080C3C9015E
:100C40009000001038B5F023C50C5B002B401F2529
:100C50000B4C0002626A000A520A520213434A080D
:100C6000013A2A4013438E2263629200A358213531
:100C7000AB43A35001F0C0F9024B586038BDC046E9
:100C8000008004409000001003210A4A10B5136F41
:100C9000C4B20B40000A83420AD0002C08D1136F63
:100CA00008408B431843106702390348FFF724FEBE
:100CB00010BDC046008004407480044070B5041C20
:100CC0000025FFF751FE114B061C1B685C43AC422C
:100CD00019D0844217D8211C01F08EF9012812D8AE
:100CE000221CFF240A492B1C0C60301C291C801A72
:100CF0009941050E09022943000201F00FFA01256E
:100D0000044B04401C60281C70BDC0469480044005
:100D1000F0800440F480044008B502480121FFF748
:100D2000EBFD08BDE480044001238340181C044B04
:100D30005A6882435A605A68104358607047C046E8
:100D4000008004408B089B00C01803231940994081
:100D5000FC338B4010B504688A409C43231C13432A
:100D6000036010BD002A07D000290CDBE0225200EE
:100D700083588B43835006E0002904DBE0225200B5
:100D80008358194381507047890093B24018120D5F
:100D9000821813607047000010B580240C4A640468
:100DA000D36F2343D367002343660A790B78002A65
:100DB00002D08022D200134303602023C26E9A43E4
:100DC000C2664979C26E49010B401343C36610BD28
:100DD0000480044010B500210822041C01F0B7FC77
:100DE00000232371637110BD024A034BD16F0B4086
:100DF000D367704704800440FFFFFFFEF8B5FF256E
:100E000007680368041CAB4303600668081C0E49AE
:100E100001F0F2F801380540354325608025962021
:100E200022680A4BED0513402360236840002B43E2
:100E300023600749FFF756FC2368002027602B42F8
:100E400000D10120F8BDC04620A10700FFFBFFFF35
:100E500080C3C9014B681A03E023DB0113400A6811
:100E60001205120D13430A7A012A02D18022D202FE
:100E700013434A7A002A02D0802212031343CA7A0B
:100E8000012A02D18022D20513438A7A002A02D095
:100E9000802252051343836070474B681A03E02396
:100EA000DB0113400A681205120D13430A7A012A66
:100EB00002D18022D20213434A7A002A02D0802231
:100EC00012031343CA7A012A02D18022D2051343A6
:100ED0008A7A002A02D0802252051343C3607047E9
:100EE000006903041B0D0B6083039B0F0B7103034D
:100EF0009B0F4B7183001B0F8B604300DB0FC00FF8
:100F00000B737047406903041B0D0B6083039B0F39
:100F10000B7103039B0F4B7183001B0F8B6043000E
:100F2000DB0FC00F0B7370470831890008580304AA
:100F30001B0D136083039B0F137103039B0F5371EE
:100F400083001B0F93604300DB0FC00F13737047C8
:100F5000074A031C0020934209D0064A01309342FD
:100F600005D0054A02309B185A425A41801A7047F0
:100F700000400640008006400040F9BF10B5418C9B
:100F8000038C89B29CB2631AA14202D9C269A31828
:100F90005B1A181C10BD0B69F7B5051C0C1C01264B
:100FA000002B02D18E69731E9E4180226368AF6858
:100FB00000936B695200019317420BD0AB68134347
:100FC000AB60636A9C46002B04D0281C211C3E4A5F
:100FD000A36AE047002E52D0FB0750D56B461E791E
:100FE0002369002B1DD0E3681E702369013B236138
:100FF000E3680133E3602369002B40D1A369002B30
:1010000002D10223FF332B61231C0222666A2D3397
:101010001A70002E33D0281C211C2C4AA36AB0471A
:101020002DE0A369002B2AD0201CFFF7A7FFE3695E
:10103000013B984208D1636A9C46002B04D0281CCF
:10104000211C234AA36AE047201CFFF797FFE269AF
:10105000531E984205D1638C013393422ED1002355
:101060006384238CA269D654238CE26901339342B2
:1010700001D1002302E0238C01339BB22384009B27
:10108000002B1FD0042217421CD023681B78EB6171
:101090006368013B63602368013323606368002B4E
:1010A00010D12A61221C666A2C321370002E09D0DE
:1010B000281C211C074AA36AB04703E0638C013354
:1010C0009BB2CDE7F7BDC0464916000047160000A9
:1010D0004A16000046160000CB6100230B844B84A7
:1010E0000223FF338A61C36070470B1C2D331B78CA
:1010F000022B02D10223FF33036100230B848B6197
:10110000CB614B84704710B583681B07FCD5012465
:101110000368A3430360FFF71BFF0449044A095C0B
:10112000D36F8C40A343D36710BDC046382B00005B
:101130000480044010B500211022041C01F007FBBC
:1011400096239B01236001220023E2726372A37243
:10115000A371237163712373E3716373237210BDF1
:10116000F0B5036889B0061C0C1C04921B0536D42C
:101170000A235A430B0103930F2301271D1C7F42AF
:101180000692029305976B1C03990698079300F04B
:1011900033FF0A21053800F02FFF164B01909842CB
:1011A00010D8079B411C4B430498191C00F024FFE6
:1011B000231A844200D2031B059A934202D2019F54
:1011C00002950593039B013D1B1B0393072DDAD169
:1011D000084B9F420AD8029BB362376204E004982E
:1011E00000F00AFF01383062002000E0024809B038
:1011F000F0BDC046FFFF00004F160000F8B50D1C03
:10120000041C161C0127FFF7A3FE3C4BD96F9C461C
:101210003B4B1A5C3B1C93401A1C63460A43DA673B
:10122000374B0333185CFFF77FFDAB793021DB03CD
:101230001F433B1C687A2A7B000108400343A87ABD
:101240001031800101400B43181C0C21EB7A8027E0
:101250009B001940031C0B4380219003C9010140EE
:101260000B43181C6B7B7F011B033B40191C031CA9
:10127000287A802740020B43011CBF0039400B43F2
:101280008021920209010A40296813432360002942
:1012900007D0201C321CFFF763FF002801D019483B
:1012A0002AE0EB79002B04D08022636852001343BC
:1012B00002E06268144B134063606B79002B07D027
:1012C000012223681343236063683F32934302E0A3
:1012D00040226368134363602879002805D0012207
:1012E000236800201343236006E063685B0603D590
:1012F0000122236893432360F8BDC0460480044064
:10130000382B00004F160000FFFEFFFF8A189142A5
:1013100006D083685B07FCD50B780131C361F6E723
:1013200083681B07FCD50020704730B5041C8A1861
:10133000914219D0A368DB07FCD5A568A3682B43AD
:10134000A36080235B002B4010D1181C6B0400D5D8
:101350000848AB0400D508482B0409D4002808D15C
:1013600063690B700131E3E7002002E0034800E00D
:10137000034830BD4D1600004C1600004E1600000C
:101380004B160000F8B50C1C1E1C171CFFF7E0FDE7
:101390003022051C0021201C01F0D9F9231C022257
:1013A0002D331A700022013B1A700B4BAA00D45047
:1013B0000A4A6762DA600A4BA66206335A5D53B284
:1013C000002B06DB1F23134001229A40131C054A01
:1013D00013600020F8BDC0469C000010970F00006D
:1013E000382B000000E100E00B1C10B52C331C78FA
:1013F000012C0ED0146852680C608A604A60012289
:101400001A700423C36043683F3293434360002053
:1014100000E0014810BDC0464416000004234022ED
:10142000036143681343436000234B602C310B700E
:1014300070470B1C2C331B780620002B04D0486807
:101440008B681B1A002013607047F7B5161C0A1C26
:101450002D321478032C53D001938B690C1C00900F
:101460007568002B3BD001230361081CFFF786FD44
:101470000027B84219D0071EAF4200D92F1C002206
:10148000ED1BBA4211D0638CA169CB5C31688B54DF
:10149000638CE16901338B4201D1002302E0638C4C
:1014A00001339BB263840132EBE7002D09D033682E
:1014B0000322DB19E360736825616361231C2D330C
:1014C0001A700123009AD360002D13D1656A002D94
:1014D00010D0101C211C0B4AA36AA8470AE03168EF
:1014E0006561E16003212561117002221F1C0099D2
:1014F000FF32CA600198002803D00760002000E096
:101500000148FEBD47160000451600008B69002B00
:1015100002D10223FF33036100230B612D3102331B
:101520000B7070470B1C2D331B780620022B04D048
:1015300008694B691B1A00201360704708B5034BFC
:101540000348DA681968904708BDC0469C0000103F
:101550000040064008B5034B0348DA6859689047D5
:1015600008BDC0469C0000100080064008B5034B33
:101570000348DA689968904708BDC0469C0000108F
:1015800000C0064030B50C1C85B0051C6846FFF74E
:10159000D1FD63680093237A022B02D0032B00D085
:1015A00000236A465372637A012B00D000236A46F7
:1015B0009372A37A69465A1E93416A461371E37A7D
:1015C0005A1E93416A465371A37B074A9B00985861
:1015D0002268FFF713FE002802D1A37B2B7000E0E6
:1015E000024805B030BDC046442B0000AF2F0000BC
:1015F00008B50378034A9B009858FFF784FD002044
:1016000008BDC046442B000008B5037804489B0081
:101610001858FFF78AFE031E00D0024B181C08BDA5
:10162000442B0000AF2F000008B5037803489B004F
:101630001858FFF76BFE002008BDC046442B000081
:10164000002070470020704707B501900648037CD2
:10165000002B05D0836801A901229847012001E0F1
:10166000012040420EBDC046AC000010F7B501930A
:10167000002303700C68061C171C451C9C4210D1EB
:1016800030334370012018E001994123002900D133
:1016900020330A3CE4182C70A81B141C0135002AC6
:1016A0000BD0201C391C00F0A7FC3B1C4343021C40
:1016B000E41A092CE8D83034EDE7FEBD70B5061CFD
:1016C000012086B0824217D100240C4D01AA287453
:1016D00002919072D072111C281C019314725472E2
:1016E000147354739673D4731474FFF74BFF201C58
:1016F000034BAB60034BEB6006B070BDAC00001059
:10170000291600000916000010B5054C237C002B9B
:1017100004D0201CFFF76CFF00232374002010BDB1
:10172000AC000010F0B57D4B93B01B7C071C002B68
:1017300000D1E4E000240E1C089404940094019469
:101740003878002800D1D8E0252802D1002305935D
:1017500004E0FFF779FF01340137F1E77A78791C6B
:10176000131C303B092B07D80A2305980F1C434351
:10177000303B9B180593F1E72E2A00D1C2E07D781B
:10178000642D11D0692D0FD020232A1C9A43462A9C
:101790001AD0582A18D02B1C6F3B012B14D9622D5C
:1017A0002BD0752D77D128E0331D0293336809A81B
:1017B000079307A901230A22FFF758FF844609ABC4
:1017C0006344029E0090019301230293582D03D09D
:1017D000782D15D100230293331D0393336809A894
:1017E000089308A9029B1022FFF740FF844609AB2B
:1017F000634400900193039E02E0012302930EE0F4
:101800006F2D0CD0622D0AD0702D03D0752D06D00F
:10181000039624E0331D03933368089312E0331DCD
:101820000393336808936F2D0AD003D80223622DE7
:1018300009D009E0702D05D00A23752D03D003E0EF
:10184000082300E010230493029B09A808A9049A26
:10185000FFF70CFF844609AB634400900193261CFC
:10186000009B059A1B1B9B19934204DA2020FFF76B
:10187000EBFE0136F4E7019B341C1D1E3AD0019BA0
:101880002878741B1C19002803D0013DFFF7DCFEEB
:10189000F5E701952EE0632D06D1331D30680393E3
:1018A0000134FFF7D1FE25E0732D1ED1331D3668BC
:1018B0000393002E1ED0301C01F002F8251C02906C
:1018C0000090029B059A1B1B5B19934204DA2020AF
:1018D000FFF7BAFE0135F4E72C1C731B185D0028D6
:1018E00008D0FFF7B1FE0134F7E7281CFFF7ACFE84
:1018F000013403960237039E22E7201C0BE00120EF
:10190000404208E00F1C7B787A1C303B092B00D941
:1019100035E7171CF7E713B0F0BDC046AC00001068
:101920000FB407B504A901C90191FFF7FBFE03B08D
:1019300008BC04B0184713B50848037C002B02D13B
:101940000120404208E06B46DC1D211CC3680122D7
:1019500098470028F4D1207816BDC046AC0000108E
:101960000FB430B5164B89B01B7C002B21D000245E
:101970000DAB019302AD2C70FFF7DDFFC0B228550F
:101980000D2801D00A2802D1002CF4D007E0013440
:10199000132CF1DD142C02D100232B7502E000235F
:1019A0002C196370281C0C99019A00F02AF9C0B216
:1019B00001E00120404209B030BC08BC04B0184727
:1019C000AC000010031C0120202B05D000200422B5
:1019D000093BDBB29A424041704738B500240368A6
:1019E000051C1878FFF7EEFF012805D12B6801349C
:1019F0005A1C2A605878F5E7201C38BD38B5141CED
:101A000020221D1C431A04980599A8472278002A11
:101A100004D0013C049805990123F6E738BDF7B5D9
:101A20000193002303700C68061C171C451C9C4284
:101A300010D130334370012018E00199412300296F
:101A400000D120330A3CE4182C70A81B141C01356B
:101A5000002A0BD0201C391C00F0CEFA3B1C43435B
:101A6000021CE41A092CE8D83034EDE7FEBDF0B5CD
:101A70001F1C0023051C0C1C91B0029204930693BA
:101A80002A78002A00D1B9E0252A02D10023039345
:101A900005E0029804A90123B8470135F0E76A7808
:101AA000691C131C303B092B07D80A2303980D1C13
:101AB0004343303B9B180393F1E72E2A0AD10D1CB8
:101AC0006B786A1C303B092B04D8151CF8E76C2B8B
:101AD00005D1151C6B786A1C682BF8D1F9E7642BCB
:101AE00009D0692B07D01A1C20218A43462A19D015
:101AF000582A1CD138E00A222368261D059307A81E
:101B000005A90123FFF78BFF07AB1A18029B011CE5
:101B1000009304AB019303983B1CFFF76FFF023562
:101B2000341CADE70723E61D9E430836F7E76F2B0D
:101B30000AD0622B5DD0702B02D0752B31D103E01F
:101B40002368261D06930BE02268261D06920822B4
:101B50006F2B06D0063A622B03D00832702B00D1CF
:101B6000102207A806A9CCE72268783B06925A1EE5
:101B7000934106A9DBB2102207A8FFF750FF2022ED
:101B800007AB1E18039B04A91B1A0298B8473278AA
:101B9000002A04D0013E029804A90123F6E7261D7D
:101BA000BDE7632B07D122680298D2B204A90123B2
:101BB000261DB847B3E7732B14D1261D2468002CCB
:101BC000ADD0201C00F07CFE2022039B04A91B1A30
:101BD0000298B8472278002AA1D00134029804A9BB
:101BE0000123F6E71A1C029804A90123B847261C12
:101BF00095E72368261D06930222B2E7049811B0E8
:101C0000F0BDF0B503788BB0151C04910590002B46
:101C100046D000230193049B1B78002B3ED0059BEC
:101C20001B78002B3AD004A8FFF7D7FE002803D07A
:101C300005A8FFF7D2FEEEE7049B19785A1C252968
:101C400031D15978252939D12DE01A1C303A092A89
:101C50003BD800F01DFD0A22076007A9029800F09A
:101C6000B9FE009000F014FD03685A425341009AF7
:101C70005B421A40079B0092013B0293029B013397
:101C80000293029B1B78002B4FD07C272740DCD08F
:101C9000371C0023029A0492012B48D10198EAE0F4
:101CA00001204042E7E00492059A59781078884272
:101CB000F4D10132023305920493ACE7632302921C
:101CC00004920093041C061CDBE7642B01D16B4BD0
:101CD00002E0752B03D1553B1C430A26CEE76F2B40
:101CE00003D14F3B1C430826C8E7782B01D1583B52
:101CF00002E0582B03D1383B1C431026BEE7692B6A
:101D000003D1493B1C433E1CB8E7632B05D15F3B25
:101D10001C43009B632BB1D1AAE0732B02D16B3B18
:101D20001C43ABE7371C0123B4E7371CB2E77C2325
:101D300023400293042B11D12B68009A291D981877
:101D4000834206D0059A541C059412781A70013308
:101D5000F6E7019B0D1C013301935CE7029B082B06
:101D60001DD105A8FFF739FE2C68009B2F1DE61832
:101D7000B44206D100232370019B3D1C0133019323
:101D800049E7059D28780028F4D0FFF71BFE0028BE
:101D9000F0D16B1C05932B7823700134E8E7029B8C
:101DA000202B00D07AE705A8FFF717FE059A1378D5
:101DB000002E0AD10A27302B07D151780298023F12
:101DC0008143582904D1102702E0DBB22B2B05D028
:101DD0002D2B05D001230026029304E0012300E00F
:101DE000FF23012602939319181C0393059300F017
:101DF00067FD009B9B1B07AE98421CD903990B22E1
:101E0000301C00F09BFC0023F37200F041FC002327
:101E10003A1C036006A9301C00F0DCFD071C00F032
:101E200037FC0368002B00D038E7069B9E1B059B00
:101E30009E19059611E000F02BFC00233A1C03606C
:101E4000311C059800F0C6FD071C00F021FC03685A
:101E5000002B00D022E7079B05936B461B7A2A686C
:101E60005BB25F432B1D1D1C019B17600133D1E644
:101E70000123009302E70BB0F0BDC0462020000014
:101E800072B6074880470749074A084B9B1A03DD8B
:101E9000043BC858D050FBDC62B6054880470000C0
:101EA0005F060000002D000000000010740000100C
:101EB00061030000254800472548004725480047A2
:101EC0002548004725480047254800472548004742
:101ED0002548004725480047254800472548004732
:101EE0002548004725480047254800472548004722
:101EF0002548004725480047254800472548004712
:101F00002548004725480047254800472548004701
:101F100025480047254800472548004725480047F1
:101F200025480047254800472548004725480047E1
:101F300025480047254800472548004725480047D1
:101F4000254800472548004725480047B51E0000A2
:101F5000B91E0000BD1E0000C11E0000C51E00000D
:101F6000C91E0000B51E0000B51E0000B51E000011
:101F70003D150000551500006D150000B51E000050
:101F8000B51E0000B51E0000B51E0000B51E000005
:101F9000B51E0000B51E0000B51E0000B51E0000F5
:101FA000B51E0000B51E0000B51E0000B51E0000E5
:101FB000B51E0000B51E0000B51E0000B51E0000D5
:101FC000B51E0000B51E0000B51E0000B51E0000C5
:101FD000B51E0000B51E0000B51E0000B51E0000B5
:101FE000B51E000002B4714649084900095C490069
:101FF0008E4402BC7047C046002243088B4274D313
:1020000003098B425FD3030A8B4244D3030B8B42F9
:1020100028D3030C8B420DD3FF22090212BA030C02
:102020008B4202D31212090265D0030B8B4219D3E3
:1020300000E0090AC30B8B4201D3CB03C01A524103
:10204000830B8B4201D38B03C01A5241430B8B424B
:1020500001D34B03C01A5241030B8B4201D30B0334
:10206000C01A5241C30A8B4201D3CB02C01A52415B
:10207000830A8B4201D38B02C01A5241430A8B421E
:1020800001D34B02C01A5241030A8B4201D30B0207
:10209000C01A5241CDD2C3098B4201D3CB01C01A21
:1020A000524183098B4201D38B01C01A524143092B
:1020B0008B4201D34B01C01A524103098B4201D319
:1020C0000B01C01A5241C3088B4201D3CB00C01A86
:1020D000524183088B4201D38B00C01A52414308FE
:1020E0008B4201D34B00C01A5241411A00D2014623
:1020F000524110467047FFE701B5002000F00CF890
:1021000002BDC0460029F7D003B5FFF775FF0EBC2E
:102110004243891A1847C0467047C046002B11D168
:10212000002A0FD1002900D1002802D00021C94384
:10213000081C07B4024802A14018029003BDC04623
:10214000D9FFFFFF03B4684601B5029800F04CF8D0
:10215000019B9E4602B00CBC7047C046F0B54F468E
:10216000464605042D0C2C1CC0B41704160C3F0C5D
:102170009946030C7C4375435F4373437D19260CDA
:10218000AD199C46AF4203D980235B029846C444F4
:102190004B465143434324042E0C240C2D04664427
:1021A0002C1959188919201C0CBC90469946F0BD71
:1021B000F0B583B0161C1F1C0090019100F02EF8A2
:1021C000041C0D1C221C2B1C301C391CFFF7C6FFE5
:1021D000009A019B121A8B410899201C0A604B60DF
:1021E000291C03B0F0BDC046F0B5141C83B01D1C03
:1021F0000090019100F00AF9221C2B1C061C0F1CF8
:10220000FFF7ACFF009A019B121A8B410899301C12
:102210000A604B60391C03B0F0BDC046F0B54446BF
:102220005F4656464D46F0B41C1C85B0002900DAC6
:10223000A9E00F1C0021061C8846101C191C002C4C
:1022400000DA97E0341C3D1C82468946B94273D8B7
:1022500070D04946504600F085F98346391C301C41
:1022600000F080F95B46181A031C8346203B9C460D
:1022700000D59CE000230022514600920193634662
:102280009940019151468140019B0091BB4200D988
:1022900083E000D17EE0009A019B341C3D1CA41A0F
:1022A0009D416346002B00DA9AE000260027029643
:1022B000039701369E400396012686400296002829
:1022C00000D171E00099019AD30799464B464E0818
:1022D0001E435708002301220CE0AF4201D1A64261
:1022E0000AD8A41BBD4124196D410138A4185D41D1
:1022F000002806D0AF42F0D9013824196D410028DA
:10230000F8D12022029E039F5B46524236196F414C
:1023100099185AD4281CC8402C1C5B46DC40002964
:1023200068DB041C8C40231C59468840021CB61AEA
:102330009F4103E0B0428CD90026002741464B1E46
:102340009941002300910193009A019B002554427A
:102350009D41331C6340181C3B1C6B40191C009BA7
:10236000019CC018614105B03CBC90469946A2460C
:10237000AB46F0BD4346DB430C1C9846131C0021C2
:102380005842A1415EE7002746428F410121494260
:10239000884652E7B14200D87DE700260027029622
:1023A0000397002800D08DE7029E039FC6E72021F7
:1023B0005346091ACB400022191C002300920193B6
:1023C0004B4683400B4301935CE75A4620239B1AFC
:1023D0002A1C9A40201C131C5A46D04018439BE7E5
:1023E00020260027331A0026029603970127DF4094
:1023F000039761E75B4620215D46C91A031CAC4088
:10240000CB40191C231C0B438EE7C046F0B5454654
:102410004E465746E0B4041C82B00D1C91469846C7
:102420008B4262D85FD04146484600F09BF8291C99
:10243000061C201C00F096F82023311A5B428A46C5
:10244000C81865D44B4683401F1C4B468B401E1C4E
:10245000AF4258D855D0A41BBD41002800DA77E020
:102460000022002300920193013282400192012355
:102470008B40009300293CD0FB07984640467208E9
:102480007B080243012600270CE0AB4201D1A242A7
:102490000AD8A41A9D4124196D410139A4197D411E
:1024A000002906D0AB42F0D9013924196D41002929
:1024B000F8D12022009801995346524200196941EF
:1024C0009E183AD42F1CF7405346DD40002E29DBDE
:1024D0003C1CB440231C5446A7403A1C801A994126
:1024E0000090019105E082429DD9002300240093D1
:1024F00001940098019902B01CBC90469946A246EE
:10250000F0BDA342A7D90022002300920193B1E7B6
:1025100020224B46521AD3401A1C43468B401F1CA4
:10252000174392E7534620245646E41A3B1CB54015
:10253000E3401C1C2B1C2343CDE7524620239B1A4F
:102540002A1C9A40271C131C5246D7401F43BBE746
:1025500020230022581A0023009201930132C24026
:10256000019284E710B5002903D100F007F820306C
:1025700002E0081C00F002F810BDC0461C21012337
:102580001B04984201D3000C10391B0A984201D356
:10259000000A08391B09984201D30009043902A234
:1025A000105C40187047C04604030202010101019B
:1025B000000000000000000030B585B06A46284BDE
:1025C000284C1A60FDF752FFFDF7CAFF8022E36F27
:1025D000D20113430122E367234B244D1A60FDF718
:1025E00071FF2348FFF79CF98022E36F52041343E5
:1025F0008E221021E3679200AB5803208B43AB502F
:10260000FEF724FA011C1B48FEF7F8FB002801D056
:10261000194800E01948FFF783F96846FDF7F4FE12
:102620000122144C636E134363668022144B5202E2
:102630001A601448FFF774F9FFF77DF90022802132
:10264000114BC9041A70A2680A43A2601A78002AC2
:10265000FCD00299009A0D48FFF762F9ECE7C046FA
:10266000CC000010048004409480044000800440AA
:10267000502B000000C00140692B0000812B00009E
:1026800000E100E09B2B0000D0000010B22B000006
:10269000014B18687047C04668000010084B10B521
:1026A000041C002B02D0002100E000BF054B18687D
:1026B000836A002B00D09847201C00F01BFAC0460C
:1026C00000000000CC2B00000E4B70B500251E1C36
:1026D0000D4CE41AA410A54204D0AB00F35898475F
:1026E0000135F8E700F0F8FA084B00251E1C084CED
:1026F000E41AA410A54204D0AB00F3589847013562
:10270000F8E770BDF82C0000F82C0000F82C000051
:10271000FC2C000008B5034B011C186800F066F89B
:1027200008BDC0466800001008B5034B011C1868BE
:1027300000F016F808BDC04668000010002310B570
:10274000934203D0CC5CC4540133F9E710BD031CA1
:102750008218934202D019700133FAE770470000E3
:1027600030B500293ED004390B68002B00DAC918B7
:102770001D4A1368141C002B02D14B60116031E01C
:1027800099420DD208680A189A4203D11368C318F7
:102790000B6053684B60216024E08A4203D8131C0D
:1027A0005A68002AF9D11D685C198C420BD109685E
:1027B000691858181960904214D1106852680918A5
:1027C00019605A600EE08C4202D90C23036009E0C4
:1027D00008680C18944203D1146852680019086004
:1027E0004A60596030BDC046C4000010032370B574
:1027F000CC1C9C430834051C0C2C01D20C2405E095
:10280000002C03DA0C2300202B6042E08C42F9D329
:10281000204A1368101C191C002913D00A68121BC7
:102820000DD40B2A02D90A608B181FE08B4202D10B
:102830005A6802601BE04A685A600B1C17E00B1CC8
:102840004968E9E7144E3368002B03D1281C00F0D7
:1028500025F83060281C211C00F020F8031C421CC5
:10286000D0D00322C61C964386420AD11C60181C95
:1028700007210B301A1D8843821A0AD05142995001
:1028800007E0311A281C00F009F8431CBAD0331CA9
:10289000ECE770BDC4000010C000001038B5002384
:1028A000064C051C081C236000F016F9431C03D1DC
:1028B0002368002B00D02B6038BDC046D400001028
:1028C0000023C25C0133002AFBD1581E7047000070
:1028D000F0B51E1C3E4B87B01B68171C02930B1CE7
:1028E000059004911C78029A5D1C121951780822F7
:1028F0000A4001D02B1CF5E72D2C04D19D1C5C78DF
:102900000123019304E001922B2C01D15C789D1CE2
:10291000002E02D0102E0AD154E0302C50D12022AB
:102920002B789343582B46D110266C780235012022
:10293000311C4042FFF760FB03900120311C4042F4
:10294000FFF7E0FB00228C46131C02990919497815
:10295000480701D5303C07E00320084017D0372155
:10296000012800D02031641AB44210DA511C0BD077
:10297000039A934206D801D1644503DC73430122D4
:10298000E31801E0012252422C780135DDE7181CE2
:10299000511C04D122230599101C0B6003E00199FE
:1029A000002900D05842002F0FD0049B002A00D0ED
:1029B0006B1E3B6009E03024002EB8D10826B6E734
:1029C0000A26B4E7302CB2D1A9E707B0F0BDC04663
:1029D0006C00001038B5051C0C1C131C034A291C84
:1029E0001068221CFFF774FF38BDC0466800001055
:1029F00038B50C1C0968051C002901D0FFF7F8FF49
:102A0000281C211CFFF7ACFE38BD0000314B70B50F
:102A10001B6898425DD0436A041C002B1DD0DB6804
:102A2000002B13D00025636ADB685959002905D0B3
:102A30000E68201CFFF794FE311CF7E70435802D4B
:102A4000F1D1636A201CD968FFF78AFE636A1968AE
:102A5000002902D0201CFFF783FE6169002902D003
:102A6000201CFFF77DFE616A002902D0201CFFF7C1
:102A700077FEA16B002902D0201CFFF771FEE16BED
:102A8000002902D0201CFFF76BFE216C002902D028
:102A9000201CFFF765FEE16D002902D0201CFFF726
:102AA0005FFEA16D002902D0201CFFF759FE616B6B
:102AB000002902D0201CFFF753FEA369002B08D089
:102AC000201CA36A9847A16C002902D0201CFFF7A4
:102AD0008FFF70BD68000010044A1368002B03D0FC
:102AE00018181060181C7047014BF9E7C800001057
:102AF000D8000010FEE7C04600000000C027090013
:102B000090051000C05C1500F0B31A00200B2000E7
:102B1000009F2400E0322900C0C62D0050973100EC
:102B2000E06735007038390000093D00401640006C
:102B300080234300C03046000E0F10030405030439
:102B400005000000004006400080064000C006402E
:102B500041444320696E74657272757074206578A3
:102B6000616D706C652E0D0A004144432043616C19
:102B70006962726174696F6E20446F6E652E0D0A12
:102B8000004144432043616C6962726174696F6EF5
:102B9000204661696C65642E0D0A00436F6E66699C
:102BA0006775726174696F6E20446F6E652E0D0AD1
:102BB0000A00436820256420726573756C74203D9B
:102BC0002025640D0A0A00430000000008000010E0
:102BD00000202020202020202020282828282820ED
:102BE00020202020202020202020202020202020E5
:102BF000208810101010101010101010101010104D
:102C0000100404040404040404040410101010103C
:102C10001010414141414141010101010101010106
:102C20000101010101010101010101011010101058
:102C300010104242424242420202020202020202D8
:102C4000020202020202020202020202101010102C
:102C50002000000000000000000000000000000054
:102C60000000000000000000000000000000000064
:102C70000000000000000000000000000000000054
:102C80000000000000000000000000000000000044
:102C90000000000000000000000000000000000034
:102CA0000000000000000000000000000000000024
:102CB0000000000000000000000000000000000014
:102CC0000000000000000000000000000000000004
:102CD0000000000000000000F8B5C046F8BC08BCC9
:102CE0009E467047F8B5C046F8BC08BC9E46704783
:082CF00070D6FF7F0100000017
:042CF80029030000AC
:042CFC0001030000D0
:102D000000000000001BB7000000000000000000F1
:102D100000000000000000000000000000000000B3
:102D20000000000000000000C72B000000000000B1
:102D30000000000000000000000000000000000093
:102D40000000000000000000000000000000000083
:102D50000000000000000000000000000000000073
:102D6000000000000000000008000010D02B000050
:042D7000000000005F
:0400000300001E815A
:00000001FF
