:10000000E01F0010C9030000010400000504000007
:1000100000000000000000000000000000000000E0
:1000200000000000000000000000000009040000C3
:1000300000000000000000000D040000150D00008D
:1000400015040000190400001D0400002104000034
:1000500025040000290400002D04000031040000E4
:1000600035040000390400003D0400004104000094
:1000700045040000490400004D0400005104000044
:1000800055040000590400005D04000061040000F4
:1000900065040000690400006D04000071040000A4
:1000A00075040000790400007D0400008104000054
:1000B00085040000890400008D0400009104000004
:0402FC00FFFFFFFF02
:1003000010B5064C2378002B07D1054B002B02D0EB
:10031000044800E000BF0123237010BD70000010EE
:1003200000000000E82C0000044B10B5002B03D0A7
:100330000349044800E000BF10BDC04600000000B3
:1003400074000010E82C0000402292029A1A924693
:100350007047C046174B002B00D1134B9D46FFF74B
:10036000F3FF00218B460F461348144A121A02F07D
:10037000B2F90E4B002B00D098470D4B002B00D04C
:1003800098470020002104000D000D48002802D0ED
:100390000C4800E000BF02F05DF92000290000F0E9
:1003A000CBFC02F041F9C04600000800000000004C
:1003B00000000000E01F001070000010E0000010BE
:1003C000000000000000000072B60748804707499F
:1003D000074A084B9B1A03DD043BC858D050FBDC8E
:1003E00062B6054880470000A90F0000142D0000E8
:1003F0000000001070000010550300002548004761
:10040000254800472548004725480047254800471C
:10041000254800472548004725480047254800470C
:1004200025480047254800472548004725480047FC
:1004300025480047254800472548004725480047EC
:1004400025480047254800472548004725480047DC
:1004500025480047254800472548004725480047CC
:1004600025480047254800472548004725480047BC
:1004700025480047254800472548004725480047AC
:10048000254800472548004725480047254800479C
:1004900025480047FD03000001040000050400009A
:1004A000090400000D040000150D0000FD0300000C
:1004B000FD030000FD030000D91C0000F51C000036
:1004C000111D0000FD030000FD030000FD030000FE
:1004D000FD030000FD030000FD030000FD0300001C
:1004E000FD030000FD030000FD030000FD0300000C
:1004F000FD030000FD030000FD030000FD030000FC
:10050000FD030000FD030000FD030000FD030000EB
:10051000FD030000FD030000FD030000FD030000DB
:10052000FD030000FD030000FD0300000023C25C8A
:100530000133002AFBD1581E7047000002B47146F7
:1005400049084900095C49008E4402BC7047C04616
:10055000002243088B4274D303098B425FD3030A02
:100560008B4244D3030B8B4228D3030C8B420DD315
:10057000FF22090212BA030C8B4202D312120902A3
:1005800065D0030B8B4219D300E0090AC30B8B42E1
:1005900001D3CB03C01A5241830B8B4201D38B038F
:1005A000C01A5241430B8B4201D34B03C01A524134
:1005B000030B8B4201D30B03C01A5241C30A8B4277
:1005C00001D3CB02C01A5241830A8B4201D38B0262
:1005D000C01A5241430A8B4201D34B02C01A524106
:1005E000030A8B4201D30B02C01A5241CDD2C30978
:1005F0008B4201D3CB01C01A524183098B4201D3F4
:100600008B01C01A524143098B4201D34B01C01ADE
:10061000524103098B4201D30B01C01A5241C30856
:100620008B4201D3CB00C01A524183088B4201D3C5
:100630008B00C01A524143088B4201D34B00C01AB1
:100640005241411A00D20146524110467047FFE71D
:1006500001B5002000F0F0F802BDC0460029F7D037
:1006600076E7704703460B437FD4002243088B4252
:1006700074D303098B425FD3030A8B4244D3030B29
:100680008B4228D3030C8B420DD3FF22090212BAEE
:10069000030C8B4202D31212090265D0030B8B426A
:1006A00019D300E0090AC30B8B4201D3CB03C01A54
:1006B0005241830B8B4201D38B03C01A5241430B2F
:1006C0008B4201D34B03C01A5241030B8B4201D31F
:1006D0000B03C01A5241C30A8B4201D3CB02C01A8A
:1006E0005241830A8B4201D38B02C01A5241430A02
:1006F0008B4201D34B02C01A5241030A8B4201D3F1
:100700000B02C01A5241CDD2C3098B4201D3CB0197
:10071000C01A524183098B4201D38B01C01A524146
:1007200043098B4201D34B01C01A524103098B424A
:1007300001D30B01C01A5241C3088B4201D3CB0035
:10074000C01A524183088B4201D38B00C01A524118
:1007500043088B4201D34B00C01A5241411A00D2C8
:1007600001465241104670475DE0CA0F00D0494231
:10077000031000D34042534000229C4603098B42A1
:100780002DD3030A8B4212D3FC22890112BA030A29
:100790008B420CD3890192118B4208D389019211AB
:1007A0008B4204D389013AD0921100E08909C30930
:1007B0008B4201D3CB01C01A524183098B4201D332
:1007C0008B01C01A524143098B4201D34B01C01A1D
:1007D000524103098B4201D30B01C01A5241C30895
:1007E0008B4201D3CB00C01A524183088B4201D304
:1007F0008B00C01A5241D9D243088B4201D34B001F
:10080000C01A5241411A00D20146634652415B1060
:10081000104601D34042002B00D549427047634641
:100820005B1000D3404201B5002000F005F802BD86
:100830000029F8D016E770477047C046002B15D145
:10084000002A13D1002906DB01DC002806D0002095
:10085000C043410802E080210906002007B4024895
:1008600001A14018029003BDD1FFFFFF03B4684609
:1008700001B5029800F020F9019B9E4602B00CBC25
:100880007047C046002B11D1002A0FD1002900D19A
:10089000002802D00021C943080007B4024802A181
:1008A0004018029003BDC04691FFFFFF03B46846A5
:1008B00001B5029800F034F8019B9E4602B00CBCD2
:1008C0007047C046F0B5CE46474680B5070099460A
:1008D0003B0C9C4613041B0C1D000E0061460004DB
:1008E000140C000C45434B4360436143C0182C0C6F
:1008F00020188C46834203D980235B029846C44467
:10090000494679437243030C63442D042D0CC918E6
:10091000000440198918C0BCB946B046F0BDC046B5
:10092000F0B557464E464546DE46E0B504000D009C
:100930009246994683B08B4230D82DD049465046D6
:1009400000F0D8F829000600200000F0D3F8331A90
:100950009846203B9B4633D45A46534693404246E2
:100960001F00534693401E00AF423AD8AF4200D119
:1009700078E05B46A41BBD41002B00DA75E0002245
:1009800000230092019301235A46934001930123CF
:1009900042469340009328E08242CFD900220023B0
:1009A000009201930C9B002B01D01C605D600098AD
:1009B000019903B0F0BCBB46B246A946A046F0BDC3
:1009C000424620239B1A5246DA40414613004A46CB
:1009D0008A40170042461F43534693401E00AF42D1
:1009E000C4D900220023009201934346002BD9D0A2
:1009F000FB0772081A4346467B080EE0AB4201D162
:100A0000A2420CD8A41A9D41012024196D41002155
:100A1000013E24184D41002E06D0AB42EED9013ED6
:100A200024196D41002EF8D1009801995B460019F8
:100A30006941002B24DB2B005A464446D3402A0050
:100A4000E2401C005B461500002B2ADB26009E407E
:100A5000330026004746BE403200801A994100907C
:100A600001919FE7A342BCD883E74246202300219F
:100A70009B1A0022009101920122DA40019286E73E
:100A8000424620239B1A2A0046469A402300F34000
:100A9000444613432A00E2401C005B461500002B2D
:100AA000D4DA42462F002023260097409B1ADE40CE
:100AB0003B003343CDE7C046F8B5CE46474680B548
:100AC0009146984604000D0000F020F807000E0043
:100AD00002000B0048464146FFF7F4FE241A8D4100
:100AE000089B380031001C605D60C0BCB946B04650
:100AF000F8BDC04610B5002903D100F0EDF8203054
:100B000002E0080000F0E8F810BDC046F0B5574616
:100B10004E464546DE46E0B50F00190000230600AC
:100B20009846100083B0002F07DA33003C000027FE
:100B30005E42A74101235B429846002907DA4346FB
:100B4000DB430C009846030000215842A1413400C9
:100B50003D0082468946B9426AD867D04946504628
:100B6000FFF7C8FF834639003000FFF7C3FF5B463D
:100B70001B1A9C46203B9B466BD4584651468140ED
:100B800060460B00514681400A00BB4200D972E02A
:100B9000BB4200D179E034003D005946A41A9D4182
:100BA000002900DA74E00021002001260090019164
:100BB00059468E400196614601268E406146009658
:100BC00000295FD0D90756080E435F08614601220D
:100BD00000230CE0AF4201D1A6420AD8A41BBD41BC
:100BE00024196D410139A4185D41002906D0AF4296
:100BF000F0D9013924196D410029F8D100980199E3
:100C00005B4600196941002B4DDB2E002C00DE40B5
:100C10006346DC405B46002B55DB34009C402300E0
:100C20006446A6403200801A994103E0B04295D94B
:100C3000002000214346002B04D003000C000021BB
:100C40005842A14103B0F0BCBB46B246A946A046FB
:100C5000F0BD624648462023514690409B1AD94039
:100C600003000091009960460B43514681400A0001
:100C7000BB4200D88CE70021002000900191614622
:100C800000299FD100980199D4E7B142F3D882E7B7
:100C9000614620260127761A00200021F7400090A7
:100CA0000191019787E7624620239B1A2A009A4008
:100CB000260013006246D6402C001E436346DC40EB
:100CC0005B46002BA9DA62462023350094409B1A2C
:100CD000DD4023002B43A3E71C2101231B04984282
:100CE00001D3000C10391B0A984201D3000A0839BD
:100CF0001B09984201D30009043902A2105C401874
:100D00007047C04604030202010101010000000017
:100D100000000000034B1A68002A02D01A68013A4A
:100D20001A60704790000010024B18601A68002A81
:100D3000FCD1704790000010A02070B50021000683
:100D400000F086F9A020102200211C4B000600F0C4
:100D50008BF9A0200C220021194B000600F084F929
:100D600000F0D8F800F082F8FA21164B89001868D4
:100D7000FFF7EEFB802301385B0498421BD2C021B1
:100D8000114A090650601148A024036A80251B02FD
:100D90001B0A0B430362002393600733136024068E
:100DA0006D026420FFF7C0FF237BDAB2002B03D073
:100DB00001236355F5E7FEE76255F2E704000010F2
:100DC0008C0000100800001010E000E000ED00E0D2
:100DD000802310B501240A4ADB01D16F03200B43A5
:100DE000D367084B1C6000F03FFC00F05DFA9621D1
:100DF000030022008901002001F038F810BDC04630
:100E000004800440948004408E23F7B5012502211C
:100E10000027114C9B00E258104EAA43E250E258C2
:100E200068468A43E250E2581E318A43E2500C4B36
:100E30001F606B4600961F7100F0D6FA380000F074
:100E4000C1FBFF22074B1F60A36F93431D43064B5B
:100E5000A5671E60F7BDC04600800440001BB700B8
:100E600040800440E08004400800001010B5FFF707
:100E7000CBFF10BD8E23F7B5012502210027114CB1
:100E80009B00E258104EAA43E250E25868468A435B
:100E9000E250E2581E318A43E2500C4B1F606B4611
:100EA00000961F7100F0A0FAC020800000F08AFBBD
:100EB000FF22074B1F60A36F93431D43054BA5679C
:100EC0001E60F7BD0080044000366E014080044083
:100ED000E08004400800001007B580220B4BD202CE
:100EE000D96FA0200A43DA674022D96F00060A436F
:100EF000DA6700216A460123517113710C2201AB9C
:100F000000F0B2F83022024B9A6007BD0480044022
:100F10000040044010B5FFF7DFFF10BD70B51D4C59
:100F20000020636ADB051B0F013B0E2B02D81A4A17
:100F30009B0098580322616A266F184D1640022EB6
:100F40000CD0964217D0012E02D0154B2B600CE02E
:100F5000236C1340032BF8D10023F7E71F2319401C
:100F600001314900FFF7F4FA28602868A16FFFF704
:100F7000EFFA286070BD1F23A2681A40236C01326B
:100F80003340033B591E8B4105495B420B405343A1
:100F9000DCE7C046008004408C2B000008000010F5
:100FA000001BB7007047000010B5044A044B9A605C
:100FB000044B054A1A60FFF7F5FF10BD0000000062
:100FC00000ED00E008000010001BB700431E70B5E4
:100FD0005B184D420C002B40984201D9002070BD97
:100FE00005225242521A9A42F8D3081DC01801F045
:100FF00055FB031EF2D0E01CC01828400249021F16
:10100000C31A11805380EAE739300000031F054AF4
:10101000198810B5914203D15B88C01A01F048FBD2
:1010200010BDC046393000000A0010B500280BD0B2
:1010300000231900FFF746FC0023044AFFF722FCB7
:10104000001C01380028FCD110BDC04600093D003D
:101050004023044A10B5D16F0A200B43D36700F038
:1010600003FB10BD0480044070B54024104DEE6FAA
:101070003443EC6701249440220080241E788D00C4
:10108000A401002E04D1401903599343035170BDAC
:101090005B78002B09D18A231B01C91889000A50EB
:1010A000401903591A430251F1E78823F4E7C04677
:1010B00004800440EFF3108172B60720064A1368DB
:1010C00083431360054A033813698343136130BFB8
:1010D00081F310887047C0460000024000ED00E038
:1010E00010B5EFF3108172B607220C4C23689343BE
:1010F0001A00012313438C222360094C9200A35849
:1011000083430420A350074B1A6902431A6130BF7E
:101110001A6982431A6181F3108810BD00000240F1
:101120000080044000ED00E010B5EFF3108172B6CE
:1011300007220C4C236893431A00022313438C228A
:101140002360094C9200A35883430420A350074B0B
:101150001A6902431A6130BF1A6982431A6181F326
:10116000108810BD000002400080044000ED00E047
:10117000EFF3108172B60F220948036893431A00F7
:101180000323134303600420064B1A6902431A61C8
:1011900030BF1A6982431A6181F310887047C046D4
:1011A0000000024000ED00E030B50D4A172811D9CB
:1011B000050001238121183DAB4089005458234389
:1011C0005350002805DB1F2318401E3B8340054A6F
:1011D000136030BD85210123890083405458EEE718
:1011E0000080044000E100E0020010B50E4B8032A8
:1011F00008D18124A4001A591838012181408A435A
:101200001A5110BD002809DB1F21012201408A402C
:101210000649CA67BFF34F8FBFF36F8F1728E8D80F
:101220008524A4001A59E8E70080044004E100E0A6
:1012300003688B43036003680B4303600368194230
:10124000FCD0704700487047001BB7008E23044A4B
:101250009B00D35800209B0601D4024B18687047AE
:1012600000800440940000100B4B10B5186C032351
:101270001840012809D098420AD0431E9841074BD4
:1012800040421840064BC01810BDFFF7DFFFFBE7D8
:10129000044B1868F8E7C0460080044000E548FFAA
:1012A000001BB7009400001010B50D4C0020236FF8
:1012B000032B05D81800FFF741F90204070A094873
:1012C00010BDFFF7D1FFFBE7074B1868F8E7FFF702
:1012D000CBFF1F22A368134001335843F0E7C046F9
:1012E00000800440001BB700980000100F4B10B5A1
:1012F0001C680F4B00201B68E4B2032B05D81800B4
:10130000FFF71CF9020B0E110A48002C03D0210034
:10131000FFF71EF90400200010BDFFF797FFF4E768
:10132000054B1868F1E7FFF7BFFFEEE7E8800440E0
:10133000E0800440001BB7009800001010B5FFF7D4
:10134000B3FF0A4B04001B68FF2218001040134231
:101350000BD0074B210E1B6824021A400132FF32CA
:10136000424300232000FFF78DFA10BD9480044013
:10137000F480044010B5FFF7E1FF10BD10B5FFF792
:10138000DDFF10BD10B5FFF7D9FF10BD10B5072860
:1013900005D8FFF7D3F8060E041F11160414002019
:1013A00010BDFFF781FF0C4B996FC9B2FFF7D0F862
:1013B000F6E7FFF779FFF3E7084B1868F0E7084B0B
:1013C000FBE7FFF751FF1F22034B9B6813400133DC
:1013D0005843E5E70348E3E7008004409400001029
:1013E00098000010001BB7008E22802370B51F4CA0
:1013F0009200A15806000B430321A350236C226CDA
:101400008B43134302791A4813432364FFF710FFF9
:10141000FFF72AFF3668010005003000FFF798F853
:10142000144A0023964208D8134A0133964204D83E
:101430000023124AB2425B4102331F26A168421EBA
:1014400032406036B1430A435B0113438E22802150
:10145000A3609200A3588B43A3500123E2681A4271
:10146000FCD06843064B186070BDC0460080044045
:1014700044800440802FA604C0175302E08B29014A
:101480009C0000101821074A10B5D36A064C8B4304
:10149000D362E022054952008B5823408B50044B05
:1014A000186010BD00400440FFFDFFFF00C0004079
:1014B000940000101821104A10B5936B04008B4360
:1014C0009363E02240200D4952008B5883438B5098
:1014D0000B4BC03A196AFF3A0A438E211A628900FF
:1014E0005A5820388243DA305A5040000549FFF7F5
:1014F0009BFD054B1C6010BD0040044000C0004037
:101500000080044080C3C901940000101821164BCC
:1015100010B55A6B04008A435A639A6BC0208A4301
:101520009A63E022114952008B5883438B50104933
:10153000BE3A0B6AFF3A93430E4A086AA2429241AE
:1015400052425200034313438E2220200B6292002A
:101550008B588343D5308B50FF300749FFF764FD2C
:10156000064B1C6010BDC0460040044000C0004057
:1015700000800440C0E1E40080C3C9019400001071
:1015800070B5F0250D4CC30C626A6D00520A2B40F9
:1015900052021A43C23D4B08FF3D013B2B4013430F
:1015A0008E2263629200A3582135AB430002A35000
:1015B000000AFEF7CDFF024B186070BD00800440AA
:1015C0009800001010B503240949020A0B6F23404C
:1015D0009A420BD0C0B2002808D10B6F2240A3431F
:1015E00013430B6703480121FFF722FE10BDC046DD
:1015F0000080044074800440F8B50400FFF754FEF6
:10160000124B060018684443211E1CD00021A6423C
:1016100019D321003000FEF79BFF0021012812D8CA
:101620000B0022000D003400FF27A41A9D4108483A
:1016300029020760200E01432002FFF723F9012150
:10164000044B07401F600800F8BDC046948004406A
:10165000F0800440F480044010B501210148FFF7F8
:10166000E7FD10BDE480044001228240034B59682D
:101670009143596059680A435A607047008004409A
:10168000032310B5FF240B40DB009C409A408908DF
:10169000890041180868A04302430A6010BD002A6F
:1016A00007D0002904DBE022520083588B4383508B
:1016B00070470029FCDBE0235B00C2581143C15096
:1016C000F6E7890093B24018120D82181360704734
:1016D000074A03000020934208D0064A0130934293
:1016E00004D0054A9818431E984102307047C046FE
:1016F00000400640008006400040F9BF30B5448CF1
:10170000018C0300A5B28AB2081B8C4202D9D869A9
:101710001018401B30BD0000F0B50B6905000C002F
:10172000012685B0002B02D18E69731E9E4163682D
:101730000293AB6801936B69019A039380235B006A
:101740001A420AD0AA68676A1343AB60002F04D01C
:1017500021002800A36A3E4AB847002E24D0019BEE
:10176000DB0721D56B461E7B2369002B3DD0E36848
:101770001E702369013B2361E3680133E360236941
:10178000002B11D1A369002B02D10223FF332B615F
:10179000230002222D331A70666A002E04D0210025
:1017A0002800A36A2B4AB047029B002B1BD00422BF
:1017B000019B134217D023681B78EB616368013BE0
:1017C00063602368013323606368002B0BD12A61B7
:1017D00022002C321370666A002E04D021002800EB
:1017E000A36A1D4AB04705B0F0BDA369002BDBD04A
:1017F0002000FFF783FFE369013B984207D1676A46
:10180000002F04D021002800A36A144AB847200002
:10181000FFF774FFE269531E984205D1638C0133D0
:1018200093420CD100236384238CA269D654238C69
:10183000E2690133934206D100232384B4E7638C29
:1018400001339BB2EFE7238C01339BB2F5E7C0462F
:101850004916000047160000461600004A16000010
:10186000CB6100230B844B840223FF338A61C36066
:1018700070470B002D331B78022B02D10223FF335C
:10188000036100230B848B61CB614B8470470000A4
:10189000082310B582681A42FCD001240368A343D0
:1018A0000360FFF715FF0449044A095CD36F8C40BD
:1018B000A343D36710BDC046C82B0000048004407A
:1018C00010B510220021040000F005FF96238022AD
:1018D0009B012360002352046360A260A38110BDBA
:1018E000F0B5036805000C00160087B01B0507D58E
:1018F0001000FEF72DFE01382862002007B0F0BD71
:101900000A23534305930B01009301230F275B42E6
:10191000019310330493103B03937B1C00990598AB
:101920000293FEF715FEA02305381B03984215D23B
:101930000A21FEF70DFE7B1C411C4B43029019004F
:101940003000FEF705FE231A844200D2031B039ADF
:10195000934203D2029A049701920393009B013FA2
:101960001B1B0093072FD8D18023019A5B029A4258
:1019700003D2049BAB622A62BFE70148BEE7C046C0
:101980004F160000F8B501260D0004001700FFF700
:101990009FFE3200354BD96F9C46354B1B5C9A40FD
:1019A000130062460B43D367324B185CFFF75CFEB3
:1019B0008020AB79297A2A7B4902DB030B430001A3
:1019C0009102014030200B43697A920309010140E2
:1019D0000B43A97A1030890101400B43E97A34386E
:1019E000890001400B438021C9010A4013436A7BEF
:1019F0008021824049010A40134329683343236010
:101A0000002906D1EB79002B0BD163681A4A1340E9
:101A10000BE03A002000FFF763FF0028F2D01748E0
:101A200017E0802362685B00134363606B79002BCF
:101A300010D001232268134340222360636893433C
:101A400063602879002809D001230020226813430D
:101A50002360F8BD402362681343F1E763685B06C7
:101A6000F7D50122236893432360F2E70480044002
:101A7000C82B0000CE2B0000FFFEFFFF4F1600001A
:101A8000042310B58A18914205D1082382681A42AE
:101A9000FCD0002010BD84681C42FCD00C780131C1
:101AA000C461F0E7F7B58B18019380238026802767
:101AB0009B01040001259C467600FF01019B994291
:101AC00001D10020FEBDA3682B42FCD0A268A36810
:101AD0001343A360324214D113003B4058424341A8
:101AE0000A485B4218400A4BC01863461A4200D0AD
:101AF0000848130407D40028E4D163690B7001314E
:101B0000DCE70548DEE70548DCE7C046B3E9FFFF50
:101B10004D1600004C1600004E1600004B1600003B
:101B2000F8B50C001E001700FFF7D2FD30220500AB
:101B30000021200000F0CFFD230002222D331A7077
:101B40000022013B1A700A4BAA00D450094B0A4AE2
:101B500067621A60094BA6625B57002B06DB1F22E7
:101B600013401E3A9A401300054A13600020F8BD46
:101B7000A0000010AC00001019170000CB2B0000D3
:101B800000E100E00B0010B52C331C78012C0ED0C6
:101B9000146852680C608A604A6001221A7004233B
:101BA000C36043683F3293434360002010BD014847
:101BB000FCE7C046441600000423036142683C333E
:101BC0001343436000234B602C310B7070470B00B4
:101BD0002C331B780620002B04D048688B681B1A16
:101BE0000020136070470000F7B501930B000090D0
:101BF0002D3316001A780C00032A4FD08F697568B0
:101C0000002F40D0012303610800FFF777FD071E76
:101C100007D0A84200D92F0000239C46ED1BBB42F1
:101C20001ED1002D09D033680322DB19E3607368ED
:101C30002561636123002D331A700123009AD3605C
:101C4000002D07D1656A002D04D02100A36A144A33
:101C50000098A8470198002801D007600020FEBD29
:101C6000608CA269591C105C3268D054638CE269A4
:101C70000133934203D1634663840B00CFE7638C47
:101C800001339BB2F8E732684D61CA6003220D61EF
:101C90001A700223009AFF33D360DBE70148DEE7C6
:101CA00047160000451600008B69002B02D1022365
:101CB000FF33036100230B612D3102330B7070473A
:101CC0000B002D331B780620022B04D008694B69CA
:101CD0001B1A00201360704710B5034B034A1B68A2
:101CE00011680348984710BDAC000010A000001018
:101CF0000040064010B5034B034A1B685168034877
:101D0000984710BDAC000010A000001000800640F5
:101D100010B5034B034A1B6891680348984710BDF0
:101D2000AC000010A000001000C0064030B50C0050
:101D300085B005006846FFF7C3FD63680093237A0A
:101D4000022B1FD16A465372637A1148013B5A42F3
:101D500053416A469372A37A69465A1E93416A4672
:101D60001371E37A5A1E93416A465371A37B22682A
:101D70009B001858FFF706FE002807D1A37B2B70A5
:101D800005B030BD032BDDD00023DBE70148F7E7CA
:101D9000D42B0000AF2F000010B50378034A9B003E
:101DA0009858FFF775FD002010BDC046D42B0000E9
:101DB000037807489B00185810B5FFF773FE43429D
:101DC0005841044B40421840034BC01810BDC04658
:101DD000D42B000051D0FFFFAF2F000010B50378C7
:101DE00003489B001858FFF74BFE002010BDC0466B
:101DF000D42B0000002070470020704707B50190E9
:101E00000648037C002B05D00122836801A998476E
:101E100001200EBD01204042FBE7C046B00000108B
:101E2000F7B51500002202700F680400974203D135
:101E3000302343700120FEBD6122002B00D0203AE8
:101E400001260A3A019238002900FEF707FC019B9F
:101E50003A005B180700092901D80B003033300025
:101E6000A35501369542EED9E5E7000070B50600AE
:101E700001200C0086B0824213D1029400240A4D46
:101E800001A90193094B28748C81280003938E7358
:101E9000CC730C74FFF74AFF2000054BAB60054B79
:101EA000EB6006B070BDC046B0000010000001013C
:101EB000DD1D0000B11D000010B5054C237C002B7A
:101EC00004D02000FFF768FF00232374002010BD1A
:101ED000B0000010F0B57F4B93B001901B7C0E005A
:101EE000002B00D1F0E00027079704970097029796
:101EF000019B1878002800D1E8E0252852D0013352
:101F000001930137FFF77AFFF2E70A200399019363
:101F10004143303952180392019A019B52780133A0
:101F2000110030390929F0D92E2A05D101935A78A8
:101F30000133303A092AF9D9019B5D78642D34D0F8
:101F4000692D32D020232A009A43462A3AD0582AB3
:101F500038D02B00623BDBB2132B00D9AEE05E4AD7
:101F6000DA40D3077ED50123340005936F2D4CD082
:101F7000622D4AD0702D3FD0752D46D0029D009E17
:101F8000039BB3425CDC039A009900238A4200DB86
:101F9000531AFF180295002D5CD1019B26000233D5
:101FA0000193A5E700230393B6E708CE0A22069320
:101FB00006A9012309A8FFF733FF844609AB634450
:101FC00000900293582D15D001233400059300236F
:101FD000782DCBD13400059308CC1022079307A9A4
:101FE000059B09A8FFF71CFF844609AB63440090DA
:101FF0000293BBE70123EDE708CC042208A907A858
:10200000089300F05FFB102316E008CC07936F2DB8
:1020100014D00CD80223622D0ED0059B049A07A978
:1020200009A8FFF7FDFE09AB00901D18A7E7702D6A
:10203000E9D00A23752DF0D10493EEE70823FBE7DE
:102040002020FFF7DBFE01369AE7029B013B02935B
:10205000FFF7D4FE029AEB1910789B1A0028F4D1EE
:102060001F009AE7632D05D1340001CCFFF7C6FEAF
:10207000013792E7732D21D1340020CC002D8CD074
:102080002800FEF753FA06000090039BB34210DCD1
:10209000009A039900238A4200DC8B1ADF193E0064
:1020A000AB1BD85D002800D177E7FFF7A7FE01370B
:1020B000F6E72020FFF7A2FE0136E6E72800FFF74B
:1020C0009DFE3400013768E701277F42380013B0D6
:1020D000F0BDC046B0000010016008000FB407B5A5
:1020E00004A901C90191FFF7F5FE03B008BC04B0D3
:1020F0001847000013B50848037C002B02D10120CB
:10210000404216BD6B46DC1D01222100C368984782
:102110000028F4D12078F4E7B00000100FB430B5F7
:10212000154B89B01B7C002B22D000240DAB0193F2
:1021300002AD2C70FFF7DEFFC0B228550D2801D08C
:102140000A2805D1002CF4D000232C19637004E078
:102150000134142CEED100232B752800019A0C9920
:1021600000F034F9C0B209B030BC08BC04B0184764
:1021700001204042F7E7C046B00000100A4A0300C1
:10218000116810B5002901D108491160106808498B
:10219000C3188B4206D900F041FA0C2303600120DA
:1021A000404210BD1360FCE7C4000010E0000010C6
:1021B000E004001003000120202B05D000200422A1
:1021C000093BDBB29A424041704770B50025036875
:1021D00004001878FFF7EEFF012801D0280070BD39
:1021E000236801355A1C22605878F3E7F7B51500CB
:1021F000002202700F680400974203D1302343701D
:102200000120FEBD6122002B00D0203A01260A3AAF
:10221000019238002900FEF721FA019B3A005B1871
:102220000700092901D80B0030333000A3550136CF
:102230009542EED9E5E7F0B51F0000230600150032
:102240000C0091B0039305933278002A00D1B9E0D5
:10225000252A3CD00123280003A90136B847F3E71B
:102260000A201600009B4343303BCB180093717843
:10227000721C0B00303B092BF2D92E2905D1160018
:1022800053780132303B092BF9D933005A780421B5
:10229000130001968B430136682BF6D0642A01D0D7
:1022A000692A1AD123680A22049304A9012307A8E2
:1022B000FFF79CFF202207AB1E18009B1B1A28006B
:1022C00003A9B8473278002A04D104340EE0002371
:1022D0000093CCE70123013EF1E7130020218B435B
:1022E000462B06D107343F3B9C430834019E0236FF
:1022F000AAE7582B18D12368783A0593531E9A41C0
:1023000005A9D3B207A81022FFF770FF202207AB60
:102310001E18009B1B1A280003A9B8473278002A10
:10232000D3D00123013EF6E76F2A0CD108CC082157
:1023300005936F2A1ED00639622A1BD00E31702AEF
:1023400018D0063916E0622AF0D0702A0AD0752A11
:10235000ECD0632A22D104CCD2B20123280003A9F5
:10236000B847C3E708CC06A9042205A8069300F0E5
:10237000A9F910210A00012305A907A8FFF736FFD4
:10238000202207AB1E18009B1B1A280003A9B84780
:102390003278002AAAD00123013EF6E7732ADCD165
:1023A00040CC002EA2D03000FEF7C0F82022009BC7
:1023B0001B1A280003A9B8473278002A96D00123B7
:1023C0000136F6E7039811B0F0BD0000F0B50378D0
:1023D0008BB0029204910590002B00D118E10023EC
:1023E000019307E004A8FFF7F0FE041E0DD005A836
:1023F000FFF7EBFE049B1B78002B03D0059B1B789B
:10240000002BEFD101980BB0F0BD049B1A785F1C34
:10241000252A22D15A78252A1FD063230600049743
:1024200000933D78002D06D07C23234003937C232A
:102430001C421DD000250497012DE3D07C272740A6
:10244000042F66D1029A009908CAC818984259D137
:10245000019B029201330193CCE7059A049710780F
:1024600059788842CED10132023305920493C1E7F4
:102470002B00303B092B16D800F0D0F8039B0A2222
:10248000036007A9380000F0BDFA009000F0C6F81C
:1024900003685A425341009A5B421A40079B0092DC
:1024A0005F1E0137BDE7642D03D15B4B0A261C4339
:1024B000F7E7752D01D12023F8E76F2D03D12023F5
:1024C00008261C43EDE7782D03D1202310261C435A
:1024D000E7E7582DF9D0692D03D12023039E1C4333
:1024E000DFE7632D07D104231C43009B632BD8D166
:1024F000623B0093D5E7732D02D108231C43D0E73C
:10250000012598E705994C1C059409781970013349
:102510009CE7082F1DD105A8FFF757FE029D009BE1
:1025200010CD1F19A74207D0059E3078002803D090
:10253000FFF740FE002806D000232370019B029580
:102540000133019356E7731C0593337823700134EC
:10255000E8E7202F00D055E705A8FFF736FE0598DD
:102560000378002E3CD10A36302B39D1427806361A
:10257000BA43582A00D0083E012203922D2B02D1E3
:1025800015002E3B0393009B401905905D1BFDF742
:10259000CDFF07AF854228D200250B2205993800D0
:1025A00000F090F8FD7200F039F83200056006A9DD
:1025B000380000F027FA050000F030F80368002B1F
:1025C00000D01FE7069BDF1B059BDF190597039BC8
:1025D000029A5D4308CA02921D60019B0133FFE627
:1025E0002B2BC9D101250395CDE700F017F8002367
:1025F000320003603900059800F004FA050000F08D
:102600000DF80368002B00D0FCE6079B0593DEE77E
:1026100001204042F7E6C04620200000014B186828
:102620007047C0460C000010084B10B50400002B8A
:1026300002D0002100E000BF054B1868836A002B20
:1026400000D09847200000F079FAC0460000000052
:10265000E02B000070B500260C4D0D4C641BA4103F
:10266000A64209D1002600F041FB0A4D0A4C641B2A
:10267000A410A64205D170BDB300EB5898470136AF
:10268000EEE7B300EB5898470136F2E70C2D000057
:102690000C2D00000C2D0000102D000010B5034B78
:1026A0000100186800F08CF810BDC0460C00001046
:1026B00010B5034B0100186800F016F810BDC046B5
:1026C0000C000010002310B59A4200D110BDCC5C64
:1026D000C4540133F8E703008218934200D17047D5
:1026E00019700133F9E7000070B50500002910D01A
:1026F0000C1F2368002B00DAE418280000F08EF984
:102700001D4A1368002B05D163601460280000F097
:102710008DF970BDA34208D9216860188342F3D1B6
:1027200018685B6841182160EEE71A005B68002BAF
:1027300001D0A342F9D911685018A0420BD12068EA
:102740000918501811608342E0D118685B6841187D
:1027500011605360DAE7A04202D90C232B60D5E761
:1027600021686018834203D118685B6841182160B2
:1027700063605460CAE7C046C800001070B50F4ED1
:102780000D0031680400002902D100F08FF830609C
:102790002900200000F08AF8431C0AD00323C51C3E
:1027A0009D43A84207D0291A200000F07FF8431C5F
:1027B00001D101256D42280070BDC046CC0000103B
:1027C000F7B50322CB1C9343083306001F000C2BE4
:1027D00032D20C27B94231D8300000F01FF9324D07
:1027E0002B681C00002C2ED139003000FFF7C6FFEB
:1027F0000400431C1ED12C682500002D4AD12368FB
:102800002900E3183000019300F050F8019B834247
:1028100043D123680337FF1A03239F4308370C2F44
:1028200000D20C2739003000FFF7A8FF431C34D03A
:102830002368DF19276013E0002BCBDA0C23002577
:1028400033602800FEBD2268D11B20D40B2917D984
:10285000E2192760A34211D12A60636811605360B6
:102860003000250000F0E2F807220B35231D9543C8
:10287000EA1A9D42E5D05B1BA350E2E75A60ECE701
:102880006268A34201D12A60EAE75A60E8E72300C0
:102890006468A7E72C006D68AFE70C233000336055
:1028A00000F0C4F8CDE7C046C8000010002370B5A2
:1028B000064D040008002B60FFF760FC431C03D1A9
:1028C0002B68002B00D0236070BDC046D0000010E4
:1028D000F0B587B00292424A1E0001910B00944667
:1028E000082105901A00604614780133005D1D0030
:1028F00007000F400842F5D12D2C3AD101271C7852
:10290000951C002E67D0102E09D1302C07D1202223
:102910002B789343582B59D110266C78023501201F
:1029200031004042FDF714FE039001203100404287
:10293000FDF794FE002304910121012218008C462A
:10294000524221003039092918D80C00A64223DD53
:10295000002B1FDB03991300814207D303D1049995
:102960001300A14202DB6346704320182C78013526
:10297000E7E72B2CC5D11C78951CC2E72100413913
:10298000192901D8373CE1E721006139192903D819
:10299000573CDBE71300E9E7002B09DA222301208B
:1029A000059A40421360029B002B09D107B0F0BD8D
:1029B000002F00D04042029A002AF7D0002B01D00D
:1029C0006B1E0193029B019A1A60EFE73024002EE0
:1029D000A5D10836A3E7302C99D00A269FE7C04638
:1029E000E52B000010B5FFF773FF10BD10B5130005
:1029F0000A00010002480068FFF76AFF10BDC046E8
:102A00000C00001010B513000A0001000248006815
:102A1000FFF75EFF10BDC0460C00001010B5024865
:102A200000F085F810BDC046D900001010B502486E
:102A300000F083F810BDC046D900001070B50D003D
:102A400009680400002901D0FFF7F8FF29002000E1
:102A5000FFF74AFE70BD0000314B70B51B680400E3
:102A6000834249D0436A002B0AD00025DB68AB4281
:102A700047D1636A1968002902D02000FFF734FEAD
:102A80006169002902D02000FFF72EFE616A00294B
:102A900002D02000FFF728FEA16B002902D0200001
:102AA000FFF722FEE16B002902D02000FFF71CFE99
:102AB000216C002902D02000FFF716FEE16D0029ED
:102AC00002D02000FFF710FEA16D002902D02000E7
:102AD000FFF70AFE616B002902D02000FFF704FE19
:102AE000A369002B08D02000A36A9847A16C002995
:102AF00002D02000FFF7A2FF70BD4959002908D17C
:102B00000435636AD968802DF7D12000FFF7ECFD0A
:102B1000AFE70E682000FFF7E7FD3100EEE7C046A3
:102B20000C0000107047704770477047704770473F
:102B3000012070470120704770477047FEE7C0468C
:102B40003B3E0B3E103E253E333E033E063E143ECA
:102B50000E3E0D3E243E123E273E023E183E093EEA
:102B60000A3E00003B3E0B3E103E253E333E033EF8
:102B7000063E143E0E3E0D3E243E123E273E023ED1
:102B8000183E093E0A3E000000000000C027090070
:102B900090051000C05C1500F0B31A00200B200057
:102BA000009F2400E0322900C0C62D00509731005C
:102BB000E06735007038390000093D0040164000DC
:102BC00080234300C03046000E0F100304050304A9
:102BD00005000000004006400080064000C006409E
:102BE0001000001000202020202020202020282855
:102BF00028282820202020202020202020202020BD
:102C000020202020208810101010101010101010FC
:102C1000101010101004040404040404040404102C
:102C200010101010101041414141414101010101BA
:102C30000101010101010101010101010101010184
:102C40001010101010104242424242420202020290
:102C50000202020202020202020202020202020254
:102C60001010101020000000000000000000000004
:102C70000000000000000000000000000000000054
:102C80000000000000000000000000000000000044
:102C90000000000000000000000000000000000034
:102CA0000000000000000000000000000000000024
:102CB0000000000000000000000000000000000014
:102CC0000000000000000000000000000000000004
:102CD00000000000000000000000000000000000F4
:102CE000000000000000000000000000F8B5C04631
:102CF000F8BC08BC9E467047F8B5C046F8BC08BC96
:042D00009E46704734
:082D040044D6FF7F010000002E
:042D0C002903000097
:042D100001030000BB
:102D14000000000001000000001BB70010000010BC
:102D2400000000000000000000000000000000009F
:102D3400000000000000000000000000000000008F
:102D4400000000000000000000000000000000007F
:102D5400000000000000000000000000000000006F
:102D6400000000000000000000000000000000005F
:102D7400000000000000000000000000000000004F
:04000003000003C92D
:00000001FF
