:10000000E01F0010D90300001104000015040000D7
:1000100000000000000000000000000000000000E0
:1000200000000000000000000000000019040000B3
:1000300000000000000000001D040000210400007A
:1000400025040000290400002D04000031040000F4
:1000500035040000390400003D04000041040000A4
:1000600045040000490400004D0400005104000054
:1000700055040000590400005D0400006104000004
:1000800065040000690400006D04000071040000B4
:1000900075040000790400007D0400008104000064
:1000A00085040000890400008D0400009104000014
:1000B00095040000990400009D040000A1040000C4
:0402FC00FFFFFFFF02
:1003000010B5064C2378002B07D1054B002B02D0EB
:10031000044800E000BF0123237010BD74000010EA
:10032000000000007C34000008B5084B002B03D00F
:100330000748084900E000BF07480368002B00D1C8
:1003400008BD064B002BFBD09847F9E700000000E2
:100350007C340000780000107000001000000000E5
:10036000164B002B00D1144B9D46402292029A1A44
:10037000924600218B460F461348144A121A02F087
:10038000BAFD0F4B002B00D098470E4B002B00D02E
:1003900098470020002104000D000D48002802D0DD
:1003A0000C4800E000BF02F063FD2000290000F0CF
:1003B000FFFB02F047FDC04600000800E01F0010F0
:1003C0000000000000000000740000102801001070
:1003D000000000000000000072B60748804707498F
:1003E000074A084B9B1A03DD043BC858D050FBDC7E
:1003F00062B6054880470000050D0000A8340000E3
:100400000000001074000010610300002548004740
:10041000254800472548004725480047254800470C
:1004200025480047254800472548004725480047FC
:1004300025480047254800472548004725480047EC
:1004400025480047254800472548004725480047DC
:1004500025480047254800472548004725480047CC
:1004600025480047254800472548004725480047BC
:1004700025480047254800472548004725480047AC
:10048000254800472548004725480047254800479C
:10049000254800472548004725480047254800478C
:1004A000254800470D040000110400001504000059
:1004B000190400001D040000210400000D040000C8
:1004C0000D0400000D0400005928000075280000EC
:1004D000912800000D0400000D0400000D04000030
:1004E000F11900000D0400000D0400000D040000CF
:1004F0000D0400000D0400000D0400000D040000B8
:100500000D0400000D0400000D0400000D040000A7
:100510000D0400000D0400000D040000651D000026
:10052000951D0000C51D0000F51D0000251E0000E2
:100530000D0400000D0400000D04000002B471461B
:1005400049084900095C49008E4402BC7047C04616
:10055000002243088B4274D303098B425FD3030A02
:100560008B4244D3030B8B4228D3030C8B420DD315
:10057000FF22090212BA030C8B4202D312120902A3
:1005800065D0030B8B4219D300E0090AC30B8B42E1
:1005900001D3CB03C01A5241830B8B4201D38B038F
:1005A000C01A5241430B8B4201D34B03C01A524134
:1005B000030B8B4201D30B03C01A5241C30A8B4277
:1005C00001D3CB02C01A5241830A8B4201D38B0262
:1005D000C01A5241430A8B4201D34B02C01A524106
:1005E000030A8B4201D30B02C01A5241CDD2C30978
:1005F0008B4201D3CB01C01A524183098B4201D3F4
:100600008B01C01A524143098B4201D34B01C01ADE
:10061000524103098B4201D30B01C01A5241C30856
:100620008B4201D3CB00C01A524183088B4201D3C5
:100630008B00C01A524143088B4201D34B00C01AB1
:100640005241411A00D20146524110467047FFE71D
:1006500001B5002000F00CF802BDC0460029F7D01B
:1006600003B5FFF775FF0EBC4243891A1847C04611
:100670007047C046002B11D1002A0FD1002900D1AC
:10068000002802D00021C943081C07B4024802A177
:100690004018029003BDC046D9FFFFFF03B468466F
:1006A00001B5029800F04CF8019B9E4602B00CBCCC
:1006B0007047C046F0B54F46464605042D0C2C1C2D
:1006C000C0B41704160C3F0C9946030C7C437543C9
:1006D0005F4373437D19260CAD199C46AF4203D985
:1006E00080235B029846C4444B4651434343240451
:1006F0002E0C240C2D0466442C1959188919201C21
:100700000CBC90469946F0BDF0B583B0161C1F1C7A
:100710000090019100F02EF8041C0D1C221C2B1CD3
:10072000301C391CFFF7C6FF009A019B121A8B413F
:100730000899201C0A604B60291C03B0F0BDC0461C
:10074000F0B5141C83B01D1C0090019100F00AF953
:10075000221C2B1C061C0F1CFFF7ACFF009A019BF0
:10076000121A8B410899301C0A604B60391C03B087
:10077000F0BDC046F0B544465F4656464D46F0B41F
:100780001C1C85B0002900DAA9E00F1C0021061C02
:100790008846101C191C002C00DA97E0341C3D1C04
:1007A00082468946B94273D870D04946504600F017
:1007B00085F98346391C301C00F080F95B46181A15
:1007C000031C8346203B9C4600D59CE0002300226E
:1007D00051460092019363469940019151468140F0
:1007E000019B0091BB4200D983E000D17EE0009ADA
:1007F000019B341C3D1CA41A9D416346002B00DA6A
:100800009AE0002600270296039701369E40039641
:10081000012686400296002800D171E00099019AD5
:10082000D30799464B464E081E4357080023012222
:100830000CE0AF4201D1A6420AD8A41BBD41241945
:100840006D410138A4185D41002806D0AF42F0D9AF
:10085000013824196D410028F8D12022029E039FFF
:100860005B46524236196F4199185AD4281CC84029
:100870002C1C5B46DC40002968DB041C8C40231CDC
:1008800059468840021CB61A9F4103E0B0428CD9F9
:100890000026002741464B1E9941002300910193F9
:1008A000009A019B002554429D41331C6340181C53
:1008B0003B1C6B40191C009B019CC018614105B09A
:1008C0003CBC90469946A246AB46F0BD4346DB434E
:1008D0000C1C9846131C00215842A1415EE70027DA
:1008E00046428F4101214942884652E7B14200D831
:1008F0007DE70026002702960397002800D08DE7A9
:10090000029E039FC6E720215346091ACB400022CE
:10091000191C0023009201934B4683400B43019323
:100920005CE75A4620239B1A2A1C9A40201C131C61
:100930005A46D04018439BE720260027331A00264A
:10094000029603970127DF40039761E75B4620216A
:100950005D46C91A031CAC40CB40191C231C0B4339
:100960008EE7C046F0B545464E465746E0B4041CF7
:1009700082B00D1C914698468B4262D85FD04146AA
:10098000484600F09BF8291C061C201C00F096F835
:100990002023311A5B428A46C81865D44B468340EF
:1009A0001F1C4B468B401E1CAF4258D855D0A41B71
:1009B000BD41002800DA77E0002200230092019375
:1009C00001328240019201238B40009300293CD0E8
:1009D000FB079846404672087B0802430126002721
:1009E0000CE0AB4201D1A2420AD8A41A9D412419BD
:1009F0006D410139A4197D41002906D0AB42F0D9DF
:100A0000013924196D410029F8D12022009801995B
:100A100053465242001969419E183AD42F1CF740A0
:100A20005346DD40002E29DB3C1CB440231C5446B9
:100A3000A7403A1C801A99410090019105E082423A
:100A40009DD900230024009301940098019902B0DD
:100A50001CBC90469946A246F0BDA342A7D90022ED
:100A6000002300920193B1E720224B46521AD34053
:100A70001A1C43468B401F1C174392E75346202401
:100A80005646E41A3B1CB540E3401C1C2B1C234378
:100A9000CDE7524620239B1A2A1C9A40271C131C80
:100AA0005246D7401F43BBE720230022581A002399
:100AB000009201930132C240019284E710B50029EF
:100AC00003D100F007F8203002E0081C00F002F823
:100AD00010BDC0461C2101231B04984201D3000C09
:100AE00010391B0A984201D3000A08391B099842A1
:100AF00001D30009043902A2105C40187047C046B7
:100B000004030202010101010000000000000000D6
:100B100008B5011C014801F051FB08BDA0320000DE
:100B200038B500F073FA80210124094AC901D36F56
:100B3000051C0B43D367074B03201C6000F046FCE9
:100B4000E1212B1C4902221C002001F005FA38BDCE
:100B500004800440948004408E2373B50125022153
:100B600000260F4C9B00E2586846AA43E250E25828
:100B70008A43E2500B4B1E606B461E710A4B00937A
:100B800000F0E4FAC020800000F0D0FBFF22074B09
:100B90001E60A36F93432B43A36700F069F873BDF6
:100BA000008004404080044000879303E0800440BC
:100BB000802110B50124134AC901D36F0B43D367B9
:100BC000114B1C6000F02EF8FFF7C6FFFFF7A8FFDF
:100BD000211C0E4A0E4801F0CBFE0E4800F020FF0B
:100BE00002220D4B0B48211C00F046FF0948211C36
:100BF00001F03AF8094801F0E1FA094801F0DEFA9B
:100C000030BFFDE704800440948004400C0080174E
:100C100000800440004000A0110B0000C932000019
:100C2000F43200008022F8B50E4CD202E36F302679
:100C300013438022E367E36F0B4D0C4F1343E367CD
:100C4000381C6E640121002200F0CEFB2E61381C9E
:100C50000021042200F0C8FB8022AE60E36F9343C2
:100C6000E367F8BD048004400040044000C0004039
:100C700070B51F4D00206B6ADB051B0F013B0E2B6F
:100C800002D81C4A9B0098580322696A2B6F184EA1
:100C90001340194C022B0FD0934215D0012B09D1D0
:100CA000336C1340012B05D0002B03D0032B01D153
:100CB000002315E0114B13E01F23194001314900B7
:100CC000FFF746FC20600CE0B068326C0021134056
:100CD000032B00D009491F22031C134001334B434F
:100CE0002360A96F2068FFF733FC206070BDC04609
:100CF000008004401433000004000010001BB70003
:100D00007047000008B5044A044B9A60044A054B3A
:100D10001A60FFF7F5FF08BD0000000000ED00E0DD
:100D2000001BB7000400001038B54B1E4D421B18C5
:100D30002B40834201D2002014E005225242521A75
:100D40009342F8D8081DC0180C1C02F0B7F8031E17
:100D5000F1D003342418281C03492040021FC31A71
:100D60001180538038BDC0463930000008B5031FDC
:100D70001988044A914203D15B88C01A02F0A8F88E
:100D800008BDC0463930000008B500280FD00A1C45
:100D900000210B1CFFF78EFC054A0023FFF76AFCBD
:100DA000890780080843001C01380028FCD108BDD1
:100DB00040420F004021044A08B5D36F0A200B437C
:100DC000D36700F003FB08BD0480044070B54026E3
:100DD000134DEC6F3443EC671D788C00002D08D167
:100DE0000121802591400019AD0143598B434351A6
:100DF00014E05D7801239340002D01D18A2500E0A5
:100E000088252D01491989000B50012191400019B5
:100E100080240A1CA40103591A43025170BDC04624
:100E200004800440EFF3108372B6072006490A6875
:100E300082430A60054903380A6982430A6130BF68
:100E400083F310887047C0460000024000ED00E0C8
:100E500010B5EFF3108272B607240C490B68A34358
:100E6000063C23430B608C21094C89006358834363
:100E700004206350074B19690143196130BF196998
:100E80008143196182F3108810BDC0460000024002
:100E90000080044000ED00E010B5EFF3108272B660
:100EA00007240C490B68A343053C23430B608C21AA
:100EB000094C89006358834304206350074B196928
:100EC0000143196130BF19698143196182F31088A8
:100ED00010BDC046000002400080044000ED00E06C
:100EE000EFF3108272B60F2008490B6883430C3869
:100EF00003430B60064B013019690143196130BF90
:100F000019698143196182F310887047000002401B
:100F100000ED00E030B50E4B172807D98124051CE1
:100F20000122A400183D1959AA4004E00122852499
:100F30008240A40019590A431A51002806DB1F23D6
:100F400018401E3B8340181C024B186030BDC04641
:100F50000080044000E100E010B500280ADB1F23F8
:100F6000012203409A40131C0A4AD367BFF34F8FF4
:100F7000BFF36F8F084B172804D98124A4001A5996
:100F8000183802E08524A4001A59012181408A43BF
:100F90001A5110BD04E100E00080044003688B4357
:100FA000036003680B43036003681942FCD0704779
:100FB00000487047001BB7008E23044A9B00D3589B
:100FC00000209B0601D4024B186870470080044043
:100FD0009800001008B50A4B1A6C03231340012B2C
:100FE00008D0002B04D0032B07D1064B186805E06E
:100FF000054803E0FFF7E0FF00E0002008BDC04621
:101000000080044098000010001BB7000D4B10B585
:101010001A6F1C1C0020032A13D8101CFFF78EFA2D
:101020000204070A08480CE0FFF7D4FF09E0074B69
:10103000186806E0FFF7CEFF1F23A26813400133B4
:10104000584310BD00800440001BB7009C000010F6
:101050000F4B10B51C680F4BE4B21868002303282F
:101060000ED8FFF76BFA0204070A0B4B08E0FFF7F4
:10107000A3FF04E0094B1B6802E0FFF7C7FF031C56
:101080000020844203D0181C211CFFF761FA10BD18
:10109000E8800440E0800440001BB7009C00001082
:1010A00038B5FFF7B3FF0A4BFF251C6800232C401F
:1010B0009C420AD0074A010E1268000215406A1CC1
:1010C000FF326243FFF7D6FA031C181C38BDC04636
:1010D00094800440F480044008B5FFF7E1FF08BDA8
:1010E00008B5FFF7DDFF08BD08B5FFF7D9FF08BD5C
:1010F00008B5072805D8FFF721FA060E041F1116B8
:101100000413002019E0FFF781FF0C4B996FC9B25F
:10111000FFF71EFA11E0FFF779FF0EE0084B00E041
:10112000084B186809E0FFF755FF044B9A681F2326
:1011300013400133584300E0034808BD00800440D9
:10114000980000109C000010001BB7008E22802128
:10115000F8B503271F4C9200A358061C0B43A3505D
:10116000236C0179226CBB430B4313432364391C6A
:101170001948FFF713FFFFF72DFF051C3668291CE0
:10118000301CFFF7E5F9154A0023964208D8144AA7
:101190000133964204D8134BB3429B415B42FB1A86
:1011A0001F21461E31407F26A2685B01B2431143D6
:1011B000602213400B438021D932A360FF32A35831
:1011C0008B43A350E368DB07FCD56843064B1860EC
:1011D000F8BDC0460080044044800440802FA6042F
:1011E000C0175302E08B2901940000101821074A10
:1011F00010B5D36A8B43D362E022054952008C5864
:10120000044B23408B50044B186010BD0040044039
:1012100000C00040FFFDFFFF980000101821104A99
:1012200010B5936B041C8B439363E02240200D495F
:1012300052008B5883438B5001210B4B20381A6A84
:101240000A438E211A6289005A588243D5305A5077
:10125000FF300649FFF798FD054B1C6010BDC046E6
:101260000040044000C000400080044080C3C90129
:10127000980000101821164B10B55A6B041C8A43B5
:101280005A639A6BC0208A439A63E0221149520044
:101290008B5883438B501049BE3A0B6AFF3A9343F5
:1012A0000E4A086AA242924152425200034313433B
:1012B0008E2220200B6292008B588343D5308B50B6
:1012C000FF300749FFF760FD064B1C6010BDC046AC
:1012D0000040044000C0004000800440C0E1E40041
:1012E00080C3C9019800001038B5F023C50C5B001D
:1012F0002B401F250B4C0002626A000A520A520260
:1013000013434A08013A2A4013438E226362920033
:10131000A3582135AB43A350FFF71AF9024B1860CD
:1013200038BDC046008004409C00001003210A4ADA
:1013300010B5136FC4B20B40000A83420AD0002CD0
:1013400008D1136F08408B431843106702390348D4
:10135000FFF724FE10BDC0460080044074800440A6
:1013600070B5041C0025FFF751FE114B061C1B68CD
:101370005C43AC4219D0844217D8211CFFF7E8F82F
:10138000012812D8221CFF240A492B1C0C60301C97
:10139000291C801A9941050E090229430002FFF712
:1013A00069F90125044B04401C60281C70BDC0462F
:1013B00094800440F0800440F480044008B5024862
:1013C0000121FFF7EBFD08BDE480044001238340C9
:1013D000181C044B5A6882435A605A68104358607C
:1013E0007047C046008004408B089B00C018032350
:1013F00019409940FC338B4010B504688A409C43E7
:10140000231C1343036010BD002A07D000290CDB06
:10141000E022520083588B43835006E0002904DB0E
:10142000E02252008358194381507047024BC01884
:10143000431E98417047C04600C0FFAFF8B5002674
:10144000094D0A4B2C681F682740E30704D5084B59
:10145000F358002B00D09847640802D00436202EA1
:10146000F3D12F60F8BDC046F4400050F04000506A
:10147000AC00001038B50C1C80212A4A4900D36FFB
:10148000051C0B43D3670820FFF7A0FF7822A37841
:10149000DB001340191C6378723A5B0013400B4366
:1014A000F021227849011343227A52020A40134361
:1014B00010222B60E3781B01134062795201134321
:1014C000042213436B606B68921813436B6023789C
:1014D000002B12D1802180226B68C9021943237925
:1014E00052031B051340A2790B435205134380227C
:1014F0006B606B68120313436B60E3790A4A2B65D8
:1015000000231360094A1360094A1360094A1360F3
:101510000020094A98500433202BF9D1074A084B80
:101520001A6038BD04800440CC000010A0000010F8
:10153000A4000010A8000010AC0000103D14000032
:10154000D00000104368044A1343044A4360D16F3B
:10155000034B0B40D3677047040004000480044031
:10156000FFFEFFFF10B500210922041C01F0C3FC9F
:101570000123237000236370A370E37023716371F0
:10158000A371E3710F33237210BDF7B5041C101C57
:101590000A1CA032D200A2185268C3260192C122AE
:1015A0000F255F1CDB00E31892009A58B6009B5988
:1015B0002A401D40131C042640339B001A596368BF
:1015C00033436360632810D90123901C1A1C019EC9
:1015D0008A40FE40111C1E4203D0236D1943216531
:1015E0000BE0236D9343236507E000210B1CFFF7FD
:1015F00061F864220023FFF73DF8AD0063191A1C5F
:10160000FC3250608022920098506368FD3AFF3AA5
:1016100093436360F7BD0000F7B508AC2778484CEA
:1016200001262568072D00D988E08E04B60F0C1C12
:10163000022E0AD1F0229B01920013402A1C603234
:10164000D20019438218516069E0002E01D0032EA8
:1016500005D1F0249B01A400234019430C1C012355
:101660009F4219D103683E1C3B4267D1354B196834
:10167000072963D88E008619371C92B2FE377A800C
:101680008027BF00F2532A1C6032D2000C4382181C
:1016900001315460196042E0022F26D101681E1CFE
:1016A00019424BD1284F3968072947D810238E009B
:1016B00086190B431C43331CFE335B88120413430F
:1016C00001941C1CFC239C46B44463465C6080234C
:1016D0009B009C46F35A1A436346F2502A1C603220
:1016E000D200019B8218536017E01E1C042F25D1E5
:1016F0000168194222D0134F396807291ED88B0080
:10170000C3181E1CFC3672608026B6009A512A1C33
:101710006032D2000C4382185460013139600B4BA7
:1017200000261A68012393401A1C2B1C6033DB002F
:101730001A50099B1D60024B01351D60301CFEBD17
:10174000CC000010A4000010A8000010A0000010A1
:10175000F0B500275C4D87B0049705972F680C1CE7
:1017600002374168082F01D90120AAE0C904090EF7
:1017700003940131041C0C98151C1E1CFEF7E8FE96
:10178000012D04D1102263681343636006E0002D2D
:1017900004D1311CFEF7DCFE461E03E07100FEF7AB
:1017A000D7FE061C039BB71C9A78632A09D8002130
:1017B000301C0B1CFEF77EFF64220023FEF75AFF4D
:1017C000071C04238021009304AB321C01934901C0
:1017D0000023201CFFF720FF04238021009305AB8A
:1017E000061C0193201C49013A1C0023FFF714FF3B
:1017F0003043B9D101210F1C049AA3689740FEB26F
:101800003343A3600D9B059E1A60039B5A781B7897
:101810008A4229D1002D11D1111C9940206DB2406E
:1018200088432065A020DB00E418C00023581F4334
:10183000264B2750E0580243E25028E0171C9F40F7
:10184000256D22493D432565DD0065196F58111C42
:10185000B1400E1C1D493E436E5003255B009D4068
:10186000616D9A40A94329E0226D002D11D1081C19
:10187000984002432265DB00144AE418A358B140A3
:101880001F43A750A027FF00E0590143E151281C46
:1018900017E00D1C9D40A027AA43DD0022656519B5
:1018A000FF00EA595B0094460A1CB2406646324388
:1018B000EA5103259D409940626DAA430B1C1343D6
:1018C000636507B0F0BDC046CC0000100405000001
:1018D000064B10B51C680123C9004118C020A34065
:1018E00080000A5813430B5010BDC046A0000010E2
:1018F000044A01201368072B02D81B18002013602C
:101900007047C046A0000010014B18687047C046E1
:10191000A000001070B5012494400A4ECB00C318FB
:101920009D59221C2C1CA02514439C51ED005C5990
:10193000490022435A5103228A40111C836D1943E6
:10194000816570BD04050000F7B50092012901D042
:1019500004291CD1204D01212C68072C39D880275F
:10196000A6008619BF00F25B4C3094460A1C9A40D0
:10197000131C6246A14013439BB2F35303881943DF
:10198000009B89B201801C6001342C6020E0134F61
:1019900001213C68072C1CD88022A60086199200E1
:1019A0009446B25A0E4D01920A1C9A401304019AB1
:1019B0002B4013436246B350031CA1404C331B8899
:1019C00009040D401D43009BC5641C6001343C604C
:1019D0000021081CFEBDC046A4000010A800001095
:1019E00000F0FF0F014B9200D1507047AC00001087
:1019F00008B5024B02481B68984708BDD00000108C
:101A000000400050002808DB1F2318401E3B834085
:101A1000181CC023014A5B00D050704700E100E071
:101A200070B5051C11480021854207D10B1C00210F
:101A30000F4A99500433202BF9D108310024221C7D
:101A40008A4207D203230626534308339E400132BD
:101A50003443F5E7854207D14021064A0A20D36F77
:101A60000B43D367FFF7B2FC2C6370BD004000A0AE
:101A7000D40000100480044030B501248C400E4D89
:101A8000C4610462A84202D10C4D89004B51036825
:101A9000A343191CD306DB1723400B430360112318
:101AA0001A4201D0846000E0C460930701D544610C
:101AB00000E0846130BDC046004000A0D4000010AA
:101AC000F0B50126351C00248D40147004682C40AC
:101AD000671EBC414768E4B22F4203D0002C00D0FF
:101AE0000F36167006692E420AD0002C01D012243F
:101AF00005E01478012C01D1023400E002241470B6
:101B0000034A904203D1034A89008A581A60F0BD03
:101B1000004000A0D400001070B5032407254C43FA
:101B20000834A5401678ED43A640C36A2B403343E2
:101B3000C362036B2B405578A5402B43072907D080
:101B4000012495788C40002D01D0234300E0A3436D
:101B50000363054B984205D1072903D85268034B0C
:101B60008900CA5070BDC046004000A0D4000010DB
:101B7000032370B507244B4308331D1C231CC66A7E
:101B8000AB40341C1C40EC401470046B2340EB4011
:101B90000C4C53700123072907D19370A0420FD139
:101BA000094B8900CB5853600AE08B40056B2B40F2
:101BB000CB405D1EAB419370A04201D10729EFD904
:101BC00070BDC046004000A0D4000010836A021C13
:101BD000180E01D0D36AD362704701238B40191CC1
:101BE0000268436A0A4202D10B4200D04162704748
:101BF0000B4B70B5C3185A4253410022141CDB0032
:101C00009A420AD0012191400668456A0E4202D1EB
:101C10000D4200D00C430132F2E7446270BDC04671
:101C200000C0FF5F0D4B70B5984216D100240B48E1
:101C3000E1B2FFF7D2FF0A4BE55C6EB2301CFFF752
:101C4000E1FE002E06DB1F2301222B409A40131CCD
:101C5000044A13600134082CE9D170BD004000A093
:101C60005033000000E100E038B50C1CFFF7B5FF71
:101C7000074B1C5D65B2281CFFF7C4FE002D06DB78
:101C80001F23012223409A40131C024A136038BDCF
:101C90005033000000E100E038B50F4B98421AD1F4
:101CA00000240E4BE25C55B2002D0ADB1F231340CB
:101CB00001229A40131C0A4AD367BFF34F8FBFF328
:101CC0006F8FE1B20448FFF788FF0134281CFFF74B
:101CD00099FE082CE5D138BD004000A0503300002B
:101CE00004E100E00D4B10B5984215D10C4B5A5C45
:101CF00054B2002C0ADB1F23134001229A40131C0C
:101D0000084AD367BFF34F8FBFF36F8F0348FFF7C6
:101D100064FF201CFFF776FE10BDC046004000A007
:101D20005033000004E100E010B5041CFFF7B4FFDD
:101D3000094B9C420ED100230021084A99500433DC
:101D4000202BF9D1064A4031D36F0A208B43D36749
:101D5000FFF73CFB10BDC046004000A0D4000010BF
:101D60000480044008B50948FFF730FF084B011C08
:101D70001B68002B01D0002098470123034801680D
:101D8000194001D1FFF729FF08BDC046004000A05F
:101D9000D400001008B50948FFF718FF084B011CD4
:101DA0005B68002B01D001209847044803689B071B
:101DB00002D40121FFF711FF08BDC046004000A07A
:101DC000D400001008B50948FFF700FF084B011CBC
:101DD0009B68002B01D002209847044803685B07EA
:101DE00002D40221FFF7F9FE08BDC046004000A062
:101DF000D400001008B50948FFF7E8FE084B011CA5
:101E0000DB68002B01D003209847044803681B07B8
:101E100002D40321FFF7E1FE08BDC046004000A048
:101E2000D400001008B50948FFF7D0FE084B011C8C
:101E30001B69002B01D00420984704480368DB0687
:101E400002D40421FFF7C9FE08BDC046004000A02F
:101E5000D400001008B50948FFF7B8FE084B011C74
:101E60005B69002B01D005209847044803689B0656
:101E700002D40521FFF7B1FE08BDC046004000A016
:101E8000D400001008B50948FFF7A0FE084B011C5C
:101E90009B69002B01D006209847044803685B0625
:101EA00002D40621FFF799FE08BDC046004000A0FD
:101EB000D400001008B50948FFF788FE084B011C44
:101EC000DB69002B01D007209847044803681B06F4
:101ED00002D40721FFF781FE08BDC046004000A0E4
:101EE000D400001007B501900648037C002B05D0F4
:101EF000836801A901229847012001E001204042A6
:101F00000EBDC046F4000010F7B501930023037026
:101F10000C68061C171C451C9C4210D130334370C2
:101F2000012018E001994123002900D120330A3C07
:101F3000E4182C70A81B141C0135002A0BD0201C9F
:101F4000391CFEF705FB3B1C4343021CE41A092C19
:101F5000E8D83034EDE7FEBD70B5061C012086B030
:101F6000824217D100240C4D01AA2874029190726C
:101F7000D072111C281C0193147254721473547380
:101F80009673D473147400F091FC201C034BAB6067
:101F9000034BEB6006B070BDF40000105129000047
:101FA0003129000010B5054C237C002B04D0201CE7
:101FB00000F0B2FC00232374002010BDF4000010D8
:101FC000F0B57D4B93B01B7C071C002B00D1E4E0E7
:101FD00000240E1C0894049400940194387800287E
:101FE00000D1D8E0252802D10023059304E0FFF7B3
:101FF00079FF01340137F1E77A78791C131C303B03
:10200000092B07D80A2305980F1C4343303B9B1824
:102010000593F1E72E2A00D1C2E07D78642D11D01E
:10202000692D0FD020232A1C9A43462A1AD0582AF9
:1020300018D02B1C6F3B012B14D9622D2BD0752D82
:1020400077D128E0331D0293336809A8079307A9C5
:1020500001230A22FFF758FF844609AB6344029E1E
:102060000090019301230293582D03D0782D15D1B0
:1020700000230293331D0393336809A8089308A92A
:10208000029B1022FFF740FF844609AB6344009097
:102090000193039E02E0012302930EE06F2D0CD00A
:1020A000622D0AD0702D03D0752D06D0039624E042
:1020B000331D03933368089312E0331D0393336891
:1020C00008936F2D0AD003D80223622D09D009E0AE
:1020D000702D05D00A23752D03D003E0082300E0FE
:1020E00010230493029B09A808A9049AFFF70CFF88
:1020F000844609AB634400900193261C009B059A1B
:102100001B1B9B19934204DA2020FFF7EBFE0136DC
:10211000F4E7019B341C1D1E3AD0019B2878741BE8
:102120001C19002803D0013DFFF7DCFEF5E70195FF
:102130002EE0632D06D1331D306803930134FFF781
:10214000D1FE25E0732D1ED1331D36680393002E7A
:102150001ED0301C00F088FF251C02900090029BCE
:10216000059A1B1B5B19934204DA2020FFF7BAFE85
:102170000135F4E72C1C731B185D002808D0FFF70D
:10218000B1FE0134F7E7281CFFF7ACFE01340396DB
:102190000237039E22E7201C0BE00120404208E0AA
:1021A0000F1C7B787A1C303B092B00D935E7171CB4
:1021B000F7E713B0F0BDC046F40000100FB407B548
:1021C00004A901C90191FFF7FBFE03B008BC04B0EC
:1021D0001847000013B50848037C002B02D10120EA
:1021E000404208E06B46DC1D211CC3680122984771
:1021F0000028F4D1207816BDF40000100FB430B5DB
:10220000164B89B01B7C002B21D000240DAB019311
:1022100002AD2C70FFF7DEFFC0B228550D2801D0AB
:102220000A2802D1002CF4D007E00134132CF1DD90
:10223000142C02D100232B7502E000232C196370AB
:10224000281C0C99019A00F0B9FCC0B201E00120F1
:10225000404209B030BC08BC04B01847F40000107C
:10226000074A031C0020934209D0064A01309342DA
:1022700005D0054A02309B185A425A41801A7047CD
:1022800000400640008006400040F9BF10B5418C78
:10229000038C89B29CB2631AA14202D9C269A31805
:1022A0005B1A181C10BD00000B69F7B5051C0C1C4F
:1022B0000126002B02D18E69731E9E418022636825
:1022C000AF6800936B695200019317420BD0AB6863
:1022D0001343AB60636A9C46002B04D0281C211C6E
:1022E0003D4AA36AE047002E52D0FB0750D56B460B
:1022F0001E792369002B1DD0E3681E702369013B02
:102300002361E3680133E3602369002B40D1A369B3
:10231000002B02D10223FF332B61231C0222666AA9
:102320002D331A70002E33D0281C211C2B4AA36A8F
:10233000B0472DE0A369002B2AD0201CFFF7A6FF91
:10234000E369013B984208D1636A9C46002B04D0A4
:10235000281C211C224AA36AE047201CFFF796FF95
:10236000E269531E984205D1638C013393422ED10A
:1023700000236384238CA269D654238CE269013341
:10238000934201D1002302E0238C01339BB22384CA
:10239000009B002B1FD0042217421CD023681B78FF
:1023A000EB616368013B636023680133236063680A
:1023B000002B10D12A61221C666A2C321370002E69
:1023C00009D0281C211C074AA36AB04703E0638C8C
:1023D00001339BB2CDE7F7BD491600004716000058
:1023E0004A16000046160000CB6100230B844B8484
:1023F0000223FF338A61C36070470B1C2D331B78A7
:10240000022B02D10223FF33036100230B848B6173
:10241000CB614B847047000010B583681B07FCD567
:1024200001240368A3430360FFF71AFF0349044A2A
:10243000095CD36F8C40A343D36710BD5E330000AB
:102440000480044010B500211022041C00F053FD4C
:1024500096239B01236001220023E2726372A37220
:10246000A371237163712373E3716373237210BDCE
:10247000F0B5036889B0061C0C1C04921B0536D409
:102480000A235A430B0103930F2301271D1C7F428C
:102490000692029305976B1C039906980793FEF723
:1024A00057F80A210538FEF753F8164B0190984269
:1024B00010D8079B411C4B430498191CFEF748F8A1
:1024C000231A844200D2031B059A934202D2019F31
:1024D00002950593039B013D1B1B0393072DDAD146
:1024E000084B9F420AD8029BB362376204E004980B
:1024F000FEF72EF801383062002000E0024809B0F3
:10250000F0BDC046FFFF00004F160000F8B50127E0
:102510000D1C041C161CFFF7A3FE3A1C3A49CB6F96
:102520009C463A4B1B5C9A40131C62461343CB6794
:10253000374B185CFEF74AFFAB793021DB031F43B2
:102540003B1C687A2A7B000108400343A87A1031BB
:10255000800101400B43181C0C21EB7A80279B0063
:102560001940031C0B4380219003C90101400B4318
:10257000181C6B7B7F011B033B40191C031C287A32
:10258000802740020B43011CBF0039400B438021D0
:10259000920209010A40296813432360002907D0E9
:1025A000201C321CFFF764FF002801D019482AE0E4
:1025B000EB79002B04D0802263685200134302E0C1
:1025C0006268154B134063606B79002B07D00122C2
:1025D00023681343236063683F32934302E0402241
:1025E0006368134363602879002805D001222368BB
:1025F00000201343236006E063685B0603D50122D5
:10260000236893432360F8BD048004405E330000D8
:10261000583300004F160000FFFEFFFF8A1891425A
:1026200006D083685B07FCD50B780131C361F6E700
:1026300083681B07FCD500207047000030B5041CE0
:102640008A18914219D0A368DB07FCD5A568A36856
:102650002B43A36080235B002B4010D1181C6B041C
:1026600000D50948AB0400D508482B0409D400283C
:1026700008D163690B700131E3E7002002E00448F0
:1026800000E0044830BDC0464D1600004C16000066
:102690004E1600004B160000F8B50C1C1E1C171C33
:1026A000FFF7DEFD3022051C0021201C00F023FC7A
:1026B000231C02222D331A700022013B1A700B4B8F
:1026C000AA00D4500A4A0B4B67621A600A4BA662F2
:1026D0005A5D53B2002B06DB1F23134001229A40A0
:1026E000131C064A13600020F8BDC0460C01001000
:1026F000A9220000080100105B33000000E100E0A7
:102700000B1C10B52C331C78012C0ED014685268A9
:102710000C608A604A6001221A700423C360436817
:102720003F3293434360002000E0014810BDC046A3
:1027300044160000042340220361436813434360AE
:1027400000234B602C310B7070470B1C2C331B7813
:102750000620002B04D048688B681B1A00201360E9
:1027600070470000F7B5161C0A1C2D321478032C94
:1027700053D001938B690C1C00907568002B3BD0E3
:1027800001230361081CFFF781FD0027B84219D01F
:10279000071EAF4200D92F1C0022ED1BBA4211D0F8
:1027A000638CA169CB5C31688B54638CE169013324
:1027B0008B4201D1002302E0638C01339BB263841E
:1027C0000132EBE7002D09D033680322DB19E36007
:1027D000736825616361231C2D331A700123009AED
:1027E000D360002D13D1656A002D10D0101C211C60
:1027F0000B4AA36AA8470AE031686561E1600321DA
:102800002561117002221F1C0099FF32CA600198D5
:10281000002803D00760002000E00248FEBDC0464B
:1028200047160000451600008B69002B02D10223D9
:10283000FF33036100230B612D3102330B707047AE
:102840000B1C2D331B780620022B04D008694B6922
:102850001B1A00201360704708B5034A034B044855
:102860001B681168984708BD0C0100100801001092
:102870000040064008B5034A034B04481B685168F2
:10288000984708BD0C0100100801001000800640A8
:1028900008B5034A034B04481B689168984708BD74
:1028A0000C0100100801001000C0064030B50C1CDF
:1028B00085B0051C6846FFF7C5FD63680093237A61
:1028C000022B02D0032B00D000236A465372637A96
:1028D000012B00D000236A469372A37A69465A1EE0
:1028E00093416A461371E37A5A1E93416A465371C3
:1028F000A37B074A9B0098582268FFF707FE002831
:1029000002D1A37B2B7000E0024805B030BDC04669
:1029100064330000AF2F000008B50378034A9B0022
:102920009858FFF779FD002008BDC04664330000C9
:1029300008B5037804489B001858FFF77FFE031E74
:1029400000D0024B181C08BD64330000AF2F0000FC
:1029500008B5037803489B001858FFF75FFE002076
:1029600008BDC04664330000002070470020704757
:10297000890093B24018120D821813607047031C2F
:102980000120202B05D000200422093BDBB29A4213
:102990004041704738B500240368051C1878FFF7DC
:1029A000EEFF012805D12B6801345A1C2A605878A3
:1029B000F5E7201C38BD38B5141C20221D1C431A15
:1029C00004980599A8472278002A04D0013C04986D
:1029D00005990123F6E738BDF7B50193002303708D
:1029E0000C68061C171C451C9C4210D130334370E8
:1029F000012018E001994123002900D120330A3C2D
:102A0000E4182C70A81B141C0135002A0BD0201CC4
:102A1000391CFDF79DFD3B1C4343021CE41A092CA5
:102A2000E8D83034EDE7FEBDF0B51F1C0023051CCF
:102A30000C1C91B00292049306932A78002A00D1CC
:102A4000B9E0252A02D10023039305E0029804A9E6
:102A50000123B8470135F0E76A78691C131C303B45
:102A6000092B07D80A2303980D1C4343303B9B18BE
:102A70000393F1E72E2A0AD10D1C6B786A1C303BB8
:102A8000092B04D8151CF8E76C2B05D1151C6B78A5
:102A90006A1C682BF8D1F9E7642B09D0692B07D0A1
:102AA0001A1C20218A43462A19D0582A1CD138E002
:102AB0000A222368261D059307A805A90123FFF70D
:102AC0008BFF07AB1A18029B011C009304AB019308
:102AD00003983B1CFFF76FFF0235341CADE707235B
:102AE000E61D9E430836F7E76F2B0AD0622B5DD0B8
:102AF000702B02D0752B31D103E02368261D06937D
:102B00000BE02268261D069208226F2B06D0063A9B
:102B1000622B03D00832702B00D1102207A806A91F
:102B2000CCE72268783B06925A1E934106A9DBB295
:102B3000102207A8FFF750FF202207AB1E18039BA7
:102B400004A91B1A0298B8473278002A04D0013E23
:102B5000029804A90123F6E7261DBDE7632B07D1E0
:102B600022680298D2B204A90123261DB847B3E710
:102B7000732B14D1261D2468002CADD0201C00F02E
:102B800073FA2022039B04A91B1A0298B8472278E3
:102B9000002AA1D00134029804A90123F6E71A1CE7
:102BA000029804A90123B847261C95E72368261D2F
:102BB00006930222B2E7049811B0F0BDF0B5037895
:102BC0008BB0151C04910590002B46D00023019377
:102BD000049B1B78002B3ED0059B1B78002B3AD022
:102BE00004A8FFF7D7FE002803D005A8FFF7D2FE00
:102BF000EEE7049B19785A1C252931D159782529EB
:102C000039D12DE01A1C303A092A3BD800F014F9CA
:102C10000A22076007A9029800F0B0FA009000F0BD
:102C20000BF903685A425341009A5B421A40079BD2
:102C30000092013B0293029B01330293029B1B789B
:102C4000002B4FD07C272740DCD0371C0023029A72
:102C50000492012B48D10198EAE001204042E7E0CC
:102C60000492059A597810788842F4D101320233DF
:102C700005920493ACE76323029204920093041C30
:102C8000061CDBE7642B01D16A4B02E0752B03D1F4
:102C9000553B1C430A26CEE76F2B03D14F3B1C4309
:102CA0000826C8E7782B01D1583B02E0582B03D106
:102CB000383B1C431026BEE7692B03D1493B1C431C
:102CC0003E1CB8E7632B05D15F3B1C43009B632B85
:102CD000B1D1AAE0732B02D16B3B1C43ABE7371C8D
:102CE0000123B4E7371CB2E77C2323400293042B73
:102CF00011D12B68009A291D9818834206D0059A95
:102D0000541C059412781A700133F6E7019B0D1CD0
:102D1000013301935CE7029B082B1DD105A8FFF747
:102D200039FE2C68009B2F1DE618B44206D1002303
:102D30002370019B3D1C0133019349E7059D2878D1
:102D40000028F4D0FFF71BFE0028F0D16B1C059380
:102D50002B7823700134E8E7029B202B00D07AE720
:102D600005A8FFF717FE059A1378002E0AD10A2747
:102D7000302B07D151780298023F8143582904D162
:102D8000102702E0DBB22B2B05D02D2B05D0012321
:102D90000026029304E0012300E0FF2301260293B2
:102DA0009319181C0393059300F05EF9009B9B1B7D
:102DB00007AE98421CD903990B22301C00F092F800
:102DC0000023F37200F038F800233A1C036006A9D0
:102DD000301C00F0D3F9071C00F02EF80368002B1C
:102DE00000D038E7069B9E1B059B9E19059611E0B7
:102DF00000F022F800233A1C0360311C059800F013
:102E0000BDF9071C00F018F80368002B00D022E77A
:102E1000079B05936B461B7A2A685BB25F432B1DA9
:102E20001D1C019B17600133D1E60123009302E7CB
:102E30000BB0F0BD20200000014B18687047C04661
:102E400068000010084B10B5041C002B02D00021B4
:102E500000E000BF054B1868836A002B00D098473C
:102E6000201C00F01BFAC046000000007433000074
:102E70000E4B70B500251E1C0D4CE41AA410A54283
:102E800004D0AB00F35898470135F8E700F0F8FAA2
:102E9000084B00251E1C084CE41AA410A54204D0BF
:102EA000AB00F35898470135F8E770BDA034000037
:102EB000A0340000A0340000A434000008B5034B87
:102EC000011C186800F066F808BDC04668000010D4
:102ED00008B5034B011C186800F016F808BDC04681
:102EE00068000010002310B5934203D0CC5CC4549A
:102EF0000133F9E710BD031C8218934202D0197008
:102F00000133FAE77047000030B500293ED004399C
:102F10000B68002B00DAC9181D4A1368141C002B1B
:102F200002D14B60116031E099420DD208680A1855
:102F30009A4203D11368C3180B6053684B60216039
:102F400024E08A4203D8131C5A68002AF9D11D686C
:102F50005C198C420BD109686918581819609042A5
:102F600014D110685268091819605A600EE08C423A
:102F700002D90C23036009E008680C18944203D1BD
:102F800014685268001908604A60596030BDC04634
:102F90001C010010032370B5CC1C9C430834051C95
:102FA0000C2C01D20C2405E0002C03DA0C230020A9
:102FB0002B6042E08C42F9D3204A1368101C191C84
:102FC000002913D00A68121B0DD40B2A02D90A60FB
:102FD0008B181FE08B4202D15A6802601BE04A68DE
:102FE0005A600B1C17E00B1C4968E9E7144E336864
:102FF000002B03D1281C00F025F83060281C211C70
:1030000000F020F8031C421CD0D00322C61C9643BB
:1030100086420AD11C60181C07210B301A1D8843F8
:10302000821A0AD05142995007E0311A281C00F048
:1030300009F8431CBAD0331CECE770BD1C0100102A
:103040001801001038B50023064C051C081C23602D
:1030500000F016F9431C03D12368002B00D02B602D
:1030600038BDC046240100100023C25C0133002A91
:10307000FBD1581E70470000F0B51E1C3E4B87B0B8
:103080001B68171C02930B1C059004911C78029A74
:103090005D1C1219517808220A4001D02B1CF5E75B
:1030A0002D2C04D19D1C5C780123019304E0019236
:1030B0002B2C01D15C789D1C002E02D0102E0AD141
:1030C00054E0302C50D120222B789343582B46D1FA
:1030D00010266C7802350120311C4042FDF738FA89
:1030E00003900120311C4042FDF7B8FA00228C46C3
:1030F000131C029909194978480701D5303C07E0AB
:103100000320084017D03721012800D02031641A4D
:10311000B44210DA511C0BD0039A934206D801D165
:10312000644503DC73430122E31801E001225242AB
:103130002C780135DDE7181C511C04D12223059998
:10314000101C0B6003E00199002900D05842002FA9
:103150000FD0049B002A00D06B1E3B6009E0302496
:10316000002EB8D10826B6E70A26B4E7302CB2D133
:10317000A9E707B0F0BDC0466C00001038B5051CCB
:103180000C1C131C034A291C1068221CFFF774FF37
:1031900038BDC0466800001038B50C1C0968051C15
:1031A000002901D0FFF7F8FF281C211CFFF7ACFE17
:1031B00038BD0000314B70B51B6898425DD0436A42
:1031C000041C002B1DD0DB68002B13D00025636A84
:1031D000DB685959002905D00E68201CFFF794FEC2
:1031E000311CF7E70435802DF1D1636A201CD968C2
:1031F000FFF78AFE636A1968002902D0201CFFF7D6
:1032000083FE6169002902D0201CFFF77DFE616A00
:10321000002902D0201CFFF777FEA16B002902D005
:10322000201CFFF771FEE16B002902D0201CFFF784
:103230006BFE216C002902D0201CFFF765FEE16DBA
:10324000002902D0201CFFF75FFEA16D002902D0EB
:10325000201CFFF759FE616B002902D0201CFFF7EC
:1032600053FEA369002B08D0201CA36A9847A16CC9
:10327000002902D0201CFFF78FFF70BD68000010EE
:10328000044A1368002B03D018181060181C7047EC
:10329000014BF9E72001001028010010FEE7C046AD
:1032A0000C0D0A50494E542050696E20496E7465C9
:1032B0007272757074202564206576656E74206462
:1032C000657465637465642E0050494E54205069DE
:1032D0006E20496E74657272757074206576656EC5
:1032E00074732061726520636F6E666967757265BD
:1032F000640D0A0050726573732053573220746F47
:103300002067656E6572617465206576656E74739D
:103310000D0A0000C027090090051000C05C1500D0
:10332000F0B31A00200B2000009F2400E032290097
:10333000C0C62D0050973100E06735007038390065
:1033400000093D004016400080234300C030460085
:1033500018191A1B1C1D1E1F0304050304050E0F5C
:1033600010000000004006400080064000C00640FB
:103370004300000008000010002020202020202012
:103380002020282828282820202020202020202015
:103390002020202020202020208810101010101025
:1033A0001010101010101010100404040404040471
:1033B000040404101010101010104141414141410B
:1033C00001010101010101010101010101010101ED
:1033D00001010101101010101010424242424242FD
:1033E00002020202020202020202020202020202BD
:1033F0000202020210101010200000000000000065
:1034000000000000000000000000000000000000BC
:1034100000000000000000000000000000000000AC
:10342000000000000000000000000000000000009C
:10343000000000000000000000000000000000008C
:10344000000000000000000000000000000000007C
:10345000000000000000000000000000000000006C
:10346000000000000000000000000000000000005C
:10347000000000000000000000000000000000004C
:10348000F8B5C046F8BC08BC9E467047F8B5C046C3
:08349000F8BC08BC9E46704721
:08349800C8CEFF7F0100000017
:0434A00029030000FC
:0434A4000103000020
:1034A80000000000001BB700000000000000000042
:1034B8000000000000000000000000000000000004
:1034C8000000000000000000703300000000000051
:1034D80000000000000000000000000000000000E4
:1034E80000000000000000000000000000000000D4
:1034F80000000000000000000000000000000000C4
:1035080000000000000000000800001078330000F0
:0435180000000000AF
:04000003000003D91D
:00000001FF
