:10000000E01F00100D04000045040000490400003A
:1000100000000000000000000000000000000000E0
:100020000000000000000000000000004D0400007F
:100030000000000000000000510400005504000012
:10004000590400005D040000610400006504000024
:10005000690400006D0400007104000075040000D4
:10006000790400007D040000810400008504000084
:10007000890400008D040000910400009504000034
:10008000990400009D040000A1040000A5040000E4
:10009000A9040000AD040000B1040000B504000094
:1000A000B9040000BD040000C1040000C504000044
:1000B000C9040000CD040000D1040000D5040000F4
:0402FC00FFFFFFFF02
:100300000448054B10B5834203D0044B002B00D0AA
:10031000984710BD70000010700000100000000031
:1003200006480749091A8B10C90FC91810B549109A
:1003300003D0044B002B00D0984710BD7000001074
:10034000700000100000000010B5074C2378002B4F
:1003500009D1FFF7D5FF054B002B02D0044800E080
:1003600000BF0123237010BD7000001000000000CA
:10037000E0210000054B10B5002B03D004490548CF
:1003800000E000BFFFF7CCFF10BDC046000000003A
:1003900074000010E0210000402292029A1A924656
:1003A0007047C046154B002B00D1114B9D46FFF7FF
:1003B000F3FF00218B460F461148124A121A00F033
:1003C00025FD0C4B002B00D098470B4B002B00D089
:1003D00098470020002104000D000B4800F0AEFCFF
:1003E00000F0DEFC2000290000F0D2FF00F0AEFC9F
:1003F000000008000000000000000000E01F0010E6
:10040000700000106C010010790D000072B60748F2
:1004100080470749074A084B9B1A03DD043BC8582D
:10042000D050FBDC62B6054880470000F1140000A4
:100430000C2200000000001070000010A503000056
:1004400025480047254800472548004725480047DC
:1004500025480047254800472548004725480047CC
:1004600025480047254800472548004725480047BC
:1004700025480047254800472548004725480047AC
:10048000254800472548004725480047254800479C
:10049000254800472548004725480047254800478C
:1004A000254800472548004725480047254800477C
:1004B000254800472548004725480047254800476C
:1004C000254800472548004725480047254800475C
:1004D0002548004725480047410400004504000026
:1004E000490400004D0400005104000055040000C0
:1004F00041040000410400004104000041040000E8
:1005000041040000410400004104000041040000D7
:10051000410400008D21000041040000410400005E
:1005200041040000410400004104000041040000B7
:1005300041040000410400004104000041040000A7
:100540004104000041040000410400004104000097
:100550004104000041040000410400004104000087
:100560004104000041040000410400004104000077
:1005700002B4714649084900095C49008E4402BC36
:100580007047C046002243088B4274D303098B4254
:100590005FD3030A8B4244D3030B8B4228D3030C53
:1005A0008B420DD3FF22090212BA030C8B4202D3F5
:1005B0001212090265D0030B8B4219D300E0090A1D
:1005C000C30B8B4201D3CB03C01A5241830B8B4226
:1005D00001D38B03C01A5241430B8B4201D34B030F
:1005E000C01A5241030B8B4201D30B03C01A524174
:1005F000C30A8B4201D3CB02C01A5241830A8B42F9
:1006000001D38B02C01A5241430A8B4201D34B02E1
:10061000C01A5241030A8B4201D30B02C01A524145
:10062000CDD2C3098B4201D3CB01C01A52418309F9
:100630008B4201D38B01C01A524143098B4201D333
:100640004B01C01A524103098B4201D30B01C01A5E
:100650005241C3088B4201D3CB00C01A52418308D8
:100660008B4201D38B00C01A524143088B4201D305
:100670004B00C01A5241411A00D201465241104665
:100680007047FFE701B5002000F0F0F802BDC0465A
:100690000029F7D076E7704703460B437FD400224A
:1006A00043088B4274D303098B425FD3030A8B4206
:1006B00044D3030B8B4228D3030C8B420DD3FF2270
:1006C000090212BA030C8B4202D31212090265D03E
:1006D000030B8B4219D300E0090AC30B8B4201D3F1
:1006E000CB03C01A5241830B8B4201D38B03C01A38
:1006F0005241430B8B4201D34B03C01A5241030BAF
:100700008B4201D30B03C01A5241C30A8B4201D35F
:10071000CB02C01A5241830A8B4201D38B02C01A0A
:100720005241430A8B4201D34B02C01A5241030A81
:100730008B4201D30B02C01A5241CDD2C3098B4266
:1007400001D3CB01C01A524183098B4201D38B01E3
:10075000C01A524143098B4201D34B01C01A524186
:1007600003098B4201D30B01C01A5241C3088B42CB
:1007700001D3CB00C01A524183088B4201D38B00B6
:10078000C01A524143088B4201D34B00C01A524158
:10079000411A00D201465241104670475DE0CA0F2F
:1007A00000D04942031000D34042534000229C46EF
:1007B00003098B422DD3030A8B4212D3FC228901F9
:1007C00012BA030A8B420CD3890192118B4208D3CF
:1007D000890192118B4204D389013AD0921100E031
:1007E0008909C3098B4201D3CB01C01A5241830945
:1007F0008B4201D38B01C01A524143098B4201D372
:100800004B01C01A524103098B4201D30B01C01A9C
:100810005241C3088B4201D3CB00C01A5241830816
:100820008B4201D38B00C01A5241D9D243088B426C
:1008300001D34B00C01A5241411A00D2014663460F
:1008400052415B10104601D34042002B00D5494273
:10085000704763465B1000D3404201B5002000F0B2
:1008600005F802BD0029F8D016E770477047C0466A
:10087000002B15D1002A13D1002906DB01DC00284A
:1008800006D00020C043410802E080210906002074
:1008900007B4024801A14018029003BDD1FFFFFF39
:1008A00003B4684601B5029800F01AF9019B9E4610
:1008B00002B00CBC7047C046002B11D1002A0FD1EA
:1008C000002900D1002802D00021C943081C07B428
:1008D000024802A14018029003BDC04691FFFFFFED
:1008E00003B4684601B5029800F02EF8019B9E46BD
:1008F00002B00CBC7047C046F0B515042D0C0F00BB
:1009000001002E00C64684460004140C000C090C9D
:1009100046434D43604361434019340C241800B5ED
:10092000A54203D98020400280464144250C6D1821
:10093000614659437A43300449192404000C2018B5
:10094000891804BC9046F0BDF0B557464E46454662
:10095000DE46E0B504000D009246994683B08B4216
:1009600030D82DD04946504600F0D8F8290006006E
:10097000200000F0D3F8331A9846203B9B4633D42E
:100980005A465346934042461F00534693401E002A
:10099000AF423AD8AF4200D178E05B46A41BBD41DC
:1009A000002B00DA75E0002200230092019301235E
:1009B0005A4693400193012342469340009328E016
:1009C0008242CFD900220023009201930C9B002B7E
:1009D00001D01C605D600098019903B03CBC90465A
:1009E0009946A246AB46F0BD424620239B1A52468A
:1009F000DA40414613004A468A40170042461F43E8
:100A0000534693401E00AF42C4D9002200230092F7
:100A100001934346002BD9D0FB0772081A43464680
:100A20007B080EE0AB4201D1A2420CD8A41A9D4132
:100A3000012024196D410021013E24184D41002E52
:100A400006D0AB42EED9013E24196D41002EF8D1FB
:100A5000009801995B4600196941002B24DB2B00AB
:100A60005A464446D3402A00E2401C005B4615002B
:100A7000002B2ADB26009E40330026004746BE405E
:100A80003200801A9941009001919FE7A342BCD89F
:100A900083E74246202300219B1A00220091019205
:100AA0000122DA40019286E7424620239B1A2A005F
:100AB00046469A402300F340444613432A00E2404E
:100AC0001C005B461500002BD4DA42462F00202381
:100AD000260097409B1ADE403B003343CDE7C046DB
:100AE000F8B5CE46474680B59146984604000D00BD
:100AF00000F020F807000E0002000B0048464146B7
:100B0000FFF7FAFE241A8D41089B380031001C6063
:100B10005D600CBC90469946F8BDC04610B50029F2
:100B200003D100F0EDF8203002E0081C00F0E8F8F6
:100B300010BDC046F0B557464E464546DE46E0B5C8
:100B40000F001900002306009846100083B0002F04
:100B500007DA33003C0000275E42A74101235B42D5
:100B60009846002907DA4346DB430C009846030009
:100B700000215842A14134003D0082468946B942D5
:100B80006AD867D049465046FFF7C8FF8346390008
:100B90003000FFF7C3FF5B461B1A9C46203B9B4679
:100BA0006BD458465146814060460B005146814007
:100BB0000A00BB4200D972E0BB4200D179E03400A8
:100BC0003D005946A41A9D41002900DA74E0002135
:100BD000002001260090019159468E400196614601
:100BE00001268E406146009600295FD0D90756083D
:100BF0000E435F086146012200230CE0AF4201D1A1
:100C0000A6420AD8A41BBD4124196D410139A4187C
:100C10005D41002906D0AF42F0D9013924196D4158
:100C20000029F8D1009801995B4600196941002B11
:100C30004DDB2E002C00DE406346DC405B46002B83
:100C400055DB34009C4023006446A6403200801AE5
:100C5000994103E0B04295D9002000214346002B82
:100C600004D003000C0000215842A14103B03CBC59
:100C700090469946A246AB46F0BD624648462023C0
:100C8000514690409B1AD94003000091009960465C
:100C90000B43514681400A00BB4200D88CE700213B
:100CA000002000900191614600299FD10098019990
:100CB000D4E7B142F3D882E7614620260127761AAD
:100CC00000200021F74000900191019787E76246DC
:100CD00020239B1A2A009A40260013006246D64021
:100CE0002C001E436346DC405B46002BA9DA6246BB
:100CF0002023350094409B1ADD4023002B43A3E7BB
:100D00001C2101231B04984201D3000C10391B0A3B
:100D1000984201D3000A08391B09984201D30009FF
:100D2000043902A2105C40187047C0460403020256
:100D300001010101000000000000000010B50100E9
:100D400000230022002000F083F910BD084B10B5ED
:100D50000400002B02D0002100F0E8F9054B1868D0
:100D6000836A002B00D09847200000F0CBFAC046E1
:100D70002D110000A021000070B5074D074C641B29
:100D8000A41005D0013CA300EB589847002CF9D1E2
:100D900001F02EFA70BDC046082200000C220000AF
:100DA00070B50C4D0C4E761BB61005D0002408CD46
:100DB00001349847A642FAD101F014FA074D084EC3
:100DC000761BB61005D0002408CD01349847A64202
:100DD000FAD170BD042200000422000004220000A9
:100DE0000822000010B5034B0100186800F0B8F8A5
:100DF00010BDC0460400001010B5034B0100186878
:100E000000F058F810BDC04604000010F0B5050011
:100E100083074AD0541E002A44D0CEB203000322D6
:100E200002E00135013C3DD301332E701342F8D16D
:100E3000032C2FD9FF220A40150215432A0415431B
:100E40000F2C35D92700103F3F093E01B4461E0044
:100E50001A0010366644156055609560D5601032F2
:100E6000B242F8D10F260C2201373F012640DB1990
:100E70003700224217D03E1FB608B400A4461A001D
:100E80001C1D644420C2A242FCD103240136B600DA
:100E90009B193C40002C05D0C9B21C1919700133B4
:100EA0009C42FBD1F0BD3400F4E714000300BFE71F
:100EB0002700E0E770B50500002915D00C1F236856
:100EC000002B27DB280000F08FF9244B1A68002A3A
:100ED00005D0A2420CD921686018824224D06260F9
:100EE00028001C6000F082F970BDA34203D81A00EC
:100EF0005368002BF9D111685018A0421BD027D895
:100F000021686018834207D063605460280000F0B5
:100F10006DF9E9E7E418D5E718685B688446614431
:100F2000216063605460F1E7106852688446614450
:100F300021606260D4E7206809185018116083426C
:100F4000E4D118685B688446614411605360DDE752
:100F50000C2328002B6000F049F9C5E78C00001035
:100F6000F8B50323CD1C9D43083506000C2D2AD26D
:100F70000C25A94229D8300000F036F92A4F3A68EA
:100F8000002A0AD013685B1B04D441E023685B1B72
:100F90001FD522005468002CF8D17B68002B3DD06F
:100FA0002900300000F042F8431C2AD00323C41C5F
:100FB0009C43A04205D0211A300000F037F8431CB2
:100FC0001FD0256010E0002DD3DA0C230020336001
:100FD000F8BD0B2B05D86368A2421DD0536003E017
:100FE00014002360E4182560300000F0FFF82000B2
:100FF00007220B30231D9043C21AE9D01B1AA350BD
:10100000E6E70C233000336000F0F0F80020DFE763
:101010000B2BE5D8140053683B60E5E70021300056
:1010200000F004F87860BBE78C000010002370B576
:10103000064C05000800236000F056F9431C00D060
:1010400070BD2368002BFBD02B60F9E7680100100E
:10105000F0B546464F46D646C0B51F002F4B82B06E
:101060001C6805000E009046002C2DD063681F2BD5
:1010700050DC002D1CD08822A0589146002834D086
:101080007832825894469A009146814442464946B5
:101090000A600121624699400A43944680228A46AA
:1010A0006146520081504946803A8F50022D16D039
:1010B00000205A1C02339B0062601E5102B01CBC0F
:1010C00090469946A246F0BD154C1C60154B002B6E
:1010D000CCD01B6801938823019AE250C6E755469D
:1010E000843281580D438550E2E70F4B002B11D01D
:1010F00084204000FFF776FE00280BD080220023DA
:1011000052008350043283504B460022E0509446F4
:101110006368B8E701204042D0E7C04620010010D4
:101120009400001000000000E50D0000F0B5DE4660
:101130004E46454657462B4B88469B46E0B51E68B3
:1011400083B00190002E45D088237568F7586C1E37
:1011500040D40135AD00783375199A460AE0002F66
:1011600005D03B00A20080339B58434505D0043D89
:10117000013C2FD34346002BF1D173682A68013B11
:10118000A34222D000232B60002AF0D07368994636
:10119000002F18D001235146A3407958194212D08C
:1011A000822040003858A1007958009018420ED192
:1011B000019890475B4672681B684A4501D1B3426B
:1011C000D5D01E00BEE79047F4E77460DCE7080066
:1011D0009047EFE703B03CBC90469946A246AB4629
:1011E000F0BDC046200100107047C0467047C046A1
:1011F00070B50C0009680500002901D0FFF7F8FF61
:1012000028002100FFF756FE70BDC046354B70B573
:101210001B68050083425CD0426A002A5AD0D3681A
:10122000002B13D000269959002907D00C682800FC
:10123000FFF740FE211EF9D16B6ADB680436802E71
:10124000F1D119002800FFF735FE6A6A11680029FC
:1012500044D02800FFF72EFE6969002902D028003B
:10126000FFF728FE6A6A002A03D011002800FFF762
:1012700021FEA96B002902D02800FFF71BFEE96BB5
:10128000002902D02800FFF715FE296C002902D0A2
:101290002800FFF70FFEE96D002902D02800FFF7B4
:1012A00009FEA96D002902D02800FFF703FE696B33
:1012B000002902D02800FFF7FDFDAB69002B08D004
:1012C0002800AB6A9847A96C002902D02800FFF7D4
:1012D0008FFF70BD41690029C1D1CAE76969002942
:1012E000BDD1C2E704000010044A1368002B03D0EC
:1012F0001818106018007047014BF9E7240100101E
:1013000070010010FEE7C0468E23F7B501260221CA
:1013100000251A4C9B00E2586846B243E250E2585E
:10132000174F8A43E250174B1D606B461D71164BD9
:10133000009300F0FFFAC020800000F0E9FBFF22DC
:101340003D60A36F93433343A36700F08BF80323FF
:10135000FA223B602300D200E4331D6004341E6097
:101360005A60E36F80352B43E3671A222E2107482A
:1013700000F02CFCE36FAB43E367F7BD0080044053
:10138000E0800440408004400087930300C0004098
:101390008023F0B51C4CDB01E26F89B01343E36797
:1013A00000F03AF8FFF7B0FF8023E26F5B00174DC3
:1013B0001343E36705A800F0BFFC05A9280000F06F
:1013C00047FC822303AC124E5B00238004AFA23B98
:1013D000A370012221000F4B28000197009600F016
:1013E00099FD81235B002380E93BA3700122094B17
:1013F000210028000197009600F08CFD04226B6804
:1014000093436B60FEE7C0460480044000400050F8
:1014100080C3C901C05D0000F8B580230E4CDB021B
:10142000E26F302713438022E367E36F0B4E0C4DCE
:101430001343E367280077622321703A00F0C6FB6C
:10144000776528001B22212100F0C0FB8022E36F7A
:101450009343E367F8BDC046048004400040044065
:1014600000C0004070B51D4C0020636ADB051B0FF7
:10147000013B0E2B02D81A4A9B0098580322616A3E
:10148000266F184D1640022E0CD0964217D0012E12
:1014900002D0154B2B600CE0236C1340032BF8D1CA
:1014A0000023F7E71F23194001314900FFF76AF8CD
:1014B00028602868A16FFFF765F8286070BD1F23BA
:1014C000A2681A40236C01323340033B591E8B4102
:1014D00005495B420B405343DCE7C04600800440B3
:1014E000A42100006C000010001BB7007047000032
:1014F00010B5044A044B9A60044B054A1A60FFF782
:10150000F5FF10BD0000000000ED00E06C000010D1
:10151000001BB700431E70B55B184D420C002B40FA
:10152000984201D9002070BD05225242521A9A42B7
:10153000F8D3081DC018FFF755FC0028F2D003347B
:1015400024182C40034A231F201A58801A80200098
:10155000E9E7C04639300000031F054A198810B575
:10156000914203D15B88C01AFFF746FC10BDC0460C
:10157000393000000A0010B500280BD000231900F4
:10158000FFF7BAF90023044AFFF796F9001C013867
:101590000028FCD110BDC04600093D004023044A8C
:1015A00010B5D16F0A200B43D36700F003FB10BDC9
:1015B0000480044070B54024104DEE6F3443EC6756
:1015C00001249440220080241E788D00A401002E66
:1015D00004D1401903599343035170BD5B78002B2C
:1015E00009D18A231B01C91889000A5040190359DF
:1015F0001A430251F1E78823F4E7C046048004400F
:10160000EFF3108172B60720064A13688343136014
:10161000054A033813698343136130BF81F310888F
:101620007047C0460000024000ED00E010B5EFF347
:10163000108172B607220C4C236893431A000123D1
:1016400013438C222360094C9200A3588343042047
:10165000A350074B1A6902431A6130BF1A698243CB
:101660001A6181F3108810BD000002400080044020
:1016700000ED00E010B5EFF3108172B607220C4CBC
:10168000236893431A00022313438C222360094CDE
:101690009200A35883430420A350074B1A690243C6
:1016A0001A6130BF1A6982431A6181F3108810BD34
:1016B000000002400080044000ED00E0EFF31081E4
:1016C00072B60F220948036893431A000323134399
:1016D00003600420064B1A6902431A6130BF1A697D
:1016E00082431A6181F310887047C04600000240AF
:1016F00000ED00E030B50D4A172811D9050001238F
:101700008121183DAB408900545823435350002891
:1017100005DB1F2318401E3B8340054A136030BD84
:1017200085210123890083405458EEE7008004405E
:1017300000E100E0020010B50E4B803208D1812498
:10174000A4001A591838012181408A431A5110BD4A
:10175000002809DB1F21012201408A400649CA678F
:10176000BFF34F8FBFF36F8F1728E8D88524A400ED
:101770001A59E8E70080044004E100E003688B4365
:10178000036003680B43036003681942FCD0704791
:1017900000487047001BB7008E23044A9B00D358B3
:1017A00000209B0601D4024B18687047008004405B
:1017B000280100100B4B10B5186C032318400128AA
:1017C00009D098420AD0431E9841074B4042184026
:1017D000064BC01810BDFFF7DFFFFBE7044B18688E
:1017E000F8E7C0460080044000E548FF001BB70052
:1017F0002801001010B50D4C0020226F032A05D8D7
:101800001000FEF7B5FE0204070A094810BDFFF7F5
:10181000D1FFFBE7074B1868F8E7FFF7CBFF1F2264
:10182000A368134001335843F0E7C04600800440EA
:10183000001BB7002C0100100F4B10B51C680F4B9C
:1018400000201B68E4B2032B05D81800FEF790FEB9
:10185000020B0E110A48002C03D02100FEF792FE65
:101860000400200010BDFFF797FFF4E7054B186850
:10187000F1E7FFF7BFFFEEE7E8800440E0800440B7
:10188000001BB7002C01001010B5FFF7B3FF0A4B87
:1018900004001B68FF221800104013420BD0074BB6
:1018A000210E1B6824021A400132FF3242430023FA
:1018B0002000FFF701F810BD94800440F48004403C
:1018C00010B5FFF7E1FF10BD10B5FFF7DDFF10BD4C
:1018D00010B5FFF7D9FF10BD10B5072805D8FEF7E2
:1018E00047FE060E041F11160414002010BDFFF75A
:1018F00081FF0C4B996FC9B2FEF744FEF6E7FFF784
:1019000079FFF3E7084B1868F0E7084BFBE7FFF7B0
:1019100051FF1F22034B9B68134001335843E5E7F7
:101920000348E3E700800440280100102C01001068
:10193000001BB7008E22802370B51F4C9200A15867
:1019400006000B430321A350236C226C8B431343EB
:1019500002791A4813432364FFF710FFFFF72AFFA9
:101960003668010005003000FEF70CFE144A002323
:10197000964208D8134A0133964204D80023124AEB
:10198000B2425B4102331F26A168421E32406036DC
:10199000B1430A435B0113438E228021A36092006E
:1019A000A3588B43A3500123E2681A42FCD068433A
:1019B000064B186070BDC04600800440448004405F
:1019C000802FA604C0175302E08B290130010010BC
:1019D0001821074A10B5D36A064C8B43D362E02224
:1019E000054952008B5823408B50044B186010BDA2
:1019F00000400440FFFDFFFF00C000402801001030
:101A00001821104A10B5936B04008B439363E022B6
:101A100040200D4952008B5883438B500B4BC03AEA
:101A2000196AFF3A0A438E211A6289005A582038EF
:101A30008243DA305A5040000549FFF79BFD054BC1
:101A40001C6010BD0040044000C000400080044005
:101A500080C3C901280100101821164B10B55A6B1C
:101A600004008A435A639A6BC0208A439A63E02237
:101A7000114952008B5883438B501049BE3A0B6A70
:101A8000FF3A93430E4A086AA242924152425200E0
:101A9000034313438E2220200B6292008B58834312
:101AA000D5308B50FF300749FFF764FD064B1C60B3
:101AB00010BDC0460040044000C00040008004400B
:101AC000C0E1E40080C3C9012801001070B5F02511
:101AD0000D4CC30C626A6D00520A2B4052021A432D
:101AE000C23D4B08FF3D013B2B4013438E226362F6
:101AF0009200A3582135AB430002A350000AFEF721
:101B000041FD024B186070BD008004402C010010A4
:101B100010B503240949020A0B6F23409A420BD0E7
:101B2000C0B2002808D10B6F2240A34313430B67B8
:101B300003480121FFF722FE10BDC046008004408B
:101B400074800440F8B50400FFF754FE124B060001
:101B500018684443211E1CD00021A64219D321003D
:101B60003000FEF70FFD0021012812D80B002200E3
:101B70000D003400FF27A41A9D4108482902076080
:101B8000200E01432002FEF797FE0121044B07407F
:101B90001F600800F8BDC04694800440F0800440F7
:101BA000F480044010B501210148FFF7E7FD10BDA6
:101BB000E480044001228240034B596891435960FC
:101BC00059680A435A60704700800440032310B5E7
:101BD000FF240B40DB009C409A4089088900411893
:101BE0000868A04302430A6010BD002A07D00029FC
:101BF00004DBE022520083588B4383507047002956
:101C0000FCDBE0235B00C2581143C150F6E7000043
:101C1000F7B5002601270B4D0B4B2C681B682340A2
:101C200001933C4205D0094BB200D358002B00D0A1
:101C30009847640802D00136082EF2D1019B2B6030
:101C4000F7BDC046F4400050F04000504401001081
:101C50008023294A70B50D00D16F5B000B4304004F
:101C6000D3670820FFF7A6FF78210620AB782A78F3
:101C7000DB000B40697849000140F0200B43297AD2
:101C800040014902014013430B432360EB7869791B
:101C90001B0149010B4304210B4363600823616866
:101CA0000B436360002A0FD12B79AA791B055205DB
:101CB000134380226168D2020B4313436360802385
:101CC00062681B03134363600020EB790B4A2365B2
:101CD0000B4B18600B4B18600B4B18600B4B1860CC
:101CE0000B4B186058609860D86018615861986113
:101CF000D861084B1A6070BD04800440111C0000BC
:101D00003401001040010010380100103C010010A7
:101D100044010010640100104268044B044913435D
:101D2000044A4360D36F0B40D3677047040004003C
:101D3000FFFEFFFF04800440012303700023437073
:101D40008370C370037143718371C3710F33037266
:101D50007047F7B504000800A030C00020184068A4
:101D6000C3260190C1200F255F1CDB00E318800013
:101D70001858B6009B5928401D40030040339B0073
:101D8000185963689C460423664633436360632A9C
:101D90001BD90123019E1A00FE408A4002301E42D8
:101DA00010D0236D13432365AB00E3181A00FC32F7
:101DB00050608022920098506368FD3AFF3A934346
:101DC0006360F7BD236D9343EDE700231900FEF731
:101DD00093FD64220023FEF76FFDE5E7F0B50400F4
:101DE00048481600056805AA01201278072D1CD85E
:101DF00088040F00800F022818D1F0229B01920066
:101E000013402A006032D2001943A2185160012207
:101E10003D4B00201B689A402B006033DB001A51B9
:101E2000069B384A1D6001351560F0BD002801D0C1
:101E3000032805D19801F0239B00184001430F00AF
:101E400001239A421AD1236810001342EDD12F4B7F
:101E500019680729E9D838008F00E7193A00B6B2A7
:101E6000FE32568080229200BE522A006032D2009A
:101E70000843A218013150601960C8E7022A24D132
:101E8000226818001A42D0D1214A94461268072AC3
:101E9000CBD838001027910061180B001043BE40CA
:101EA00038430F00FE335B88FC3733437B60802769
:101EB000BF00CB5B01321E43CE5129006346603127
:101EC000C900611848601A60A1E71800042AACD163
:101ED00022681A42A9D00D490A68072AA5D893009A
:101EE000E31838001F00FC377E608027BF00DE51FA
:101EF0002E006036F6001043A619013270600A60A9
:101F000085E7C04634010010400100103801001080
:101F10003C010010F0B51D00002387B00493059329
:101F2000534B0E001B680400023341680292082BD9
:101F300002D9012007B0F0BD4909C9B20C9801319E
:101F4000FEF720FB029B012B08D162680F3313437D
:101F500063606900FEF716FB050006E0029B002B9C
:101F6000F7D12900FEF70EFB451EB278AF1C632A9D
:101F700009D8002328001900FEF7BEFC64220023C4
:101F8000FEF79AFC070004AB0193802104232A008A
:101F90000093490100232000FFF720FF05AB0193C8
:101FA00080210423050000933A000023200049010A
:101FB000FFF714FF2843BCD101221100049D6B469A
:101FC000A9400391A7681B7B05993B43A3600D9B28
:101FD00017001D60150033788D4071789F408C4646
:101FE000DE00914223D10299224A00290DD1236DAE
:101FF0000399BB432365A419A026F600A3591943EE
:10200000A151A3581D43A55094E7216DA6190F4374
:102010002765B1585B000D4303219940B550626DAF
:102020008A43614699400B001343636582E7029936
:1020300000290BD1236D03991F430E4B2765A4196B
:10204000E2581143A022E150D200DAE7216DA6192F
:10205000B943A0272165FF00F1595B000D43F551FD
:1020600003259D409A40616DA9430A43626561E77B
:102070003401001004050000064B10B51C68012354
:10208000C022A340C9004018920081580B438350DE
:1020900010BDC04640010010044A01201368072B00
:1020A00002D81B18002013607047C0464001001082
:1020B000014B18687047C0464001001070B50124FC
:1020C0009440094ECB00C3189D5922002543A024FB
:1020D0009D51E4001D5949002A431A5103238B40A6
:1020E000826D1343836570BD04050000F7B50400DD
:1020F0000092012901D004291DD11E4D012029681B
:10210000072917D880278E00A619BF00F25B4C3430
:10211000944602009A4013006246884013439BB2E3
:10212000F353238803439BB22380009B1960013142
:1021300029600020FEBD104E012031680729F9D822
:1021400080278D006519BF00EA5B019202009A406A
:1021500013040A4A88401340019A00041343EB51C8
:1021600023004C331B881843009BE0641960013145
:102170003160DEE7380100103C01001000F0FF0F75
:10218000014B9200995070474401001010B5024B6A
:1021900002481B68984710BD6401001000400050C1
:1021A00008000010C027090090051000C05C150051
:1021B000F0B31A00200B2000009F2400E032290019
:1021C000C0C62D0050973100E067350070383900E7
:1021D00000093D004016400080234300C030460007
:1021E00000000000F8B5C046F8BC08BC9E46704729
:0C21F000F8B5C046F8BC08BC9E4670471D
:0821FC009CE1FF7F01000000DF
:04220400750300005E
:042208004903000086
:10220C0000000000080000100000000000000000AA
:10221C0000000000000000000000000000000000B2
:10222C0000000000000000000000000000000000A2
:10223C000000000000000000000000000000000092
:10224C000000000000000000000000000000000082
:10225C000000000000000000000000000000000072
:10226C0000000000000000002D110000001BB70052
:040000030000040DE8
:00000001FF
