:100000000020001065020000DD020000DD0200009B
:1000100000000000000000000000000000000000E0
:10002000000000000000000000000000DD020000F1
:100030000000000000000000DD0200005D01000083
:10004000DD020000DD020000DD020000DD02000034
:10005000DD020000DD020000DD020000DD02000024
:10006000DD020000DD020000DD020000DD02000014
:10007000DD020000DD020000DD020000DD02000004
:10008000DD020000DD020000DD020000DD020000F4
:10009000DD020000DD020000DD020000DD020000E4
:1000A000DD020000DD020000DD020000DD020000D4
:1000B000DD020000DD020000DD020000DD020000C4
:1000C00080B500AF1D4B00221A601D4B1C4A126800
:1000D0001C490A431A601C4B1B4A12681B490A4000
:1000E0001A60194B184A12688021C9000A431A6025
:1000F000174B174A1268802149020A431A60154BB0
:10010000181C00F04DF8144B00221A70642000F007
:1001100035F8114B01221A70642000F02FF80E4BB5
:1001200000221A70642000F029F80B4B01221A708B
:10013000E1239B00181C00F021F8E4E70000001008
:1001400080800440C000040004800440FFFBFFFFE7
:10015000002000A030750000100000A080B500AFA6
:10016000054B1B68002B04D0034B1B685A1E024B27
:100170001A60BD4680BDC0460000001080B582B048
:1001800000AF7860054B7A681A60C046034B1B6865
:10019000002BFBD1BD4602B080BDC0460000001060
:1001A00080B582B000AF78607B680B4A934201D97A
:1001B00001230CE0094B7A681202120A013A1A6014
:1001C000074B00221A60074B07221A600023181CF5
:1001D000BD4602B080BDC046FFFFFF0014E000E056
:1001E00018E000E010E000E080B500AF154B154AC4
:1001F000126880210A431A60134B00221A60134BC5
:1002000024221A60124B00221A60114B01221A603C
:100210000C4B0C4A126880218A431A60C0460D4B71
:100220001B6801221340FAD00B4B03221A600B4BC0
:1002300000221A60094B01221A60094B02221A603F
:10024000BD4680BD388204404080044008800440A0
:10025000448004400C80044070800440748004405A
:100260007880044080B584B000AFFFF7BDFF164B27
:10027000FB60164BBB60164A144BD31A7B6007E039
:10028000BB685A1CBA60FA68511CF96012781A707F
:100290007B685A1E7A60002BF2D10E4BBB600E4A6F
:1002A0000C4BD31A7B6004E0BB685A1CBA60002276
:1002B0001A707B685A1E7A60002BF5D1FFF700FF99
:1002C000BD4604B080BDC046E4020000000000103E
:1002D00000000010000000100400001080B500AF06
:0402E000FEE7C0462F
:00000001FF
