:1000000000200010C1030000390400003904000082
:1000100000000000000000000000000000000000E0
:100020000000000000000000000000003904000093
:10003000000000000000000039040000B9020000C8
:1000400039040000390400003904000039040000BC
:1000500039040000390400003904000039040000AC
:10006000390400003904000039040000390400009C
:10007000390400003904000039040000390400008C
:10008000390400003904000039040000390400007C
:10009000390400003904000039040000390400006C
:1000A000390400003904000039040000390400005C
:1000B000390400003904000039040000390400004C
:1000C00080B584B000AF2E4BFB602E4B2D4A1268DA
:1000D0002D490A431A602D4B2C4A12682C490A40BC
:1000E0001A602A4B294A12688021C9000A431A6003
:1000F000284B284A1268802149020A431A60264B7D
:100100001B68FF229343BB60234BBA6804210A4358
:100110001A60224B181C00F0F1F800F0B1F8204BE7
:10012000204A1A60204B181C00F0F6FB1F4B0122DE
:100130001A701F4B1B681F4A101C191C00F0ECFBA7
:100140001D4B1B687B601D4A7B68101C191C00F04E
:10015000E3FB1B4B1B683B601A4A3B68101C191CD5
:1001600000F0DAFB114B00221A70C82000F0B4F83E
:100170000E4B01221A70C82000F0AEF8F2E7C0461C
:10018000DC0A000080800440C000040004800440B9
:10019000FFFBFFFF002000A000C000403075000002
:1001A00008000010E9010000EC0A0000100000A0A7
:1001B000F81FFF1FFC0A00001C20FF1F140B00008B
:1001C0001420FF1F340B000080B584B000AF7860AE
:1001D0007B68FB6002E0FB68013BFB60FB68002B77
:1001E000F9D1BD4604B080BD80B582B000AF021C1D
:1001F000FB1D1A70C046064B1B6804221340FAD040
:10020000044BFA1D12781A60BD4602B080BDC0468C
:10021000084006401C40064080B500AF4123181C32
:10022000BD4680BD80B584B000AF78600F23FB1859
:1002300000221A7014E0104B0F22BA181278796855
:100240008A1812781A60C0460C4B1B6804221340AF
:10025000FAD00F23FB180F22BA18127801321A7045
:100260000F23FB181B787A68D3181B78002BE2D178
:10027000BD4604B080BDC0461C4006400840064054
:1002800080B500AF084B084A12688021C9010A43B3
:100290001A60064B08221A60054B03221A60054BB0
:1002A00005221A60BD4680BD8080044094800440D1
:1002B000204006400040064080B500AF054B1B685B
:1002C000002B04D0034B1B685A1E024B1A60BD461C
:1002D00080BDC0460400001080B582B000AF7860D9
:1002E000054B7A681A60C046034B1B68002BFBD194
:1002F000BD4602B080BDC0460400001080B582B08B
:1003000000AF78607B680B4A934201D901230CE06F
:10031000094B7A681202120A013A1A60074B00224E
:100320001A60074B07221A600023181CBD4602B052
:1003300080BDC046FFFFFF0014E000E018E000E0D1
:1003400010E000E080B500AF154B154A126880211F
:100350000A431A60134B00221A60134B24221A60BE
:10036000124B00221A60114B01221A600C4B0C4AEE
:10037000126880218A431A60C0460D4B1B68012217
:100380001340FAD00B4B03221A600B4B00221A6069
:10039000094B01221A60094B02221A60BD4680BD3A
:1003A0003882044040800440088004404480044077
:1003B0000C800440708004407480044078800440C5
:1003C00080B584B000AFFFF7BDFF164BFB60164B46
:1003D000BB60164A144BD31A7B6007E0BB685A1CFB
:1003E000BA60FA68511CF96012781A707B685A1E5C
:1003F0007A60002BF2D10E4BBB600E4A0C4BD31A25
:100400007B6004E0BB685A1CBA6000221A707B68EB
:100410005A1E7A60002BF5D1FFF752FEBD4604B09C
:1004200080BDC046D80B0000000000100000001086
:10043000000000100C00001080B500AFFEE7C046C1
:1004400080B584B000AF78600023FB6002E0FB68F9
:100450000133FB60FB687A68D3181B78002BF6D158
:10046000181CBD4604B080BD80B582B000AF786076
:10047000044B1A687B68101C191C00F005F8BD4677
:1004800002B080BD0800001080B582B000AF786077
:1004900039607B68002B04D03A687B68101C984751
:1004A0000BE0074B1B68002B07D0054B1B68591C42
:1004B000034A11603A68D2B21A70BD4602B080BDDC
:1004C0000000001080B582B000AF7860044B1A685D
:1004D0007B68101C191C00F005F8BD4602B080BDF9
:1004E0000800001080B582B000AF7860396009E084
:1004F0003B685A1C3A601B781A1C7B68181C111C3C
:10050000FFF7C2FF3B681B78002BF1D1BD4602B05C
:1005100080BDC04680B598B000AFF860B9607A6021
:10052000BB685A1CBA604322BA181B781370432365
:10053000FB181B78002B00D1E7E14323FB181B7845
:10054000252B08D04323FB181B78FA68101C191CB4
:10055000FFF79AFFD8E100233B653B6DFB643B232B
:10056000FB1820221A7001235B427B64BB685A1C73
:10057000BA604322BA181B7813704323FB181B7808
:10058000302B0BD13B23FB1830221A70BB685A1C4E
:10059000BA604322BA181B7813700DE04323FB188E
:1005A0001B782D2B08D10223FB64BB685A1CBA6050
:1005B0004322BA181B7813704323FB181B782A2B8D
:1005C00016D17B681A1D7A601B68BB64BB6C002B5C
:1005D00004DABB6C5B42BB640223FB64BB6C3B650F
:1005E000BB685A1CBA604322BA181B7813701DE00E
:1005F00012E03A6D131C9B009B185B001A1C4323EE
:10060000FB181B78D318303B3B65BB685A1CBA609B
:100610004322BA181B7813704323FB181B782F2B27
:1006200004D94323FB181B78392BE2D94323FB1849
:100630001B782E2B38D1BB685A1CBA604322BA18DB
:100640001B7813704323FB181B782A2B0CD17B6873
:100650001A1D7A601B687B64BB685A1CBA6043220F
:10066000BA181B7813701FE000237B6412E07A6CC9
:10067000131C9B009B185B001A1C4323FB181B7860
:10068000D318303B7B64BB685A1CBA604322BA184B
:100690001B7813704323FB181B782F2B04D943239B
:1006A000FB181B78392BE2D94323FB181B786C2BE2
:1006B0000AD1FB6C04221343FB64BB685A1CBA606A
:1006C0004322BA181B7813704323FB181B78002BA6
:1006D00000D11AE14323FB181B78583B202B00D98B
:1006E0006AE09A008A4BD3181B689F460223FB6579
:1006F0006BE00823FB6568E00A23FB6565E01023D7
:10070000FB6562E07B681A1D7A601B68DBB21A1C0D
:10071000FB68181C111CFFF7B7FEF5E07B681A1D7B
:100720007A601B68FB63FB6B002B01D1794BFB6389
:10073000FB6B181CFFF784FE031C7B657B6C002B96
:1007400005DB7A6C7B6D9A4201D27B6C7B650AE09B
:100750003B23FB181B78FA68101C191CFFF794FE4A
:100760007B6D01337B65FB6C0222134003D17A6DF4
:100770003B6D9A42ECD309E0FB6B5A1CFA631B7881
:100780001A1CFB68181C111CFFF77EFEFB6B1B7804
:10079000002B04D07B6C5A1E7A64002BECD104E051
:1007A000FB68181C2021FFF76FFE7B6D5A1C7A65D1
:1007B0003A6D9342F4D3A7E04323FB181B78FA6801
:1007C000101C191CFFF760FE9EE0FB6C0422134016
:1007D00005D07B681A1D7A601B687B630EE043239B
:1007E000FB181B78642B04D17B681A1D7A601B6888
:1007F00003E07B681A1D7A601B687B634323FB1848
:100800001B78642B09D17B6B002B06DA7B6B5B4278
:100810007B63FB6C01221343FB640023BB657B6B92
:100820003B633B6B181CF96D00F04CF90B1C1A1C58
:100830004223FB181A70386BF96D00F0BDF8031CE9
:100840003B634223FB181B78092B0ED94323FB186B
:100850001B78782B01D1272300E007234222BA1806
:100860004221791809785B181370BB6D5A1CBA6560
:100870004222BA1812783032D1B21022BA18D154AA
:100880003B6B002B02D0BB6D1F2BCAD9FB6C012226
:10089000134006D0BB6D5A1CBA651022BA182D2120
:1008A000D154BB6D7B650AE03B23FB181B78FA68CB
:1008B000101C191CFFF7E8FD7B6D01337B65FB6C99
:1008C0000222134003D17A6D3B6D9A42ECD3BB6D8B
:1008D000013BBB651023FA18BB6DD3181B781A1C9B
:1008E000FB68181C111CFFF7CFFDBB6D002BEED170
:1008F00004E0FB68181C2021FFF7C6FD7B6D5A1C25
:100900007A653A6D9342F4D30AE6BD4618B080BDCD
:10091000540B0000500B00000FB480B582B000AF44
:100920001423FB187B60074B19683A697B68081C25
:10093000111C1A1CFFF7EEFDBD4602B080BC08BCBE
:1009400004B01847080000100EB480B585B000AFA1
:1009500078602023FB18FB607968FA69FB68081C43
:10096000111C1A1CFFF7D6FDBD4605B080BC08BCA3
:1009700003B018470EB480B585B000AF78600D4B5A
:100980007A681A602023FB18FB60FA69FB68002074
:10099000111C1A1CFFF7BEFD064B1B6800221A70C3
:1009A000044B00221A60BD4605B080BC08BC03B0F1
:1009B0001847C04600000010002243088B4274D341
:1009C00003098B425FD3030A8B4244D3030B8B4250
:1009D00028D3030C8B420DD3FF22090212BA030C59
:1009E0008B4202D31212090265D0030B8B4219D33A
:1009F00000E0090AC30B8B4201D3CB03C01A52415A
:100A0000830B8B4201D38B03C01A5241430B8B42A1
:100A100001D34B03C01A5241030B8B4201D30B038A
:100A2000C01A5241C30A8B4201D3CB02C01A5241B1
:100A3000830A8B4201D38B02C01A5241430A8B4274
:100A400001D34B02C01A5241030A8B4201D30B025D
:100A5000C01A5241CDD2C3098B4201D3CB01C01A77
:100A6000524183098B4201D38B01C01A5241430981
:100A70008B4201D34B01C01A524103098B4201D36F
:100A80000B01C01A5241C3088B4201D3CB00C01ADC
:100A9000524183088B4201D38B00C01A5241430854
:100AA0008B4201D34B00C01A5241411A00D2014679
:100AB000524110467047FFE701B5002000F00CF8E6
:100AC00002BDC0460029F7D003B5FFF775FF0EBC85
:0C0AD0004243891A1847C0467047C046D0
:100ADC0048656C6C6F20776F726C64210A0D000096
:100AEC005465737420787072696E74660D0A000018
:100AFC00526F6D20447269766572205461626C6528
:100B0C003A2025580A0D000053657269616C205219
:100B1C006F7574696E6573206172652061743A201B
:100B2C0025580A0D0000000053504920526F75746F
:100B3C00696E6573206172652061743A2025580ACC
:100B4C000D00000000000000FE060000B8070000C9
:100B5C00B8070000B8070000B8070000B80700008D
:100B6C00B8070000B8070000B8070000B80700007D
:100B7C00EC06000004070000F8060000B8070000AF
:100B8C00B8070000B8070000B8070000B80700005D
:100B9C00B8070000B8070000B8070000B80700004D
:100BAC00B8070000F2060000B8070000B807000004
:100BBC00B80700001C070000B8070000F80600008A
:0C0BCC00B8070000B8070000FE0600009B
:00000001FF
