:10000000002000109D0200001503000015030000F1
:1000100000000000000000000000000000000000E0
:1000200000000000000000000000000015030000B8
:100030000000000000000000150300001503000090
:100040001503000015030000150300001503000050
:100050001503000015030000150300001503000040
:100060001503000015030000150300001503000030
:100070001503000015030000150300001503000020
:100080001503000015030000150300001503000010
:100090001503000015030000150300001503000000
:1000A00015030000150300001503000015030000F0
:1000B00015030000150300001503000015030000E0
:1000C00080B582B000AF1D4B7B601D4B1A681C4B86
:1000D0001C490A431A601C4B1A681B4B1B490A40F7
:1000E0001A60194B1A68184B8021C9000A431A601C
:1000F000174B1A68164B802149020A431A60154BA8
:100100001B68FF2293433B60124B3A6804210A4369
:100110001A6000F065F8104B00221A707B68180016
:1001200000F030F80D4B180000F01AF80A4B0122CD
:100130001A700A4B180000F013F8ECE71C030000DB
:1001400080800440C000040004800440FFFBFFFFE7
:10015000002000A000C00040100000A040420F009E
:1001600080B584B000AF78607B68FB6002E0FB681C
:10017000013BFB60FB68002BF9D1C046C046BD4681
:1001800004B080BD80B584B000AF78600F23FB1849
:1001900000221A7013E00F23FB181B787A68D3181B
:1001A0001A780D4B1A60C0460C4B1B680422134092
:1001B000FAD00F22BB18BA18127801321A700F2326
:1001C000FB181B787A68D3181B78002BE3D1C04644
:1001D000C046BD4604B080BD1C40064008400640F5
:1001E00080B500AF094B1A68084B8021C9010A434A
:1001F0001A60074B08221A60064B03221A60064B4E
:1002000005221A60C046BD4680BDC04680800440BD
:1002100094800440204006400040064080B500AF76
:10022000164B1A68154B80210A431A60144B0022A2
:100230001A60144B24221A60134B00221A60124BCE
:1002400001221A600D4B1A680C4B80218A431A60F8
:10025000C0460E4B1B6801221340FAD00C4B032200
:100260001A600C4B00221A600A4B01221A600A4BDA
:1002700002221A60C046BD4680BDC0463882044096
:100280004080044008800440448004400C800440C6
:1002900070800440748004407880044080B584B04D
:1002A00000AFFFF7BBFF164BFB60164BBB60164A57
:1002B000144BD31A7B6007E0FA68531CFB60BB68E1
:1002C000591CB96012781A707B685A1E7A60002B2C
:1002D000F2D10E4BBB600E4A0C4BD31A7B6004E08C
:1002E000BB685A1CBA6000221A707B685A1E7A607A
:1002F000002BF5D1FFF7E4FEC046BD4604B080BD3B
:100300002C0300000000001000000010000000108E
:0C0310000000001080B500AFFEE7C04602
:10031C0048656C6C6F20776F726C64210A0D00005D
:00000001FF
