:10000000E01F0010110C0000490C00004D0C000016
:1000100000000000000000000000000000000000E0
:10002000000000000000000000000000510C000073
:100030000000000000000000550C0000D903000083
:100040005D0C0000610C0000650C0000690C0000F4
:100050006D0C0000710C0000750C0000790C0000A4
:100060007D0C0000810C0000850C0000890C000054
:100070008D0C0000910C0000950C0000990C000004
:100080009D0C0000A10C0000A50C0000A90C0000B4
:10009000AD0C0000B10C0000B50C0000B90C000064
:1000A000BD0C0000C10C0000C50C0000C90C000014
:1000B000CD0C0000D10C0000D50C0000D90C0000C4
:0402FC00FFFFFFFF02
:1003000010B5064C2378002B07D1054B002B02D0EB
:10031000044800E000BF0123237010BD70000010EE
:10032000000000002C17000008B5084B002B03D07C
:100330000748084900E000BF07480368002B00D1C8
:1003400008BD064B002BFBD09847F9E700000000E2
:100350002C170000740000106C000010000000005A
:10036000164B002B00D1144B9D46402292029A1A44
:10037000924600218B460F461348144A121A01F088
:1003800077F80F4B002B00D098470E4B002B00D076
:1003900098470020002104000D000D48002802D0DD
:1003A0000C4800E000BF01F029F82000290000F00F
:1003B000CBFF01F00DF8C04600000800E01F001060
:1003C000000000000000000070000010AC000010F1
:1003D0000000000000000000034B1A68002A02D051
:1003E0001A68013A1A607047A4000010024B1860A6
:1003F0001A68002AFCD17047A40000108E2373B540
:100400000125022100260F4C9B00E2586846AA43B2
:10041000E250E2588A43E2500B4B1E606B461E715D
:100420000A4B009300F084FAC020800000F070FBBB
:10043000FF22074B1E60A36F93432B43A36700F07B
:1004400009F873BD00800440408004400087930396
:10045000E080044070B51F4D00206B6ADB051B0F68
:10046000013B0E2B02D81C4A9B0098580322696A54
:100470002B6F184E1340194C022B0FD0934215D0FE
:10048000012B09D1336C1340012B05D0002B03D075
:10049000032B01D1002315E0114B13E01F2319405A
:1004A0000131490000F070FC20600CE0B068326C53
:1004B00000211340032B00D009491F22031C1340C5
:1004C00001334B432360A96F206800F05DFC20607E
:1004D00070BDC04600800440E81600000400001013
:1004E000001BB700704708B5044A054B9A60054ADF
:1004F000054B1A60FFF7F6FF08BDC046000000007C
:1005000000ED00E0001BB7000400001038B54B1EE2
:100510004D421B182B40834201D2002014E00522DB
:100520005242521A9342F8D8081DC0180C1C00F011
:100530008BFF031EF1D003342418281C03492040EC
:10054000021FC31A1180538038BDC04639300000E5
:1005500008B5031F1988044A914203D15B88C01A69
:1005600000F07CFF08BDC0463930000008B5002807
:100570000FD00A1C00210B1C00F0B8FC054A002318
:1005800000F094FC890780080843001C013800280B
:10059000FCD108BD40420F004021044A08B5D36F8A
:1005A0000A200B43D36700F003FB08BD048004401E
:1005B00070B54026134DEC6F3443EC671D788C000A
:1005C000002D08D10121802591400019AD0143592A
:1005D0008B43435114E05D7801239340002D01D1FA
:1005E0008A2500E088252D01491989000B50012139
:1005F0009140001980240A1CA40103591A43025196
:1006000070BDC04604800440EFF3108372B607202B
:1006100006490A6882430A60054903380A69824329
:100620000A6130BF83F310887047C0460000024063
:1006300000ED00E010B5EFF3108272B607240C490C
:100640000B68A343063C23430B608C21094C8900B3
:100650006358834304206350074B196901431961B0
:1006600030BF19698143196182F3108810BDC046FB
:10067000000002400080044000ED00E010B5EFF300
:10068000108272B607240C490B68A343053C234330
:100690000B608C21094C890063588343042063500C
:1006A000074B19690143196130BF19698143196109
:1006B00082F3108810BDC046000002400080044054
:1006C00000ED00E0EFF3108272B60F2008490B68CE
:1006D00083430C3803430B60064B01301969014317
:1006E000196130BF19698143196182F3108870471D
:1006F0000000024000ED00E030B50E4B172807D98E
:100700008124051C0122A400183D1959AA4004E0C7
:10071000012285248240A40019590A431A51002855
:1007200006DB1F2318401E3B8340181C024B186039
:1007300030BDC0460080044000E100E010B5002854
:100740000ADB1F23012203409A40131C0A4AD36785
:10075000BFF34F8FBFF36F8F084B172804D9812445
:10076000A4001A59183802E08524A4001A5901215E
:1007700081408A431A5110BD04E100E0008004402A
:1007800003688B43036003680B43036003681942EB
:10079000FCD0704700487047001BB7008E23044A06
:1007A0009B00D35800209B0601D4024B1868704769
:1007B000008004408C00001008B50A4B1A6C03231B
:1007C0001340012B08D0002B04D0032B07D1064B7C
:1007D000186805E0054803E0FFF7E0FF00E00020AF
:1007E00008BDC046008004408C000010001BB7000C
:1007F0000D4B10B51A6F1C1C0020032A13D8101CB7
:1008000000F0B8FA0204070A08480CE0FFF7D4FF2A
:1008100009E0074B586806E0FFF7CEFF1F23A268E8
:1008200013400133584310BD00800440001BB70043
:100830008C0000100F4B10B51C680F4BE4B2186809
:10084000002303280ED800F095FA0204070A0B4B88
:1008500008E0FFF7A3FF04E0094B5B6802E0FFF745
:10086000C7FF031C0020844203D0181C211C00F089
:100870008BFA10BDE8800440E0800440001BB70004
:100880008C00001038B5FFF7B3FF0A4BFF251C683A
:1008900000232C409C420AD0074A010E1268000235
:1008A00015406A1CFF32624300F000FB031C181C59
:1008B00038BDC04694800440F480044008B5FFF77A
:1008C000E1FF08BD08B5FFF7DDFF08BD08B5FFF77C
:1008D000D9FF08BD08B5072805D800F04BFA060E69
:1008E00004201117041400201AE0FFF781FF0D4BBC
:1008F000996FC9B200F048FA12E0FFF779FF0FE0F4
:10090000094B18680CE0084B586809E0FFF754FFE2
:10091000044B9A681F2313400133584300E00348F7
:1009200008BDC046008004408C000010001BB700CA
:100930008E228021F8B503271F4C9200A358061C75
:100940000B43A350236C0179226CBB430B4313432D
:100950002364391C1948FFF713FFFFF72DFF051C0F
:100960003668291C301C00F00FFA154A0023964205
:1009700008D8144A0133964204D8134BB3429B4122
:100980005B42FB1A1F21461E31407F26A2685B0195
:10099000B2431143602213400B438021D932A3603C
:1009A000FF32A3588B43A350E368DB07FCD56843B1
:1009B000064B9860F8BDC046008004404480044067
:1009C000802FA604C0175302E08B29018C00001071
:1009D0001821074A10B5D36A8B43D362E022054938
:1009E00052008C58044B23408B50044B186010BDB0
:1009F0000040044000C00040FFFDFFFF8C000010DD
:100A00001821104A10B5936B041C8B439363E022AA
:100A100040200D4952008B5883438B5001210B4BD2
:100A200020381A6A0A438E211A6289005A58824372
:100A3000D5305A50FF300649FFF798FD054B1C6032
:100A400010BDC0460040044000C00040008004408B
:100A500080C3C9018C0000101821164B10B55A6BC9
:100A6000041C8A435A639A6BC0208A439A63E0222B
:100A7000114952008B5883438B501049BE3A0B6A80
:100A8000FF3A93430E4A086AA242924152425200F0
:100A9000034313438E2220200B6292008B58834322
:100AA000D5308B50FF300749FFF760FD064B1C60C7
:100AB00010BDC0460040044000C00040008004401B
:100AC000C0E1E40080C3C9018C00001038B5F023F8
:100AD000C50C5B002B401F250B4C0002626A000A0C
:100AE000520A520213434A08013A2A4013438E2203
:100AF00063629200A3582135AB43A35000F044F940
:100B0000024B586038BDC046008004408C00001085
:100B100003210A4A10B5136FC4B20B40000A834286
:100B20000AD0002C08D1136F08408B43184310677C
:100B300002390348FFF724FE10BDC0460080044080
:100B40007480044070B5041C0025FFF751FE114B62
:100B5000061C1B685C43AC4219D0844217D8211C88
:100B600000F012F9012812D8221CFF240A492B1C7C
:100B70000C60301C291C801A9941050E090229437A
:100B8000000200F093F90125044B04401C60281C6E
:100B900070BDC04694800440F0800440F48004405E
:100BA00008B502480121FFF7EBFD08BDE4800440D1
:100BB00001238340181C044B5A6882435A605A68C8
:100BC000104358607047C046008004408B089B006B
:100BD000C018032319409940FC338B4010B50468BA
:100BE0008A409C43231C1343036010BD002A07D096
:100BF00000290CDBE022520083588B43835006E02F
:100C0000002904DBE02252008358194381507047C9
:100C100072B6074880470749074A084B9B1A03DD0D
:100C2000043BC858D050FBDC62B605488047000042
:100C3000E7040000581700000000001070000010CA
:100C40006103000025480047254800472548004724
:100C500025480047254800472548004725480047C4
:100C600025480047254800472548004725480047B4
:100C700025480047254800472548004725480047A4
:100C80002548004725480047254800472548004794
:100C90002548004725480047254800472548004784
:100CA0002548004725480047254800472548004774
:100CB0002548004725480047254800472548004764
:100CC0002548004725480047254800472548004754
:100CD000254800472548004725480047450C0000A7
:100CE000490C00004D0C0000510C0000550C000098
:100CF000D9030000450C0000450C0000450C000025
:100D0000450C0000450C0000450C0000450C00009F
:100D1000450C0000450C0000450C0000450C00008F
:100D2000450C0000450C0000450C0000450C00007F
:100D3000450C0000450C0000450C0000450C00006F
:100D4000450C0000450C0000450C0000450C00005F
:100D5000450C0000450C0000450C0000450C00004F
:100D6000450C0000450C0000450C0000450C00003F
:100D7000450C000002B4714649084900095C49006D
:100D80008E4402BC7047C046002243088B4274D395
:100D900003098B425FD3030A8B4244D3030B8B427C
:100DA00028D3030C8B420DD3FF22090212BA030C85
:100DB0008B4202D31212090265D0030B8B4219D366
:100DC00000E0090AC30B8B4201D3CB03C01A524186
:100DD000830B8B4201D38B03C01A5241430B8B42CE
:100DE00001D34B03C01A5241030B8B4201D30B03B7
:100DF000C01A5241C30A8B4201D3CB02C01A5241DE
:100E0000830A8B4201D38B02C01A5241430A8B42A0
:100E100001D34B02C01A5241030A8B4201D30B0289
:100E2000C01A5241CDD2C3098B4201D3CB01C01AA3
:100E3000524183098B4201D38B01C01A52414309AD
:100E40008B4201D34B01C01A524103098B4201D39B
:100E50000B01C01A5241C3088B4201D3CB00C01A08
:100E6000524183088B4201D38B00C01A5241430880
:100E70008B4201D34B00C01A5241411A00D20146A5
:100E8000524110467047FFE701B5002000F00CF812
:100E900002BDC0460029F7D003B5FFF775FF0EBCB1
:100EA0004243891A1847C0467047C046002B11D1EB
:100EB000002A0FD1002900D1002802D00021C94307
:100EC000081C07B4024802A14018029003BDC046A6
:100ED000D9FFFFFF03B4684601B5029800F04CF853
:100EE000019B9E4602B00CBC7047C046F0B54F4611
:100EF000464605042D0C2C1CC0B41704160C3F0CE0
:100F00009946030C7C4375435F4373437D19260C5C
:100F1000AD199C46AF4203D980235B029846C44476
:100F20004B465143434324042E0C240C2D046644A9
:100F30002C1959188919201C0CBC90469946F0BDF3
:100F4000F0B583B0161C1F1C0090019100F02EF824
:100F5000041C0D1C221C2B1C301C391CFFF7C6FF67
:100F6000009A019B121A8B410899201C0A604B6061
:100F7000291C03B0F0BDC046F0B5141C83B01D1C85
:100F80000090019100F00AF9221C2B1C061C0F1C7A
:100F9000FFF7ACFF009A019B121A8B410899301C95
:100FA0000A604B60391C03B0F0BDC046F0B5444642
:100FB0005F4656464D46F0B41C1C85B0002900DA49
:100FC000A9E00F1C0021061C8846101C191C002CCF
:100FD00000DA97E0341C3D1C82468946B94273D83A
:100FE00070D04946504600F085F98346391C301CC4
:100FF00000F080F95B46181A031C8346203B9C4690
:1010000000D59CE0002300225146009201936346E4
:101010009940019151468140019B0091BB4200D90A
:1010200083E000D17EE0009A019B341C3D1CA41A91
:101030009D416346002B00DA9AE0002600270296C5
:10104000039701369E4003960126864002960028AB
:1010500000D171E00099019AD30799464B464E089A
:101060001E435708002301220CE0AF4201D1A642E3
:101070000AD8A41BBD4124196D410138A4185D4153
:10108000002806D0AF42F0D9013824196D4100285C
:10109000F8D12022029E039F5B46524236196F41CF
:1010A00099185AD4281CC8402C1C5B46DC400029E7
:1010B00068DB041C8C40231C59468840021CB61A6D
:1010C0009F4103E0B0428CD90026002741464B1EC9
:1010D0009941002300910193009A019B00255442FD
:1010E0009D41331C6340181C3B1C6B40191C009B2A
:1010F000019CC018614105B03CBC90469946A2468F
:10110000AB46F0BD4346DB430C1C9846131C002144
:101110005842A1415EE7002746428F4101214942E2
:10112000884652E7B14200D87DE7002600270296A4
:101130000397002800D08DE7029E039FC6E7202179
:101140005346091ACB400022191C00230092019338
:101150004B4683400B4301935CE75A4620239B1A7E
:101160002A1C9A40201C131C5A46D04018439BE767
:1011700020260027331A0026029603970127DF4016
:10118000039761E75B4620215D46C91A031CAC400A
:10119000CB40191C231C0B438EE7C046F0B54546D7
:1011A0004E465746E0B4041C82B00D1C914698464A
:1011B0008B4262D85FD04146484600F09BF8291C1C
:1011C000061C201C00F096F82023311A5B428A4648
:1011D000C81865D44B4683401F1C4B468B401E1CD1
:1011E000AF4258D855D0A41BBD41002800DA77E0A3
:1011F00000220023009201930132824001920123D8
:101200008B40009300293CD0FB079846404672086B
:101210007B080243012600270CE0AB4201D1A24229
:101220000AD8A41A9D4124196D410139A4197D41A0
:10123000002906D0AB42F0D9013924196D410029AB
:10124000F8D1202200980199534652420019694171
:101250009E183AD42F1CF7405346DD40002E29DB60
:101260003C1CB440231C5446A7403A1C801A9941A8
:101270000090019105E082429DD900230024009353
:1012800001940098019902B01CBC90469946A24670
:10129000F0BDA342A7D90022002300920193B1E739
:1012A00020224B46521AD3401A1C43468B401F1C27
:1012B000174392E7534620245646E41A3B1CB54098
:1012C000E3401C1C2B1C2343CDE7524620239B1AD2
:1012D0002A1C9A40271C131C5246D7401F43BBE7C9
:1012E00020230022581A0023009201930132C240A9
:1012F000019284E710B5002903D100F007F82030EF
:1013000002E0081C00F002F810BDC0461C210123B9
:101310001B04984201D3000C10391B0A984201D3D8
:10132000000A08391B09984201D30009043902A2B6
:10133000105C40187047C04604030202010101011D
:10134000000000000000000037B50123002401ADBB
:101350002B706C70FFF752F84021A020174A00064E
:10136000D36F0B43D367211C10222B1CFFF720F9EE
:10137000FA21134B89001868FFF706FD114B01385D
:1013800098420CD8104A11495060C0200B6A0006E0
:101390001B021B0A03430B62072394601360A02403
:1013A0000023FA20240623744000FFF71FF80123CE
:1013B000FA2023744000FFF719F8F0E70480044096
:1013C00004000010FFFFFF0010E000E000ED00E06F
:1013D000084B10B5041C002B02D0002100E000BF18
:1013E000054B1868836A002B00D09847201C00F03A
:1013F00079F9C04600000000281700000E4B70B5B8
:1014000000251E1C0D4CE41AA410A54204D0AB000C
:10141000F35898470135F8E700F08AF9084B0025A2
:101420001E1C084CE41AA410A54204D0AB00F358CB
:1014300098470135F8E770BD5017000050170000BD
:10144000501700005417000008B5034B011C186822
:1014500000F05CF808BDC0466800001008B5034BFA
:10146000011C186800F00CF808BDC04668000010A8
:10147000031C8218934202D019700133FAE77047B7
:1014800030B500293ED004390B68002B00DAC918AA
:101490001D4A1368141C002B02D14B60116031E00F
:1014A00099420DD208680A189A4203D11368C318EA
:1014B0000B6053684B60216024E08A4203D8131C00
:1014C0005A68002AF9D11D685C198C420BD1096851
:1014D000691858181960904214D110685268091898
:1014E00019605A600EE08C4202D90C23036009E0B7
:1014F00008680C18944203D11468526800190860F7
:101500004A60596030BDC0469C000010032370B58E
:10151000CC1C9C430834051C0C2C01D20C2405E087
:10152000002C03DA0C2300202B6042E08C42F9D31C
:10153000204A1368101C191C002913D00A68121BBA
:101540000DD40B2A02D90A608B181FE08B4202D1FE
:101550005A6802601BE04A685A600B1C17E00B1CBB
:101560004968E9E7144E3368002B03D1281C00F0CA
:1015700025F83060281C211C00F020F8031C421CB8
:10158000D0D00322C61C964386420AD11C60181C88
:1015900007210B301A1D8843821A0AD051429950F4
:1015A00007E0311A281C00F009F8431CBAD0331C9C
:1015B000ECE770BD9C0000109800001038B50023C7
:1015C000064C051C081C236000F07EF8431C03D168
:1015D0002368002B00D02B6038BDC046A800001047
:1015E00038B50C1C0968051C002901D0FFF7F8FF6D
:1015F000281C211CFFF744FF38BD0000314B70B59B
:101600001B6898425DD0436A041C002B1DD0DB6828
:10161000002B13D00025636ADB685959002905D0D7
:101620000E68201CFFF72CFF311CF7E70435802DD6
:10163000F1D1636A201CD968FFF722FF636A196839
:10164000002902D0201CFFF71BFF6169002902D08E
:10165000201CFFF715FF616A002902D0201CFFF74C
:101660000FFFA16B002902D0201CFFF709FFE16BDF
:10167000002902D0201CFFF703FF216C002902D0B3
:10168000201CFFF7FDFEE16D002902D0201CFFF7B2
:10169000F7FEA16D002902D0201CFFF7F1FE616B5F
:1016A000002902D0201CFFF7EBFEA369002B08D015
:1016B000201CA36A9847A16C002902D0201CFFF7C8
:1016C0008FFF70BD68000010044A1368002B03D020
:1016D00018181060181C7047014BF9E7A0000010A3
:1016E000B0000010FEE7C046C027090090051000BA
:1016F000C05C1500F0B31A00200B2000009F2400EE
:10170000E0322900C0C62D0050973100E067350057
:101710007038390000093D00401640008023430026
:10172000C030460043000000080000100000000028
:10173000F8B5C046F8BC08BC9E467047F8B5C04630
:08174000F8BC08BC9E4670478E
:0817480018ECFF7F0100000016
:041750002903000069
:04175400010300008D
:1017580000000000001BB7000000000000000000AF
:101768000000000000000000000000000000000071
:101778000000000000000000241700000000000026
:101788000000000000000000000000000000000051
:101798000000000000000000000000000000000041
:1017A8000000000000000000000000000000000031
:1017B8000000000000000000080000100000000009
:0400000300000C11DC
:00000001FF
